:100000000C9465000C948D000C948D000C948D0064
:100010000C948D000C949A000C948D000C948D001F
:100020000C948D000C9446020C948D000C948D0061
:100030000C948D000C94C5020C948D000C948D00D2
:100040000C94B0190C948D000C94F21A0C948D0041
:100050000C948D000C948D000C948D000C948D00EC
:100060000C948D000C948D000000000024002700EB
:100070002A0000000000250028002B0000000000DE
:1000800023002600290004040404040404040202DA
:100090000202020203030303030301020408102007
:1000A0004080010204081020010204081020000012
:1000B0000007000201000003040600000000000029
:1000C000000007135419771B591911241FBECFEFD5
:1000D000D8E0DEBFCDBF14E0A0E0B1E0EAEBF1E490
:1000E00002C005900D92AC36B107D9F717E0ACE627
:1000F000B4E001C01D92A038B107E1F710E0C8ECF0
:10010000D0E004C02297FE010E94CC20C23CD1075F
:10011000C9F70E94B11B0C94EE1D0C940000E8E698
:10012000F0E0808184608083EDE6F0E080818C6384
:10013000808308951F920F920FB60F9211242F9370
:100140003F938F939F93AF93BF9389B18695869585
:1001500086958170209174042E7F282B209374043F
:1001600089B1869582702D7F282B2093740499B1D4
:1001700092959170809175048E7F892B8093750480
:1001800099B1929592708D7F892B8093750480919F
:100190007604322F317020FF05C080FD26C021FD7E
:1001A00005C010C080FF21C021FD0CC080916C04EF
:1001B00090916D04A0916E04B0916F040197A10914
:1001C000B1090BC080916C0490916D04A0916E04F4
:1001D000B0916F040196A11DB11D80936C049093A2
:1001E0006D04A0936E04B0936F048091760421FF98
:1001F00005C081FD26C0332329F410C081FF21C032
:10020000332361F480916C0490916D04A0916E048D
:10021000B0916F040196A11DB11D0BC080916C04BB
:1002200090916D04A0916E04B0916F040197A109A3
:10023000B10980936C0490936D04A0936E04B09305
:100240006F042091750480917704322F317020FF64
:1002500005C080FD26C021FD05C010C080FF21C063
:1002600021FD0CC08091700490917104A0917204E2
:10027000B09173040197A109B1090BC0809170047A
:1002800090917104A0917204B09173040196A11D24
:10029000B11D8093700490937104A0937204B09385
:1002A00073048091770421FF05C081FD26C03323AC
:1002B00029F410C081FF21C0332361F480917004C0
:1002C00090917104A0917204B09173040196A11DE4
:1002D000B11D0BC08091700490917104A0917204C3
:1002E000B09173040197A109B109809370049093B0
:1002F0007104A0937204B09373048091740490917C
:1003000075049093770480937604BF91AF919F9189
:100310008F913F912F910F900FBE0F901F901895C6
:100320006F927F928F929F92AF92BF92CF92DF9205
:10033000EF92FF920F931F93CF93DF93EC015A013B
:100340006B0138014901CB01BA01A90198010E9452
:10035000AD1F2C853D854E855F850E94FB1D8B0161
:10036000F82EE92E9701862F912FA32FB22F8C877D
:100370009D87AE87BF87602F712F832F922F20E03C
:1003800030E040E85FE30E94A91F18162CF480E0DB
:1003900090E0A0E8BFE311C09701602F712F832F79
:1003A000922F20E030E040E85FEB0E945F1E87FF65
:1003B00008C080E090E0A0E8BFEB8C879D87AE8707
:1003C000BF87C601B501288139814A815B810E94BE
:1003D000AD1F7B018C016C817D818E819F812C857D
:1003E0003D854E855F850E94AD1F9B01AC01C80114
:1003F000B7010E94FB1D7B018C01C601B501288954
:1004000039894A895B890E94FA1D288539854A8580
:100410005B850E94AD1FA40193010E94631E9B0196
:10042000AC01C801B7010E94FB1DA88AB98ACA8A1B
:10043000DB8ADF91CF911F910F91FF90EF90DF90BA
:10044000CF90BF90AF909F908F907F906F900895C6
:1004500080E00E948F19089581E00E948F1908950D
:1004600082E00E948F19089583E00E948F190895F9
:100470001092B00084E08093B10081E0809370001E
:100480001092B60086E08093B20008951F920F92FA
:100490000FB60F9211248F939F93AF93BF9386E073
:1004A0008093B2008091780490917904A0917A04AD
:1004B000B0917B040196A11DB11D809378049093A7
:1004C0007904A0937A04B0937B04BF91AF919F917C
:1004D0008F910F900FBE0F901F90189589E061E0EB
:1004E0000E94411A8AE061E00E94411A82EA8093E8
:1004F00080008AE18093810081E080936F0080E436
:100500009CE990938700809386001092850010925A
:10051000840088EB9BE090938900809388009093FF
:100520008B0080938A000895EF92FF920F931F93A0
:1005300079018A0120E030E04AE754E40E94AD1FCF
:1005400020E030E84BE355E40E94FB1D0E94CB1EE7
:100550007093890060938800C801B70120E030E003
:100560004AE754E40E94AD1F20E030E84BE355E435
:100570000E94FB1D0E94CB1E70938B0060938A002B
:100580001F910F91FF90EF9008951F920F920FB659
:100590000F9211248F9381E080937C048F910F90B0
:1005A0000FBE0F901F9018950E94CB140E943F0E13
:1005B000789408950E9447190E9459120895FC01E9
:1005C000DB0132812381948185813C9311962C93A8
:1005D000119712969C93129713968C9313973681CA
:1005E00027819085818514963C93149715962C93BA
:1005F000159716969C93169717968C931797328596
:1006000023859485858518963C93189719962C9385
:1006100019971A969C931A971B968C931B978CE0AC
:1006200090E00895EF92FF920F931F93CF93DF9383
:10063000FC01EB01898190E0A0E0B0E0BA2FA92F86
:10064000982F8827288130E040E050E0822B932BC0
:10065000A42BB52B2A8130E040E050E0A9013327DC
:100660002227282B392B4A2B5B2B8B8190E0A0E093
:10067000B0E0B82FAA2799278827822B932BA42B89
:10068000B52B82839383A483B5832C8130E040E033
:1006900050E08D8190E0A0E0B0E0BA2FA92F982F14
:1006A0008827822B932BA42BB52B2E8130E040E0A2
:1006B00050E0A90133272227282B392B4A2B5B2B0B
:1006C0008F8190E0A0E0B0E0B82FAA279927882773
:1006D000822B932BA42BB52B86839783A087B1877E
:1006E000288530E040E050E0898590E0A0E0B0E06F
:1006F000BA2FA92F982F8827822B932BA42BB52BA9
:10070000EA84FF2400E010E08701FF24EE24E82AB9
:10071000F92A0A2B1B2B2B8530E040E050E0522FAA
:100720004427332722272E293F29402B512B22876C
:100730003387448755878CE090E0DF91CF911F91FC
:100740000F91FF90EF90089580E091E0089581E18E
:1007500091E00895FC01DB01328123819481858140
:100760003C9311962C93119712969C931297139683
:100770008C931397368127819085818514963C93BD
:10078000149715962C93159716969C931697179673
:100790008C93179788E090E00895EF92FF920F9363
:1007A0001F93CF93DF93FC01EB01898190E0A0E0E0
:1007B000B0E0BA2FA92F982F8827288130E040E099
:1007C00050E0822B932BA42BB52B2A8130E040E004
:1007D00050E0A90133272227282B392B4A2B5B2BEA
:1007E0008B8190E0A0E0B0E0B82FAA279927882756
:1007F000822B932BA42BB52B82839383A483B58365
:100800002C8130E040E050E08D8190E0A0E0B0E04D
:10081000BA2FA92F982F8827822B932BA42BB52B87
:10082000EE80FF2400E010E08701FF24EE24E82A98
:10083000F92A0A2B1B2B2F8130E040E050E0522F89
:100840004427332722272E293F29402B512B26834B
:1008500037834087518788E090E0DF91CF911F91E7
:100860000F91FF90EF90089582E391E0089585E461
:1008700091E00895FC01DB0132812381948185811F
:100880003C9311962C93119712969C931297139662
:100890008C931397368127819085818514963C939C
:1008A000149715962C93159716969C931697179652
:1008B0008C93179788E090E00895EF92FF920F9342
:1008C0001F93CF93DF93FC01EB01898190E0A0E0BF
:1008D000B0E0BA2FA92F982F8827288130E040E078
:1008E00050E0822B932BA42BB52B2A8130E040E0E3
:1008F00050E0A90133272227282B392B4A2B5B2BC9
:100900008B8190E0A0E0B0E0B82FAA279927882734
:10091000822B932BA42BB52B82839383A483B58343
:100920002C8130E040E050E08D8190E0A0E0B0E02C
:10093000BA2FA92F982F8827822B932BA42BB52B66
:10094000EE80FF2400E010E08701FF24EE24E82A77
:10095000F92A0A2B1B2B2F8130E040E050E0522F68
:100960004427332722272E293F29402B512B26832A
:1009700037834087518788E090E0DF91CF911F91C6
:100980000F91FF90EF90089586E691E0089585E439
:1009900091E0089580E090E0089580E090E008956F
:1009A00089E791E008958CE891E00895FC01DB016E
:1009B00032812381948185813C9311962C931197E8
:1009C00012969C93129713968C93139736812781D6
:1009D0009085818514963C93149715962C931597C2
:1009E00016969C93169717968C93179732852385A6
:1009F0009485858518963C93189719962C9319978A
:100A00001A969C931A971B968C931B97368527856D
:100A1000908981891C963C931C971D962C931D9759
:100A20001E969C931E971F968C931F9780E190E0D3
:100A30000895EF92FF920F931F93CF93DF93FC01E2
:100A4000EB01898190E0A0E0B0E0BA2FA92F982FA8
:100A50008827288130E040E050E0822B932BA42BA4
:100A6000B52B2A8130E040E050E0A901332722274E
:100A7000282B392B4A2B5B2B8B8190E0A0E0B0E038
:100A8000B82FAA2799278827822B932BA42BB52B25
:100A900082839383A483B5832C8130E040E050E0CF
:100AA0008D8190E0A0E0B0E0BA2FA92F982F882781
:100AB000822B932BA42BB52B2E8130E040E050E00D
:100AC000A90133272227282B392B4A2B5B2B8F8117
:100AD00090E0A0E0B0E0B82FAA2799278827822BC2
:100AE000932BA42BB52B86839783A087B18728856A
:100AF00030E040E050E0898590E0A0E0B0E0BA2F1F
:100B0000A92F982F8827822B932BA42BB52B2A85CE
:100B100030E040E050E0A90133272227282B392B71
:100B20004A2B5B2B8B8590E0A0E0B0E0B82FAA2782
:100B300099278827822B932BA42BB52B8287938709
:100B4000A487B5872C8530E040E050E08D8590E0AB
:100B5000A0E0B0E0BA2FA92F982F8827822B932BE3
:100B6000A42BB52BEE84FF2400E010E08701FF24C6
:100B7000EE24E82AF92A0A2B1B2B2F8530E040E0CF
:100B800050E0522F4427332722272E293F29402B7C
:100B9000512B26873787408B518B80E190E0DF9186
:100BA000CF911F910F91FF90EF9008958DEA91E002
:100BB000089581EC91E00895FC01DB0132812381ED
:100BC000948185813C9311962C93119712969C9356
:100BD000129713968C931397368127819085818580
:100BE00014963C93149715962C93159716969C93F0
:100BF000169717968C93179732852385948585854C
:100C000018963C93189719962C9319971A969C93BB
:100C10001A971B968C931B97368527859089818917
:100C20001C963C931C971D962C931D971E969C9387
:100C30001E971F968C931F9780E190E00895EF9286
:100C4000FF920F931F93CF93DF93FC01EB018981F8
:100C500090E0A0E0B0E0BA2FA92F982F8827288134
:100C600030E040E050E0822B932BA42BB52B2A815F
:100C700030E040E050E0A90133272227282B392B10
:100C80004A2B5B2B8B8190E0A0E0B0E0B82FAA2725
:100C900099278827822B932BA42BB52B82839383B0
:100CA000A483B5832C8130E040E050E08D8190E05A
:100CB000A0E0B0E0BA2FA92F982F8827822B932B82
:100CC000A42BB52B2E8130E040E050E0A901332762
:100CD0002227282B392B4A2B5B2B8F8190E0A0E019
:100CE000B0E0B82FAA2799278827822B932BA42B13
:100CF000B52B86839783A087B187288530E040E0B5
:100D000050E0898590E0A0E0B0E0BA2FA92F982F9D
:100D10008827822B932BA42BB52B2A8530E040E02B
:100D200050E0A90133272227282B392B4A2B5B2B94
:100D30008B8590E0A0E0B0E0B82FAA2799278827FC
:100D4000822B932BA42BB52B82879387A487B587FF
:100D50002C8530E040E050E08D8590E0A0E0B0E0F0
:100D6000BA2FA92F982F8827822B932BA42BB52B32
:100D7000EE84FF2400E010E08701FF24EE24E82A3F
:100D8000F92A0A2B1B2B2F8530E040E050E0522F30
:100D90004427332722272E293F29402B512B2687F2
:100DA0003787408B518B80E190E0DF91CF911F918D
:100DB0000F91FF90EF90089582EE91E0089586EFF5
:100DC00091E0089580E090E0089580E090E008953B
:100DD00087E192E008958CE891E00895FC01DB0141
:100DE00082818C93838111968C93119784811296C2
:100DF0008C931297858113968C9313978681149602
:100E00008C931497878115968C93159780851696E9
:100E10008C931697818517968C93179788E090E0AE
:100E20000895EF92FF920F931F93FC01DB012C9129
:100E300030E040E050E022833383448355831196B1
:100E40006C91119770E080E090E0982F872F762FBB
:100E50006627622B732B842B952B62837383848389
:100E6000958312962C91129730E040E050E0A90152
:100E700033272227262B372B482B592B22833383CA
:100E80004483558313966C91139770E080E090E053
:100E9000962F882777276627622B732B842B952B19
:100EA000628373838483958314962C91149730E026
:100EB00040E050E026833783408751871596EC90B9
:100EC0001597FF2400E010E0102F0F2DFE2CEE24CC
:100ED000E22AF32A042B152BE682F782008711877A
:100EE00016962C91169730E040E050E0A901332788
:100EF00022272E293F29402B512B268337834087D9
:100F0000518717968C9190E0A0E0B0E0B82FAA2707
:100F100099278827822B932BA42BB52B8683978325
:100F2000A087B18788E090E01F910F91FF90EF902C
:100F3000089586E292E0089584E392E00895AF92E6
:100F4000BF92CF92DF92EF92FF920F931F93CF93B6
:100F5000DF935C01FB01208130E0DC0113963C93C0
:100F60002E931297918180E0822B932B13969C9362
:100F70008E93129782819381A481B5818B010B5F3F
:100F80001F4FE80166E070E026E0C22ED12CE12C74
:100F9000F12CC80ED91EEA1EFB1E04C0298129931C
:100FA0006F5F7F4F9B0140E050E02C153D054E05E3
:100FB0005F05A0F3AC014A5F5F4F4E0F5F1F9A01C0
:100FC00021503040E9011882E5011D830C83EA01BC
:100FD000C880D980EA80FB80BC01665F7F4FEC014E
:100FE0002996CE0FDF1F8B01CB01AA2797FDA09575
:100FF000BA2F8C0D9D1DAE1DBF1D04C029812993E4
:101000000F5F1F4F980140E050E0281739074A074B
:101010005B07A0F3EB01CC0DDD1D9F012C0F3D1FE5
:10102000C9010197DC011C92615070406E0F7F1F57
:10103000D50117967C936E931697D901CD90DD90CC
:10104000ED90FC90BE016C5F7F4F2396CE0FDF1FAB
:101050008B01CB01AA2797FDA095BA2F8C0D9D1D62
:10106000AE1DBF1D04C0298129930F5F1F4F98013A
:1010700040E050E0281739074A075B07A0F3C60E87
:10108000D71EDF01AC0DBD1DED0121971882615007
:1010900070406E0F7F1FE5017987688711962C914C
:1010A000119730E040E050E0542F432F322F222799
:1010B00012966C91129770E080E090E0CB01772758
:1010C0006627262B372B482B592B6C9170E080E03C
:1010D00090E0262B372B482B592B13968C9190E0C0
:1010E000A0E0B0E0B82FAA2799278827282B392B12
:1010F0004A2B5B2BF501228733874487558784E091
:1011000090E0C80ED91EC601DF91CF911F910F91BB
:10111000FF90EF90DF90CF90BF90AF90089585E55E
:1011200092E008958EE692E008958F929F92AF929A
:10113000BF92CF92DF92EF92FF920F931F93CF93C4
:10114000DF936C01FB018081D60112968C9312977C
:10115000E180F28003811481AB014C5F5F4FEA01B3
:1011600025E030E065E0862E912CA12CB12C8E0C70
:101170009F1CA01EB11E04C0898189932F5F3F4F21
:10118000C901A0E0B0E088159905AA05BB05A0F348
:1011900097012B5F3F4FE20FF31F31971082F6014B
:1011A00054834383C901DF91CF911F910F91FF9029
:1011B000EF90DF90CF90BF90AF909F908F90089569
:1011C0008FE892E0089582EA92E008958EEA93E033
:1011D000089583EC92E00895DC011896ED91FC915E
:1011E0001997069609950895FC01828593850895BF
:1011F00087E192E008958CE891E00895DC0118966B
:10120000ED91FC911997069609950895FC01828548
:101210009385089589E791E008958CE891E0089519
:101220000F931F93CF93DF93EC018C010A5F1F4F45
:10123000C8010E945D04E889F989C8010995DF9118
:10124000CF911F910F910895FC0182899389089590
:1012500086E691E0089585E491E008950F931F9349
:10126000CF93DF93EC018C010A5F1F4FC8010E94EE
:10127000CD03E889F989C8010995DF91CF911F91C4
:101280000F910895FC0182899389089582E391E08A
:10129000089585E491E008950F931F93CF93DF9312
:1012A000EC018C010A5F1F4FC8010E941203EC89F8
:1012B000FD89C8010995DF91CF911F910F91089584
:1012C000FC0186899789089580E091E0089581E185
:1012D00091E00895FC01EA5CFE4F808108958F92B1
:1012E0009F92AF92BF92CF92DF92EF92FF920F93B5
:1012F0001F93CF93DF93EC018B018A81DB018C93E9
:101300008B8111968C936C817D81DB01FD010190B5
:101310000020E9F73197EA1BFB0B9F0140E050E00A
:10132000D80112962D933D934D935C931597980198
:101330002A5F3F4FC901AF010E94F11DF8012281D0
:10134000338186E0E82EF12CE20EF31EE00EF11E52
:101350006E817F81DB01FD0101900020E9F731976B
:10136000EA1BFB0B5F01CC24DD24D701AD92BD92BB
:10137000CD92DC921397BAE0CB2ED12CC20ED31EA5
:1013800098012C0D3D1DC901AF010E94F11DF7010F
:10139000208131812C0D3D1D6801C20ED31E688550
:1013A0007985DB01FD0101900020E9F73197EA1B07
:1013B000FB0B4F01AA24BB24D6018D929D92AD92C6
:1013C000BC921397A4E0EA2EF12CE20EF31E9801D2
:1013D0002E0D3F1DC901AF010E94F11DF6012081B4
:1013E00031812E0D3F1D5A854B859C858D85F801D9
:1013F000E20FF31F50834183928383832C5F3F4F1F
:10140000C901DF91CF911F910F91FF90EF90DF9075
:10141000CF90BF90AF909F908F900895CF93DF9320
:10142000FC01EB018281888363817481DB01FD0112
:1014300001900020E9F73197EA1BFB0BCF01A0E0F8
:10144000B0E089839A83AB83BC839E012B5F3F4FBF
:10145000C901AF010E94F11D29813A812B5F3F4FE5
:10146000C901DF91CF9108956F927F928F929F92E1
:10147000AF92BF92CF92DF92FF920F931F93CF93C1
:10148000DF938C01EB01DC0112968C91129788831B
:1014900019821A821B826B0140E024E030E021C0F7
:1014A000842F90E0880F991F880F991FF801A7815A
:1014B000B085A80FB91F6C9111965C911197129687
:1014C0009C91129713968C91D6016C9311965C9314
:1014D000119712969C93129713968C932C5F3F4F03
:1014E0004F5FE4E0F0E0CE0EDF1ED80112968C9143
:1014F00012974817A8F2FE01E20FF31F19968C917C
:1015000080832F5F3F4FDE01A20FB31F1C922F5F1E
:101510003F4FDE01A20FB31F1C922F5F3F4FDE0132
:10152000A20FB31F1C922F5F3F4F6F0140E021C0FD
:10153000842F90E0880F991F880F991FF801A685C6
:10154000B785A80FB91F6C9111965C9111971296EF
:101550009C91129713968C91D6016C9311965C9383
:10156000119712969C93129713968C932C5F3F4F72
:101570004F5FE4E0F0E0CE0EDF1ED80119968C91AB
:1015800019974817A8F2FE01E20FF31F50968C91AD
:10159000509780832F5F3F4FFE01E20FF31F1082B1
:1015A0002F5F3F4FFE01E20FF31F10822F5F3F4F6F
:1015B000FE01E20FF31F10822F5F3F4FFF2433C065
:1015C0005E01A20EB31E8F2D90E0880F991FD801E7
:1015D0005396ED91FC915497E80FF91F608171814A
:1015E000DB01FD0101900020E9F73197EA1BFB0BBD
:1015F0003F0188249924D5016D927D928D929C9211
:10160000139794E0C92ED12CC20ED31E9E012C0D2F
:101610003D1DC901AF010E94F11DF50120813181FD
:101620002C0D3D1DF394D80150968C915097F816CF
:1016300038F2C901DF91CF911F910F91FF90DF9098
:10164000CF90BF90AF909F908F907F906F900895B4
:101650006F927F928F929F92AF92BF92CF92DF92C2
:10166000EF92FF920F931F93CF93DF93EC015B01F7
:10167000DB010C918A81801760F4602F70E0660FA7
:10168000771F660F771F8F8198850E94231D8F8398
:1016900098870A83F50160E034E0C32ED12C8E01D7
:1016A0000D5F1F4F45C0818190E0A0E0B0E0BA2FF0
:1016B000A92F982F8827228130E040E050E0A9012F
:1016C00033272227822B932BA42BB52B208130E0AC
:1016D00040E050E0822B932BA42BB52B238130E0EC
:1016E00040E050E0522F442733272227822B932BB0
:1016F000A42BB52B8B839C83AD83BE8384E090E0C9
:10170000C80ED91E862F90E0880F991F880F991F49
:101710002F813885280F391FD8016D907D908D90CD
:101720009C90D9016D927D928D929C9213976F5FE0
:1017300034968A81681708F4B6CF85010C0D1D1DFB
:10174000F80180808985881560F4682D70E0660F47
:10175000771F660F771F8E859F850E94231D8E87BA
:101760009F8784E090E0C80ED91E8986F80160E06A
:101770008E01065F1F4F45C0208130E040E050E001
:10178000818190E0A0E0B0E0BA2FA92F982F8827A0
:10179000822B932BA42BB52B228130E040E050E02C
:1017A000A90133272227282B392B4A2B5B2B838136
:1017B00090E0A0E0B0E0B82FAA2799278827822BD5
:1017C000932BA42BB52B8A879B87AC87BD87A4E07E
:1017D000B0E0CA0EDB1E862F90E0880F991F880F9D
:1017E000991F2E853F85280F391FD8016D907D9058
:1017F0008D909C90D9016D927D928D929C921397C1
:101800006F5F34968985681708F4B6CFF501EC0D43
:10181000FD1D00818889801750F4602F70E0660FED
:10182000771F8B899C890E94231D8B8B9C8BF601D3
:101830003496088B7724A1E18A2E912C8C0E9D1E64
:1018400041C0D501AE0FBF1FCD90DD90ED90FC9053
:10185000DF0114963396EA0DFB1D8D019D0144278F
:1018600037FD4095542F2C0D3D1D4E1D5F1D04C0AE
:10187000818181930F5F1F4FB80180E090E0621774
:10188000730784079507A0F3CA0EDB1EC5018C0DF4
:101890009D1D0197FC0110821197AA0DBB1DBA8BEB
:1018A000A98BF601872D90E0880F991F2B893C8921
:1018B000280F391FD4018D919C91D90111969C93C9
:1018C0008E9373948889781608F4BBCFCF01DF918B
:1018D000CF911F910F91FF90EF90DF90CF90BF902D
:1018E000AF909F908F907F906F900895CF93DF93EC
:1018F000EC014A815B816C817D8182E796E00E94E8
:101900009A144E815F816885798587EA96E00E9406
:101910009A14DF91CF910895CF92DF92EF92FF92C8
:101920000F931F93CF93DF93EC014A815B816C810E
:101930007D810E811F8128853985CA84DB84EC84F2
:10194000FD8482E796E00E9475144A815B816C8178
:101950007D810E811F8128853985CA84DB84EC84D2
:10196000FD8487EA96E00E947514DF91CF911F9164
:101970000F91FF90EF90DF90CF900895CF93DF937A
:10198000EC014A815B816C817D8182E796E00E9457
:1019900067144E815F816885798587EA96E00E94A9
:1019A0006714DF91CF91089582E796E00E94FA13C1
:1019B00087EA96E00E94FA130895CF93DF93FC0123
:1019C000AB0186819781EC01A881B9816481758121
:1019D000ED91FC910995DF91CF910895CF93DF931D
:1019E000C2E7D6E0CE010E94C3149C01B90188274A
:1019F00077FD8095982F0E94F91E60934E06709394
:101A00004F068093500690935106CE010E94C71452
:101A10009C01B901882777FD8095982F0E94F91EB7
:101A20006093560670935706809358069093590614
:101A3000C7EAD6E0CE010E94C3149C01B9018827F1
:101A400077FD8095982F0E94F91E6093520670933F
:101A500053068093540690935506CE010E94C714F6
:101A60009C01B901882777FD8095982F0E94F91E67
:101A700060935A0670935B0680935C0690935D06B4
:101A800088E696E06CE476E00E94DD0CDF91CF9171
:101A90000895CF93DF93CCE3D6E0AE01485F5F4F6C
:101AA00082E796E0BE010E94A014BE016C5F7F4FEA
:101AB000AE01445F5F4F87EA96E00E94A014BE012A
:101AC000625070408EE596E00E94DD0CDF91CF9170
:101AD0000895FC01428153816481758180819181E7
:101AE0000E941A1B0895FC01E05EFE4F20E030E0EA
:101AF000419151914115510581F4F901E057FF4F92
:101B0000EE0FFF1FE80FF91F718360832C593F4FC1
:101B1000FB013383228381E008952F5F3F4F2630FE
:101B2000310531F780E00895FC01E05EFE4F20E0D2
:101B300030E0419151914115510581F4F901E0578F
:101B4000FF4FEE0FFF1FE80FF91F718360832C59C1
:101B50003F4FFB013383228381E008952F5F3F4F86
:101B60002630310531F780E00895FC01E05EFE4F3C
:101B700020E030E0419151914115510581F4F90186
:101B8000E057FF4FEE0FFF1FE80FF91F71836083CF
:101B90002C593F4FFB013383228381E008952F5F4F
:101BA0003F4F2630310531F780E00895FC01E05EBB
:101BB000FE4F20E030E0419151914115510581F4F3
:101BC000F901E057FF4FEE0FFF1FE80FF91F718378
:101BD00060832C593F4FFB013383228381E00895BA
:101BE0002F5F3F4F2630310531F780E00895FC012B
:101BF000E05EFE4F20E030E04191519141155105EA
:101C000081F4F901E057FF4FEE0FFF1FE80FF91FB6
:101C1000718360832C593F4FFB013383228381E022
:101C200008952F5F3F4F2630310531F780E008954A
:101C3000DB01FC01EC5EFE4F20E030E04191519170
:101C400041155105A9F4F901E657FF4FEE0FFF1FAB
:101C5000E80FF91FB183A08326593F4F15963C9397
:101C60002E93149717969C938E93169781E0089560
:101C70002F5F3F4F2630310509F780E00895CF935D
:101C8000DF93CFE7D4E0CE010E94690D1092AA0540
:101C90001092A9051092AC051092AB051092B005F8
:101CA0001092AF051092AE051092AD052297CE01AD
:101CB00066ED75E00E94730DCE016EEE75E00E9438
:101CC000940DCE0162E076E00E94B50DCE0166E192
:101CD00076E00E94D60DCE0162E276E00E94F70D1A
:101CE000CE016EE276E00E94F70DCE016EE576E061
:101CF0000E94180ECE0168E676E00E94180EDF9171
:101D0000CF9108950F931F93DF93CF93CDB7DEB795
:101D10002A970FB6F894DEBF0FBECDBF8C018EE8B8
:101D200093E09A8389831B821C821D821E821F82FC
:101D3000188619861A86D801ED91FC910190F081E0
:101D4000E02DC8016AE070E0AE014F5F5F4F09957A
:101D50000E94F819F80160877187828793872A9615
:101D60000FB6F894DEBF0FBECDBFCF91DF911F91AC
:101D70000F9108954F925F926F927F928F929F92F0
:101D8000AF92BF92CF92DF92EF92FF920F931F9389
:101D9000DF93CF93CDB7DEB72E970FB6F894DEBFA3
:101DA0000FBECDBF8C0182E893E09A83898384E1E2
:101DB000E82E81E0F82EE00EF11EB0E26B2EB1E0CD
:101DC0007B2E600E711EA0E88A2E912CA12CB12CC6
:101DD0006E010894C11CD11CD701ED91FC911197A3
:101DE0003097A9F1848195819C838B838081918137
:101DF0009E838D8382819381DC01ED91FC9104802F
:101E0000F581E02D099598878F83D701ED91FC919D
:101E100082819381DC01ED91FC910680F781E02DB8
:101E200009959A8789878B869C86AD86BE86F80140
:101E300080819181F701A081B18118966D917C918B
:101E40001997DC01ED91FC91C801A6010995E2E02A
:101E5000F0E0EE0EFF1EE614F70409F0BDCFF0E24D
:101E6000EF2EF1E0FF2EE00EF11EECE24E2EE1E04F
:101E70005E2E400E511E70E8872E912CA12CB12CA5
:101E80006E010894C11CD11CF701A081B18110978B
:101E9000D1F112968D919C9113979C838B8314960C
:101EA0008D919C9115979E838D83ED91FC91119757
:101EB0000480F581E02DCD01099598878F83D701A6
:101EC0008D919C91DC01ED91FC910680F781E02DD4
:101ED00009959A8789878B869C86AD86BE86D801B0
:101EE000ED91FC9160807180F70180819181DC012E
:101EF000ED91FC910280F381E02D0995BC01C801B0
:101F0000A601F3010995E2E0F0E0EE0EFF1EE414F5
:101F1000F50409F0B9CFF801EA5CFE4F81E0808357
:101F20002E960FB6F894DEBF0FBECDBFCF91DF91D6
:101F30001F910F91FF90EF90DF90CF90BF90AF90E7
:101F40009F908F907F906F905F904F900895CF9269
:101F5000DF92EF92FF920F931F93CF93DF93EC01E9
:101F60006B010E94F819F601E080F1800281138173
:101F70000894E108F1080109110928EE33E040E076
:101F800050E00E945620E21AF30A040B150BEC866F
:101F9000FD860E871F87F601E480F5800681178194
:101FA00020E03AEC4AE95BE3E20EF31E041F151F42
:101FB00020E432E44FE050E00E941020E61AF70AD5
:101FC000080B190BE88AF98A0A8B1B8BBE01605F2C
:101FD0007F4FCE010C960E945E19DF91CF911F9129
:101FE0000F91FF90EF90DF90CF900895AF92BF9246
:101FF000CF92DF92EF92FF920F931F93DF93CF93D5
:10200000CDB7DEB72A970FB6F894DEBF0FBECDBFAF
:102010005C016B018EE893E09A8389831B821C82AA
:102020001D821E821F82188619861A860E94F81940
:102030007B018C01F50180859185A285B385E81A25
:10204000F90A0A0B1B0BCE010196B6010E9411077B
:10205000C801B70128EE33E040E050E00E9456206E
:102060007B018C018B819C81AD81BE81820F931F8E
:10207000A41FB51F8B839C83AD83BE83C801B701AA
:1020800020E432E44FE050E00E9410209B01AC01BC
:102090008F819885A985BA85820F931FA41FB51FCC
:1020A0008F839887A987BA87C501BE016D5F7F4F6F
:1020B0000E94A70F0E94F819F501E55CFE4F6083AE
:1020C0007183828393832A960FB6F894DEBF0FBE86
:1020D000CDBFCF91DF911F910F91FF90EF90DF90D7
:1020E000CF90BF90AF9008952F923F924F925F9202
:1020F0006F927F928F929F92AF92BF92CF92DF9218
:10210000EF92FF920F931F93DF93CF93CDB7DEB77C
:102110002C970FB6F894DEBF0FBECDBF9C878B8780
:102120000E94F8196B017C01EB85FC85E55CFE4F94
:1021300080819181A281B381A7019601281B390B6F
:102140004A0B5B0BDA01C901893F3AE2930730E0A1
:10215000A30730E0B30728F0EB85FC85EA5CFE4F6F
:102160001082EB85FC85E45DFE4F808191810097B4
:1021700081F0AB85BC85A15CBE4F8D919D910D908A
:10218000BC91A02D8C159D05AE05BF0510F41182E4
:102190001082A4E36A2EA1E07A2E4B855C85640E42
:1021A000751E8A01045D1E4FF0E38F2EF1E09F2E15
:1021B000840E951EE4E14E2E512C440E551E4C5BB0
:1021C0005E4F5A8349838B859C858D5B9E4F9C8394
:1021D0008B837EE2A72E71E0B72EAB85BC85AA0E5D
:1021E000BB1E62E3262E61E0362E2A0E3B1EA15C4A
:1021F000BE4FBE83AD83A70196012C5E3F4F4F4F6C
:102200005F4F2F83388749875A87C8010B851C8504
:102210009C878B87D80112968D919C911397DC0136
:10222000ED91FC910084F185E02D09959C0197FDCD
:10223000FBC0F30180819181820F931F9183808382
:10224000AB85BC854D915C91119746305105B9F431
:10225000F10180819181F801E80FF91F248B01962B
:10226000D10111969C938E93F50180819181019704
:1022700091838083009771F6E7E0F0E04AC0411552
:102280005105A9F42F3F310529F6E1E0F0E0AB85D7
:10229000BC85ED93FC932F81388549855A85AD81A6
:1022A000BE812D933D934D935C931397B3CF4130F3
:1022B000510581F42F3F310539F422E030E0EB8500
:1022C000FC8531832083A6CFAB85BC8511961C92FB
:1022D0001E92A0CF4230510571F4F4013183208366
:1022E000E3E0F0E0AB85BC85ED93FC93D301119660
:1022F0003C932E938FCF4330510589F4322F222700
:10230000F40180819181280F391F31832083E4E01B
:10231000F0E0AB85BC851196FC93EE937BCF443007
:10232000510551F4D50111963C932E93F101118280
:102330001082E5E0F0E0EDCF45305105D1F4322FC9
:102340002227D5018D919C911197280F391F119645
:102350003C932E9346E050E0EB85FC85518340830F
:102360002115310509F056CF87E090E091838083F5
:1023700051CF4730510509F04DCFAB85BC85119643
:102380001C921E9260E071E00E9443208F3F9105F5
:1023900009F040CFD401ED91FC9111973097E1F411
:1023A0001C870B87C8010E94820E8B859C850E942A
:1023B000BA0EEB85FC85E95CFE4FC082D182E282D9
:1023C000F382EB85FC85E55CFE4FC082D182E28220
:1023D000F3822FEF3FEF53C0EA30F10529F4C80133
:1023E000B2010E94F60F16CFE630F10551F4898153
:1023F0009A81B2010E94280B21E0EB81FC812083AD
:1024000009CFBC96EE0FFF1FE00FF11F8081918175
:10241000009709F4FFCEDC01ED91FC910190F08171
:10242000E02DB2010995F6CE1C870B87F801EA5C16
:10243000FE4F8081882309F1095C1E4FF8018081DD
:102440009181A281B381A7019601281B390B4A0B08
:102450005B0BDA01C901853C39E0930730E0A30743
:1024600030E0B30750F08B859C850E94820ED80126
:10247000CD92DD92ED92FC92139720E030E0C901FD
:102480002C960FB6F894DEBF0FBECDBFCF91DF9173
:102490001F910F91FF90EF90DF90CF90BF90AF9082
:1024A0009F908F907F906F905F904F903F902F9074
:1024B00008958DE794E00E9474100895DF93CF9300
:1024C00000D000D00F92CDB7DEB72AE933E03A83CF
:1024D00029836B835D834C83DC01ED91FC9101903A
:1024E000F081E02D67E070E0AE014F5F5F4F09952E
:1024F0000F900F900F900F900F90CF91DF91089554
:10250000AB0163E00E945E120895CF92DF92EF92DA
:10251000FF920F931F93CF93DF93EC017B01CA01CE
:10252000643671053CF0FE01EA5CFE4F20812223F7
:1025300009F461C0DC01ED91FC91BE0166567F4F4C
:102540000190F081E02D0995FE01EC56FF4F2FEF31
:102550002083FE01EB56FF4F2083FE01EA56FF4F1A
:10256000E082DE01A956BF4F1C92DE01A856BF4F84
:102570008C93DE01A756BF4F1C9242E050E020E052
:1025800030E0BC016B5F7F4F05C0A1912A0F311D68
:102590004F5F5F4F64177507C4F7FE01E80FF91F1F
:1025A000E656FF4F209520838C01095F1F4F0138AD
:1025B0001105DCF4B4E9CB2ED12CCC0EDD1EEE24BB
:1025C000FF240FC08A819B81F60161916F01DC01BC
:1025D000ED91FC910190F081E02D09950894E11CAA
:1025E000F11CE016F10674F308C0CE0164EE72E04F
:1025F0000E94801203C000E010E0C801DF91CF917B
:102600001F910F91FF90EF90DF90CF90089588E792
:1026100093E090937E0480937D0489E697E0909305
:10262000800480937F0480E091EEA0E0B0E080938E
:10263000810490938204A0938304B0938404109245
:10264000B30586EA93E09093C2058093C1058EECB2
:1026500093E09093D7058093D6058AED93E090930D
:10266000DD058093DC058CE89CE09093EB0580937E
:10267000EA0581E090E09093ED058093EC052DE173
:1026800033E03093DB052093DA0526EE33E0309318
:10269000EF052093EE0522EF33E03093F50520930C
:1026A000F4052EEB3CE03093FF052093FE0590935C
:1026B00001068093000626E233E03093F305209371
:1026C000F2052EEF33E030930306209302062AE052
:1026D00034E0309309062093080626E73CE0309367
:1026E000130620931206909315068093140621E397
:1026F00033E0309307062093060626E134E030935A
:1027000017062093160622E234E030931D0620932C
:102710001C0624ED3CE030931F0620931E06909388
:102720002106809320062CE333E030931B06209390
:102730001A064EE254E050932306409322062AE301
:1027400034E0309329062093280669E47DE07093F5
:102750002B0660932A0690932D0680932C0667E43F
:1027600073E0709327066093260650932F064093DC
:102770002E0630933506209334062EEE3CE030933F
:1027800037062093360690933906809338068FE4F7
:1027900093E0909333068093320686E494E090931E
:1027A0003B0680933A0682E594E090934D06809331
:1027B0004C0688E593E090935F0680935E068AE37B
:1027C00096E09093610680936006109267061092DF
:1027D000660682E693E090936906809368068CE42F
:1027E00096E090936B0680936A06109271061092A1
:1027F00070060895FC0184E1DF011D928A95E9F7D6
:1028000020E030E0A901208F318F428F538F248B3D
:10281000358B468B578B248F358F468F578F20A350
:1028200031A342A353A324A335A346A357A320A7B0
:1028300031A742A753A715A614A617A616A620E0EF
:1028400030E040E85FE320AB31AB42AB53AB14AABE
:102850000895FC0184E1DF011D928A95E9F720E0EB
:1028600030E0A901248B358B468B578B208F318F1D
:10287000428F538F248F358F468F578F20A331A3DC
:1028800042A353A324A335A346A357A320A731A74C
:1028900042A753A715A614A617A616A620E030E057
:1028A00040E85FE320AB31AB42AB53AB14AACF019E
:1028B0000E94FA1308958130910541F482E796E071
:1028C0000E94291487EA96E00E9429140895FC01C9
:1028D000408F518F628F738F80E090E0A0E8BFE35C
:1028E00080AB91ABA2ABB3AB0895CF92DF92EF92E6
:1028F000FF920F931F93FC01408351836283738384
:102900000483158326833783C086D186E286F386C7
:1029100080E090E0DC0184879587A687B787808B6D
:10292000918BA28BB38B1F910F91FF90EF90DF9053
:10293000CF900895FC01448B558B668B778B08955F
:10294000CF93DF93FC0184A195A1A6A1B7A1EB01D0
:1029500088839983AA83BB8380A591A5A2A5B3A5EB
:10296000EA0188839983AA83BB8380E090E0DC013D
:1029700080A791A7A2A7B3A784A395A3A6A3B7A353
:10298000DF91CF910895FC0184A595A50895FC01E0
:1029900086A597A508950E948F000E946E020E944E
:1029A000380208952F923F924F925F926F927F92DA
:1029B0008F929F92AF92BF92CF92DF92EF92FF924F
:1029C0000F931F93DF93CF93CDB7DEB728970FB642
:1029D000F894DEBF0FBECDBFF89460916C04709187
:1029E0006D0480916E0490916F040E94F91E362E42
:1029F000772E4C0160917004709171048091720483
:102A0000909173040E94F91EA62E672E582E492E0F
:102A10001092700410927104109272041092730458
:102A20008091700490917104A0917204B09173042C
:102A300080936C0490936D04A0936E04B0936F0424
:102A4000E0907804F090790400917A0410917B046E
:102A5000109278041092790410927A0410927B04F8
:102A60007894632D772D882D992D2EEA35EA44E848
:102A700058E30E94AD1F69837A838B839C83920104
:102A80006A2D762D832F922F2EEA35EA44E858E3FB
:102A90000E94AD1F6D837E838F839887C801B70125
:102AA0000E94F71E20E030E04AE754E40E94631ED3
:102AB000562E472E382E292E609196067091970635
:102AC0008091980690919906B981AA810B81EC803A
:102AD0002B2F3A2F402F5E2D0E94FB1D60939606F0
:102AE00070939706809398069093990660919A0642
:102AF00070919B0680919C0690919D06D201F101F8
:102B00002B2F3A2F4F2F5E2F0E94FB1D60939A06AA
:102B100070939B0680939C0690939D066091CB06D4
:102B20007091CC068091CD069091CE06BD81AE818C
:102B30000F81E8842B2F3A2F402F5E2D0E94FB1D22
:102B40006093CB067093CC068093CD069093CE060F
:102B50006091CF067091D0068091D1069091D206F7
:102B6000D201F1012B2F3A2F4F2F5E2F0E94FB1D18
:102B70006093CF067093D0068093D1069093D206CF
:102B8000A2019101652F742F832F922F20E030E056
:102B9000A9010E945F1E18160CF060C3A0908E065B
:102BA000B0908F06C0909006D0909106E0908A0673
:102BB000F0908B0600918C0610918D06C601B50130
:102BC000A80197010E945F1E882309F478C06090D5
:102BD0008606709087068090880690908906C401CA
:102BE000B30120E030E0A9010E945F1E18160CF02E
:102BF0005EC0C601B501A80197010E945F1E87FF54
:102C000027C0C401B301D201F1012B2F3A2F4F2F5E
:102C10005E2F0E94AD1F662E972E882E792EC8013A
:102C2000B701A60195010E94FA1DE62DF92DA82DE8
:102C3000B72D9F01AD010E94A91F1816C4F5C6014A
:102C4000B501262D392D482D572D0E94FB1D26C07C
:102C5000C401B301D201F1012B2F3A2F4F2F5E2F68
:102C60000E94AD1F662E972E882E792EC601B501C3
:102C7000A80197010E94FA1DE62DF92DA82DB72D68
:102C80009F01AD010E94A91F18168CF4C601B50161
:102C9000262D392D482D572D0E94FA1D60938E0642
:102CA00070938F06809390069093910608C0E092EF
:102CB0008E06F0928F060093900610939106A090D6
:102CC000C306B090C406C090C506D090C606E0907A
:102CD000BF06F090C0060091C1061091C206C60161
:102CE000B501A80197010E945F1E882309F478C0EE
:102CF0006090BB067090BC068090BD069090BE06AA
:102D0000C401B30120E030E0A9010E945F1E181643
:102D10000CF05EC0C601B501A80197010E945F1EBC
:102D200087FF27C0C401B301D201F1012B2F342D3D
:102D30004F2F522D0E94AD1F662E972E882E792E72
:102D4000C801B701A60195010E94FA1DE62DF92DD3
:102D5000A82DB72D9F01AD010E94A91F1816C4F51B
:102D6000C601B501262D392D482D572D0E94FB1D7A
:102D700026C0C401B301D201F1012B2F342D4F2FF6
:102D8000522D0E94AD1F662E972E882E792EC601D9
:102D9000B501A80197010E94FA1DE62DF92DA82D75
:102DA000B72D9F01AD010E94A91F18168CF4C60112
:102DB000B501262D392D482D572D0E94FA1D6093FF
:102DC000C3067093C4068093C5069093C60608C0D8
:102DD000E092C306F092C4060093C5061093C6069F
:102DE0008091A606882309F45CC092E7E92E96E05C
:102DF000F92E60917206709173068091740690911D
:102E0000750620E030E0A9010E945F1E882371F45E
:102E100080918E0690918F06A0919006B0919106B8
:102E2000F70180A391A3A2A3B3A35EC0A0909206D2
:102E3000B0909306C0909406D090950659814A812F
:102E40003B812C81652F742F832F922FD201F101AA
:102E50002B2F342D4F2F522D0E94631E9B01AC014E
:102E600060918E0670918F068091900690919106E8
:102E70000E94FA1DAB01BC01C701D201F1010B2F69
:102E8000142D2F2F322D0E9490019B01AC01C60101
:102E9000B5010E94FB1DF70160A371A382A393A358
:102EA00023C080E090E0DC0180937E0690937F0653
:102EB000A0938006B0938106809382069093830648
:102EC000A0938406B0938506809392069093930610
:102ED000A0939406B093950680938E0690938F06E8
:102EE000A0939006B09391068091DB06882309F4A5
:102EF0005CC087EAE82E86E0F82E6091A706709104
:102F0000A8068091A9069091AA0620E030E0A901C8
:102F10000E945F1E882371F48091C3069091C406BD
:102F2000A091C506B091C606F70180A391A3A2A304
:102F3000B3A35EC0A090C706B090C806C090C906F3
:102F4000D090CA065D814E813F812885652F742F00
:102F5000832F922FD201F1012B2F342D4F2F522D81
:102F60000E94631E9B01AC016091C3067091C40670
:102F70008091C5069091C6060E94FA1DAB01BC0166
:102F8000C701D201F1010B2F142D2F2F322D0E94DA
:102F900090019B01AC01C601B5010E94FB1DF70128
:102FA00060A371A382A393A323C080E090E0DC011F
:102FB0008093B3069093B406A093B506B093B6067B
:102FC0008093B7069093B806A093B906B093BA065B
:102FD0008093C7069093C806A093C906B093CA060B
:102FE0008093C3069093C406A093C506B093C6060B
:102FF000E0909206F0909306009194061091950649
:10300000C801B7012DEC3CEC4CEC5FE30E94A91F1A
:1030100018162CF48DEC9CECACECBFE30EC0C80190
:10302000B7012DEC3CEC4CEC5FEB0E945F1E87FF80
:103030000CC08DEC9CECACECBFEB809392069093B3
:103040009306A0939406B0939506E090C706F0907F
:10305000C8060091C9061091CA06C801B7012DEC37
:103060003CEC4CEC5FE30E94A91F18162CF48DEC8D
:103070009CECACECBFE30EC0C801B7012DEC3CECFE
:103080004CEC5FEB0E945F1E87FF0CC08DEC9CEC4C
:10309000ACECBFEB8093C7069093C806A093C9061B
:1030A000B093CA066091920670919306809194063F
:1030B000909195062DEC3CEC4CEC5FE30E94631E76
:1030C0007B018C016091C7067091C8068091C9068A
:1030D0009091CA062DEC3CEC4CEC5FE30E94631E21
:1030E0009B01AC01C801B7010E9494020E94280212
:1030F00090939F0680939E060E942C029093A106B7
:103100008093A0060E9430029093D4068093D30649
:103110000E9434029093D6068093D50660919E0655
:1031200070919F06882777FD8095982F0E94F91E41
:1031300001E020E030E040EA52E40E94A91F1816A6
:103140000CF000E00093A6066091D3067091D406BF
:10315000882777FD8095982F0E94F91E01E020E0D6
:1031600030E040EA52E40E94A91F18160CF000E07B
:103170000093DB06E090A206F090A3060091A4065F
:103180001091A506C801B701D201F1012B2F342DF2
:103190004F2F522D0E94A91F18169CF4C801B70189
:1031A000D201F1012B2F342D4F2F522D0E94FA1DE9
:1031B0006093A2067093A3068093A4069093A5063D
:1031C00013C080E090E0DC018093A2069093A306F8
:1031D000A093A406B093A50680938A0690938B06CD
:1031E000A0938C06B0938D06E090D706F090D80699
:1031F0000091D9061091DA06C801B701D201F10198
:103200002B2F342D4F2F522D0E94A91F18169CF4DE
:10321000C801B701D201F1012B2F342D4F2F522DB0
:103220000E94FA1D6093D7067093D8068093D90642
:103230009093DA0613C080E090E0DC018093D7061B
:103240009093D806A093D906B093DA068093BF0670
:103250009093C006A093C106B093C20628960FB6FD
:10326000F894DEBF0FBECDBFCF91DF911F910F91BC
:10327000FF90EF90DF90CF90BF90AF909F908F9096
:103280007F906F905F904F903F902F900895F894AB
:1032900080917C04882331F010927C0478940E9401
:1032A000D21408957894089581E090E00E945B1410
:1032B000089580E090E00E945B140895CF92DF9221
:1032C000EF92FF920F931F93CF93DF93EC016B016B
:1032D000FB01608171818281938120E03AEC4AE9AF
:1032E0005BE30E9456207B018C0188819981AA8131
:1032F000BB81820F931FA41FB51F88839983AA8364
:10330000BB83F601E082F18202831383DF91CF91C8
:103310001F910F91FF90EF90DF90CF9008958E3026
:1033200008F08E508770909173039295990F990FC2
:10333000907C982B90937C0080917A00806480939D
:103340007A0080917A0086FDFCCF20917800309140
:103350007900932F80E030E0282B392BC9010895A4
:103360001F920F920FB60F9211242F933F938F93BA
:103370009F93AF93BF938091E0069091E106A09157
:10338000E206B091E3063091E4060196A11DB11D5D
:10339000232F2D5F2D3720F02D570196A11DB11D34
:1033A0002093E4068093E0069093E106A093E20662
:1033B000B093E3068091DC069091DD06A091DE06D5
:1033C000B091DF060196A11DB11D8093DC0690939C
:1033D000DD06A093DE06B093DF06BF91AF919F910B
:1033E0008F913F912F910F900FBE0F901F901895C6
:1033F0008FB7F8942091E0063091E1064091E20603
:103400005091E3068FBFB901CA010895789484B53D
:10341000826084BD84B5816084BD85B5826085BDD0
:1034200085B5816085BDEEE6F0E0808181608083B6
:10343000E1E8F0E010828081826080838081816099
:103440008083E0E8F0E0808181608083E1EBF0E060
:10345000808184608083E0EBF0E080818160808304
:10346000EAE7F0E0808184608083808182608083ED
:103470008081816080838081806880831092C10018
:10348000089590E0FC01E656FF4F2491FC01EA57B5
:10349000FF4FE491EE23C1F0F0E0EE0FFF1FE8597B
:1034A000FF4F85919491DC01662341F49FB7F89416
:1034B0008C91209582238C939FBF08959FB7F89499
:1034C0008C91822B8C939FBF0895FC018281938104
:1034D000FC01E058FF4F208131818E579F4FFC0146
:1034E00080819181281B390B2F773070C901089595
:1034F000FC0182819381FC01EE57FF4F20813181D5
:10350000FC01E058FF4F408151814217530731F0D1
:10351000820F931FFC01208130E002C02FEF3FEFAC
:10352000C9010895DC0112962D913C911397F90180
:10353000EE57FF4F80819181D901A058BF4F4D9127
:103540005C9111974817590759F0280F391FD90175
:103550002C9101968F7790709183808330E002C028
:103560002FEF3FEFC9010895DC0112968D919C91D8
:103570001397FC01E058FF4F8E579F4FDC018D9150
:103580009C911197918380830895FC01A085B1855A
:1035900021898C9190E0022E02C0959587950A941E
:1035A000E2F780FFF6CF0484F585E02D608308956F
:1035B000FB01E058FF4F408151819A012F5F3F4F3F
:1035C0002F773070DB01AE57BF4F0D90BC91A02D0F
:1035D0002A173B0731F0640F751FDB018C93318391
:1035E000208308951F920F920FB60F9211242F93EC
:1035F0003F934F935F936F937F938F939F93AF937B
:10360000BF93EF93FF938091C60065EE76E00E9432
:10361000D81AFF91EF91BF91AF919F918F917F91B8
:103620006F915F914F913F912F910F900FBE0F902F
:103630001F901895CF93DF93EC019A01AB01E885B9
:10364000F985203081EE380780E0480780E0580790
:1036500009F449C081E090E00A8802C0880F991FF0
:103660000A94E2F7808360E079E08DE390E00E94C5
:1036700078202150304040405040CA01B90122E03A
:1036800030E040E050E00E947820EC81FD81308302
:10369000EE81FF812083EA85FB85408181E090E017
:1036A0009C010E8402C0220F331F0A94E2F7422BC2
:1036B0004083EA85FB8540819C010F8402C0220F74
:1036C000331F0A94E2F7422B4083EA85FB85208171
:1036D000088802C0880F991F0A94E2F7282B2083DC
:1036E000DF91CF910895108220E130E0CECF8EE5BA
:1036F00094E090936A078093690785EE96E0909333
:103700006C0780936B0785EC90E090936E07809335
:103710006D0784EC90E09093700780936F0780ECC6
:1037200090E0909372078093710781EC90E0909302
:1037300074078093730786EC90E0909376078093EC
:10374000750784E08093770783E08093780787E0AC
:103750008093790785E080937A0781E080937B07E7
:1037600008950E94061A0E94D4020E94DA02FDCF38
:103770000F931F93CF93DF93EC01062F172F07C0F2
:10378000E881F9810190F081E02DCE010995F801E1
:1037900061918F016623A1F7DF91CF911F910F9166
:1037A0000895EF92FF920F931F93CF93DF937C01C5
:1037B000EB018A010BC06991D701ED91FC91019059
:1037C000F081E02DC7010995015010400115110548
:1037D00091F7DF91CF911F910F91FF90EF90089596
:1037E000CF93DF938230910510F482E090E0E09176
:1037F0007E07F0917F0740E050E020E030E026C0F7
:103800006081718168177907E0F06817790781F4A2
:10381000828193812115310531F0D90113969C9352
:103820008E9312972BC090937F0780937E0726C0BC
:103830004115510519F06417750718F4AB01E9013A
:10384000DF019F0172816381E72FF62F3097C1F668
:103850004115510501F1481B590B4430510580F4C5
:1038600012968D919C911397209719F09B838A83D0
:1038700004C090937F0780937E07FD01329646C077
:10388000FD01E40FF51F8193919342505040119632
:103890005C934E933BC020917C0730917D072115AE
:1038A000310541F420916F033091700330937D070F
:1038B00020937C072091710330917203211531050B
:1038C00041F42DB73EB740916D0350916E03241B18
:1038D000350BE0917C07F0917D07E217F307A0F428
:1038E0002E1B3F0B2817390778F0AC014E5F5F4F56
:1038F0002417350748F04E0F5F1F50937D07409304
:103900007C078193919302C0E0E0F0E0CF01DF916A
:10391000CF910895CF93DF93009709F491C0FC01F4
:1039200032971382128260917E0770917F07611532
:10393000710581F420813181280F391F80917C0726
:1039400090917D078217930799F5F0937D07E09397
:103950007C0776C0DB0180E090E002C0CD01D90198
:10396000AE17BF0748F412962D913C91139721157D
:103970003105A1F7CD0121C0B383A283EF014991A5
:1039800059919E01240F351FA217B30779F42D9189
:103990003C911197240F351F2E5F3F4F31832083B9
:1039A00012962D913C91139733832283009729F42B
:1039B000F0937F07E0937E0743C0DC011396FC93EE
:1039C000EE9312974D915D91A40FB51FEA17FB0777
:1039D00069F420813181240F351F2E5F3F4FEC01A8
:1039E00039832883228133813B832A83E0E0F0E01E
:1039F00002C0FB01BC01DB0112968D919C911397D3
:103A00000097B9F79B012E5F3F4F8D919C911197C5
:103A1000820F931F40917C0750917D0748175907EB
:103A200079F4309729F410927F0710927E0702C034
:103A3000138212822250304030937D0720937C07FE
:103A4000DF91CF910895A0E0B0E0E9E2FDE10C94B0
:103A500099208C01CB010115110529F40E94F01B5E
:103A6000082F192FB5C0D80112979801260F371FBC
:103A70002A173B0708F4AAC0ED90FC901197E616B0
:103A8000F706D0F045E0E416F10408F4A1C0A70160
:103A9000445050404617570708F49AC0A7014250B7
:103AA0005040461B570BF901419351936D937C9302
:103AB000CF010E948A1C8CC05B01AE18BF08480170
:103AC0008E0C9F1CE0917E07F0917F07CC24DD24B3
:103AD000C0E0D0E041C0E815F90599F56081718139
:103AE000AB014E5F5F4F4A155B0558F1AB014A19B8
:103AF0005B09CC24DD246894C1F8C40ED51E8280F5
:103B0000A380E5E0CE16D10448F0F9018282A382B9
:103B10005183408311969C938E9309C0C7010296EE
:103B2000860F971F11969C938E93E82DFA2D209760
:103B300019F0FB83EA834CC0F0937F07E0937E0784
:103B400047C040815181C416D50608F46A01EF01CF
:103B500052814381E52FF42F309709F0BCCF40917B
:103B60007C0750917D0748155905E9F4C816D90618
:103B7000D0F440917103509172034115510541F405
:103B80004DB75EB760916D0370916E03461B570B86
:103B900024173507D8F430937D0720937C071196BE
:103BA0009C938E9315C00E94F01BC82EE6016E01F7
:103BB000D92EE601209751F08C2DB801A7010E9463
:103BC000F11DC8010E948A1C860102C000E010E0BD
:103BD000C801CDB7DEB7ECE00C94B520F8940C9496
:103BE000D020FB01DC0102C001900D9241505040F9
:103BF000D8F708955058BB27AA270ED070C161D1BD
:103C000030F066D120F031F49F3F11F41EF456C11C
:103C10000EF4E095E7FB4CC1E92F72D180F3BA179F
:103C2000620773078407950718F071F49EF58AC13F
:103C30000EF4E0950B2EBA2FA02D0B01B9019001C7
:103C40000C01CA01A0011124FF27591B99F0593F0B
:103C500050F4503E68F11A16F040A22F232F342F53
:103C60004427585FF3CF469537952795A795F040A1
:103C70005395C9F77EF41F16BA0B620B730B840BB6
:103C8000BAF09150A1F0FF0FBB1F661F771F881F6E
:103C9000C2F70EC0BA0F621F731F841F48F48795C6
:103CA00077956795B795F7959E3F08F0B3CF9395B5
:103CB000880F08F09927EE0F979587950895D4D02F
:103CC00008F481E008950CD00AC102D140F0F9D087
:103CD00030F021F45F3F19F0EBC0511134C1EEC058
:103CE0000FD198F39923C9F35523B1F3951B550BC5
:103CF000BB27AA2762177307840738F09F5F5F4FBF
:103D0000220F331F441FAA1FA9F333D00E2E3AF0FF
:103D1000E0E830D091505040E695001CCAF729D019
:103D2000FE2F27D0660F771F881FBB1F2617370768
:103D30004807AB07B0E809F0BB0B802DBF01FF2798
:103D400093585F4F2AF09E3F510568F0B1C0FBC009
:103D50005F3FECF3983EDCF3869577956795B795D2
:103D6000F7959F5FC9F7880F911D9695879597F9ED
:103D70000895E1E0660F771F881FBB1F6217730766
:103D80008407BA0720F0621B730B840BBA0BEE1F7B
:103D900088F7E0950895BCD088F09F5790F0B92F30
:103DA0009927B751A0F0D1F0660F771F881F991F90
:103DB0001AF0BA95C9F712C0B13081F0C3D0B1E0A2
:103DC0000895C0C0672F782F8827B85F39F0B93FB2
:103DD000CCF3869577956795B395D9F73EF4909592
:103DE0008095709561957F4F8F4F9F4F0895E89410
:103DF00009C097FB3EF490958095709561957F4F33
:103E00008F4F9F4F9923A9F0F92F96E9BB279395E0
:103E1000F695879577956795B795F111F8CFFAF4F0
:103E2000BB0F11F460FF1BC06F5F7F4F8F4F9F4F21
:103E300016C0882311F096E911C0772321F09EE87F
:103E4000872F762F05C0662371F096E8862F70E0E5
:103E500060E02AF09A95660F771F881FDAF7880FBF
:103E60009695879597F90895990F0008550FAA0B15
:103E7000E0E8FEEF16161706E807F907C0F012167D
:103E80001306E407F50798F0621B730B840B950B80
:103E900039F40A2661F0232B242B252B21F40895D5
:103EA0000A2609F4A140A6958FEF811D811D089572
:103EB00097F99F6780E870E060E008959FEF80ECDD
:103EC000089500240A941616170618060906089580
:103ED00000240A9412161306140605060895092EE6
:103EE0000394000C11F4882352F0BB0F40F4BF2B55
:103EF00011F460FF04C06F5F7F4F8F4F9F4F089595
:103F000057FD9058440F551F59F05F3F71F047958A
:103F1000880F97FB991F61F09F3F79F0879508956F
:103F2000121613061406551FF2CF4695F1DF08C08E
:103F3000161617061806991FF1CF869571056105AB
:103F400008940895E894BB2766277727CB0197F953
:103F500008958ADF08F48FEF08950BD0C0CFB1DF4A
:103F600028F0B6DF18F0952309F0A2CFA7CF1124CF
:103F7000EACFC6DFA0F3959FD1F3950F50E0551F10
:103F8000629FF001729FBB27F00DB11D639FAA27AE
:103F9000F00DB11DAA1F649F6627B00DA11D661FFD
:103FA000829F2227B00DA11D621F739FB00DA11D1E
:103FB000621F839FA00D611D221F749F3327A00DD8
:103FC000611D231F849F600D211D822F762F6A2F74
:103FD00011249F5750408AF0E1F088234AF0EE0FF9
:103FE000FF1FBB1F661F771F881F91505040A9F706
:103FF0009E3F510570F05CCFA6CF5F3FECF3983E3B
:10400000DCF3869577956795B795F795E7959F5F6C
:10401000C1F7FE2B880F911D9695879597F9089506
:10402000629FD001739FF001829FE00DF11D649F9C
:10403000E00DF11D929FF00D839FF00D749FF00D28
:10404000659FF00D9927729FB00DE11DF91F639FC9
:10405000B00DE11DF91FBD01CF0111240895AA1B68
:10406000BB1B51E107C0AA1FBB1FA617B70710F063
:10407000A61BB70B881F991F5A95A9F78095909595
:10408000BC01CD01089597FB092E07260AD077FDC4
:1040900004D0E5DF06D000201AF4709561957F4FBB
:1040A0000895F6F7909581959F4F0895A1E21A2EF5
:1040B000AA1BBB1BFD010DC0AA1FBB1FEE1FFF1FCC
:1040C000A217B307E407F50720F0A21BB30BE40B1C
:1040D000F50B661F771F881F991F1A9469F7609563
:1040E0007095809590959B01AC01BD01CF0108951D
:1040F00097FB092E05260ED057FD04D0D7DF0AD036
:10410000001C38F450954095309521953F4F4F4F06
:104110005F4F0895F6F790958095709561957F4F64
:104120008F4F9F4F08952F923F924F925F926F92C1
:104130007F928F929F92AF92BF92CF92DF92EF9237
:10414000FF920F931F93CF93DF93CDB7DEB7CA1BB8
:10415000DB0B0FB6F894DEBF0FBECDBF09942A88E3
:10416000398848885F846E847D848C849B84AA848B
:10417000B984C884DF80EE80FD800C811B81AA8118
:10418000B981CE0FD11D0FB6F894DEBF0FBECDBFE3
:10419000ED010895EE0FFF1F0590F491E02D0994B5
:1041A00010E0C8ECD0E004C0FE010E94CC202296B2
:0A41B000CA3CD107C9F7F894FFCF0D
:1041BA00626173655F6D7367732F736574506964A9
:1041CA000063636364303931383865653633386380
:1041DA00393433656436626539356631383132636C
:1041EA003900626173655F6D7367732F736574530A
:1041FA007065656400336139323739393061623547
:10420A006435633364363238653264353262383540
:10421A00333365353200626173655F6D7367732F7F
:10422A00736574416363656C00626173655F6D7386
:10423A0067732F6D6F746F725273740064343164D4
:10424A003863643938663030623230346539383030
:10425A0030393938656366383432376500626173DC
:10426A00655F6D7367732F6D6F746F724F646F6DD7
:10427A0000336164636365333733643238353763D7
:10428A006438306132396264363838623166306493
:10429A003200626173655F6D7367732F706F776544
:1042AA0072496E666F0062346337326461396165E0
:1042BA0032336633396330353731626632303137FB
:1042CA00623137323638007374645F6D7367732FE7
:1042DA00456D707479007374645F6D7367732F54DE
:1042EA00696D650063643731363663373463353553
:1042FA0032633331316662636332666535613762D0
:10430A006332383900726F7373657269616C5F6DFD
:10431A007367732F546F706963496E666F00363323
:10432A006161356538663162646436663335633691
:10433A0039666531613162396432386539660072CD
:10434A006F7373657269616C5F6D7367732F4C6FFE
:10435A00670031316162643733316332353933335F
:10436A00323631636436313833626431326436321C
:10437A00393500396630653938626461363539381D
:10438A003139383664646635336166613761343091
:10439A00653439004D6573736167652066726F6DA8
:1043AA00206465766963652064726F707065643A2B
:1043BA00206D657373616765206C61726765722031
:1043CA007468616E206275666665722E006D6F7420
:1043DA006F72506964006D6F746F725370656564B3
:1043EA00006D6F746F72416363656C006D6F746FFB
:1043FA00725265736574007265714F646F6D0072F5
:10440A006571506F776572006D6F746F724F646F6C
:10441A006D006D6F746F72506F7765720020008047
:10442A000700000100000000851274106A090000EC
:10443A0000006F099F078F08920800000000EE062F
:10444A00110799079C07000000000E0A9508E0086A
:10445A00E30800000000340A280BE608E908726F36
:10446A007373657269616C5F6D7367732F526571DF
:10447A0075657374506172616D00000000004C092B
:10448A0060096409670900000000DF021203A4033F
:10449A00A703000000002E09420946094909000045
:1044AA000000AA03CD0334043704000000001009F9
:1044BA00240928092B09000000003A045D04C404F9
:1044CA00C70400000000FE0806090A090D090000D9
:1044DA000000CA04CD04D004D30400000000EC0894
:1044EA00F408F808FB0800000000E206E506E80602
:1044FA00EB0600000000D6041905D605D905000010
:10450A000000DC051F06DC06DF0600000000C51AF5
:0C451A00B81BD11B651A921A781AB41A4B
:00000001FF
