:100000000C9437000C945F000C945F000C945F001C
:100010000C945F000C945F000C945F000C945F00E4
:100020000C945F000C945F000C945F000C945F00D4
:100030000C945F000C945F000C945F000C945F00C4
:100040000C94230D0C945F000C94410E0C945F00F3
:100050000C945F000C945F000C945F000C945F00A4
:100060000C9489100C945F009D0CC60EF50F1124A2
:100070001FBECFEFD8E0DEBFCDBF12E0A0E0B1E001
:10008000EAE2FDE202C005900D92AE3FB107D9F75A
:1000900017E0AEEFB2E001C01D92A536B107E1F75F
:1000A00010E0CEE6D0E004C02297FE010E948F1639
:1000B000C836D107C9F70E94000F0C94DD130C94C9
:1000C0000000FC01DB0182818C93838111968C936B
:1000D0001197848112968C931297858113968C9335
:1000E0001397868114968C931497878115968C9319
:1000F0001597808516968C931697818517968C9305
:10010000179788E090E00895EF92FF920F931F9366
:10011000FC01DB012C9130E040E050E0228333838E
:100120004483558311966C91119770E080E090E0C4
:10013000982F872F762F6627622B732B842B952B76
:10014000628373838483958312962C91129730E097
:1001500040E050E0A90133272227262B372B482BDC
:10016000592B228333834483558313966C911397C1
:1001700070E080E090E0962F882777276627622B33
:10018000732B842B952B62837383848395831496BE
:100190002C91149730E040E050E02683378340876D
:1001A00051871596EC901597FF2400E010E0102F72
:1001B0000F2DFE2CEE24E22AF32A042B152BE682C7
:1001C000F7820087118716962C91169730E040E051
:1001D00050E0A901332722272E293F29402B512BFC
:1001E000268337834087518717968C9190E0A0E053
:1001F000B0E0B82FAA2799278827822B932BA42B0E
:10020000B52B86839783A087B18788E090E01F9104
:100210000F91FF90EF90089580E091E008958EE0B7
:1002200091E00895AF92BF92CF92DF92EF92FF924A
:100230000F931F93CF93DF935C01FB01208130E08C
:10024000DC0113963C932E931297918180E0822BD0
:10025000932B13969C938E93129782819381A48102
:10026000B5818B010B5F1F4FE80166E070E026E06F
:10027000C22ED12CE12CF12CC80ED91EEA1EFB1E79
:1002800004C0298129936F5F7F4F9B0140E050E0BC
:100290002C153D054E055F05A0F3AC014A5F5F4F8D
:1002A0004E0F5F1F9A0121503040E9011882E5018D
:1002B0001D830C83EA01C880D980EA80FB80BC01E1
:1002C000665F7F4FEC012996CE0FDF1F8B01CB01BC
:1002D000AA2797FDA095BA2F8C0D9D1DAE1DBF1DA1
:1002E00004C0298129930F5F1F4F980140E050E01F
:1002F000281739074A075B07A0F3EB01CC0DDD1D7A
:100300009F012C0F3D1FC9010197DC011C92615018
:1003100070406E0F7F1FD50117967C936E931697D2
:10032000D901CD90DD90ED90FC90BE016C5F7F4FC8
:100330002396CE0FDF1F8B01CB01AA2797FDA09537
:10034000BA2F8C0D9D1DAE1DBF1D04C029812993A0
:100350000F5F1F4F980140E050E0281739074A0708
:100360005B07A0F3C60ED71EDF01AC0DBD1DED016E
:1003700021971882615070406E0F7F1FE5017987C9
:10038000688711962C91119730E040E050E0542F8F
:10039000432F322F222712966C91129770E080E043
:1003A00090E0CB0177276627262B372B482B592B3C
:1003B0006C9170E080E090E0262B372B482B592B76
:1003C00013968C9190E0A0E0B0E0B82FAA2799276F
:1003D0008827282B392B4A2B5B2BF5012287338763
:1003E0004487558784E090E0C80ED91EC601DF918E
:1003F000CF911F910F91FF90EF90DF90CF90BF9022
:10040000AF9008958FE291E0089588E491E0089517
:100410008F929F92AF92BF92CF92DF92EF92FF9214
:100420000F931F93CF93DF936C01FB018081D60163
:1004300012968C931297E180F28003811481AB01B4
:100440004C5F5F4FEA0125E030E065E0862E912C9D
:10045000A12CB12C8E0C9F1CA01EB11E04C0898142
:1004600089932F5F3F4FC901A0E0B0E0881599053F
:10047000AA05BB05A0F397012B5F3F4FE20FF31FC7
:1004800031971082F60154834383C901DF91CF91E4
:100490001F910F91FF90EF90DF90CF90BF90AF90A2
:1004A0009F908F90089589E691E008958CE791E000
:1004B000089587EB92E008958DE991E00895FC019D
:1004C000DB0132812381948185813C9311962C93A9
:1004D000119712969C93129713968C9313973681CB
:1004E00027819085818514963C93149715962C93BB
:1004F000159716969C93169717968C931797328597
:1005000023859485858518963C93189719962C9386
:1005100019971A969C931A971B968C931B978CE0AD
:1005200090E00895EF92FF920F931F93CF93DF9384
:10053000FC01EB01898190E0A0E0B0E0BA2FA92F87
:10054000982F8827288130E040E050E0822B932BC1
:10055000A42BB52B2A8130E040E050E0A9013327DD
:100560002227282B392B4A2B5B2B8B8190E0A0E094
:10057000B0E0B82FAA2799278827822B932BA42B8A
:10058000B52B82839383A483B5832C8130E040E034
:1005900050E08D8190E0A0E0B0E0BA2FA92F982F15
:1005A0008827822B932BA42BB52B2E8130E040E0A3
:1005B00050E0A90133272227282B392B4A2B5B2B0C
:1005C0008F8190E0A0E0B0E0B82FAA279927882774
:1005D000822B932BA42BB52B86839783A087B1877F
:1005E000288530E040E050E0898590E0A0E0B0E070
:1005F000BA2FA92F982F8827822B932BA42BB52BAA
:10060000EA84FF2400E010E08701FF24EE24E82ABA
:10061000F92A0A2B1B2B2B8530E040E050E0522FAB
:100620004427332722272E293F29402B512B22876D
:100630003387448755878CE090E0DF91CF911F91FD
:100640000F91FF90EF9008958EEB91E0089582ED69
:1006500091E0089580E090E0089580E090E00895B2
:1006600083EF91E0089582E092E00895DC0118960E
:10067000ED91FC911997069609950895FC018285E4
:100680009385089583EF91E0089582E092E00895C4
:10069000FC01EE54FD4F808108958F929F92AF929E
:1006A000BF92CF92DF92EF92FF920F931F93CF935F
:1006B000DF93EC018B018A81DB018C938B81119696
:1006C0008C936C817D81DB01FD0101900020E9F7B5
:1006D0003197EA1BFB0B9F0140E050E0D8011296D6
:1006E0002D933D934D935C93159798012A5F3F4F4F
:1006F000C901AF010E94E013F8012281338146E075
:10070000E42EF12CE20EF31EE00EF11E6E817F81CD
:10071000DB01FD0101900020E9F73197EA1BFB0B9B
:100720005F01CC24DD24D701AD92BD92CD92DC9245
:1007300013979AE0C92ED12CC20ED31E98012C0D0E
:100740003D1DC901AF010E94E013F70120813181F5
:100750002C0D3D1D6801C20ED31E68857985DB0115
:10076000FD0101900020E9F73197EA1BFB0B4F01D7
:10077000AA24BB24D6018D929D92AD92BC92139770
:1007800084E0E82EF12CE20EF31E98012E0D3F1DA1
:10079000C901AF010E94E013F601208131812E0DC5
:1007A0003F1D5A854B859C858D85F801E20FF31F0F
:1007B00050834183928383832C5F3F4FC901DF9134
:1007C000CF911F910F91FF90EF90DF90CF90BF904E
:1007D000AF909F908F900895CF93DF93FC01EB0132
:1007E0008281888363817481DB01FD010190002097
:1007F000E9F73197EA1BFB0BCF01A0E0B0E089835A
:100800009A83AB83BC839E012B5F3F4FC901AF012D
:100810000E94E01329813A812B5F3F4FC901DF918C
:10082000CF9108956F927F928F929F92AF92BF92D5
:10083000CF92DF92FF920F931F93CF93DF938C01A0
:10084000EB01DC0112968C911297888319821A822F
:100850001B826B0140E024E030E021C0842F90E057
:10086000880F991F880F991FF801A781B085A80FDD
:10087000B91F6C9111965C91119712969C911297E9
:1008800013968C91D6016C9311965C9311971296E6
:100890009C93129713968C932C5F3F4F4F5FE4E02D
:1008A000F0E0CE0EDF1ED80112968C9112974817F9
:1008B000A8F2FE01E20FF31F19968C9180832F5F3F
:1008C0003F4FDE01A20FB31F1C922F5F3F4FDE018F
:1008D000A20FB31F1C922F5F3F4FDE01A20FB31F69
:1008E0001C922F5F3F4F6F0140E021C0842F90E0AA
:1008F000880F991F880F991FF801A685B785A80F43
:10090000B91F6C9111965C91119712969C91129758
:1009100013968C91D6016C9311965C931197129655
:100920009C93129713968C932C5F3F4F4F5FE4E09C
:10093000F0E0CE0EDF1ED80119968C91199748175A
:10094000A8F2FE01E20FF31F50968C91509780831E
:100950002F5F3F4FFE01E20FF31F10822F5F3F4FCB
:10096000FE01E20FF31F10822F5F3F4FFE01E20FE7
:10097000F31F10822F5F3F4FFF2433C05E01A20E92
:10098000B31E8F2D90E0880F991FD8015396ED91DB
:10099000FC915497E80FF91F60817181DB01FD0123
:1009A00001900020E9F73197EA1BFB0B3F018824F7
:1009B0009924D5016D927D928D929C92139754E06B
:1009C000C52ED12CC20ED31E9E012C0D3D1DC9017A
:1009D000AF010E94E013F501208131812C0D3D1DF6
:1009E000F394D80150968C915097F81638F2C901BB
:1009F000DF91CF911F910F91FF90DF90CF90BF902B
:100A0000AF909F908F907F906F9008956F927F929C
:100A10008F929F92AF92BF92CF92DF92EF92FF920E
:100A20000F931F93CF93DF93EC015B01DB010C91DC
:100A30008A81801760F4602F70E0660F771F660F61
:100A4000771F8F8198850E9412138F8398870A835E
:100A5000F50160E034E0C32ED12C8E010D5F1F4FF5
:100A600045C0818190E0A0E0B0E0BA2FA92F982F77
:100A70008827228130E040E050E0A9013327222777
:100A8000822B932BA42BB52B208130E040E050E04B
:100A9000822B932BA42BB52B238130E040E050E038
:100AA000522F442733272227822B932BA42BB52B9D
:100AB0008B839C83AD83BE8384E090E0C80ED91EF7
:100AC000862F90E0880F991F880F991F2F813885F6
:100AD000280F391FD8016D907D908D909C90D90181
:100AE0006D927D928D929C9213976F5F34968A815E
:100AF000681708F4B6CF85010C0D1D1DF801808024
:100B00008985881560F4682D70E0660F771F660F81
:100B1000771F8E859F850E9412138E879F8784E0A2
:100B200090E0C80ED91E8986F80160E08E01065F4C
:100B30001F4F45C0208130E040E050E0818190E0CF
:100B4000A0E0B0E0BA2FA92F982F8827822B932BF3
:100B5000A42BB52B228130E040E050E0A9013327DF
:100B60002227282B392B4A2B5B2B838190E0A0E096
:100B7000B0E0B82FAA2799278827822B932BA42B84
:100B8000B52B8A879B87AC87BD87A4E0B0E0CA0EEF
:100B9000DB1E862F90E0880F991F880F991F2E85E6
:100BA0003F85280F391FD8016D907D908D909C90C6
:100BB000D9016D927D928D929C9213976F5F3496BE
:100BC0008985681708F4B6CFF501EC0DFD1D00818D
:100BD0008889801750F4602F70E0660F771F8B892B
:100BE0009C890E9412138B8B9C8BF6013496088B88
:100BF0007724B1E18B2E912C8C0E9D1E41C0D50126
:100C0000AE0FBF1FCD90DD90ED90FC90DF011496EC
:100C10003396EA0DFB1D8D019D01442737FD40955C
:100C2000542F2C0D3D1D4E1D5F1D04C081818193ED
:100C30000F5F1F4FB80180E090E0621773078407D1
:100C40009507A0F3CA0EDB1EC5018C0D9D1D0197F3
:100C5000FC0110821197AA0DBB1DBA8BA98BF6015E
:100C6000872D90E0880F991F2B893C89280F391F09
:100C7000D4018D919C91D90111969C938E9373947C
:100C80008889781608F4BBCFCF01DF91CF911F91EF
:100C90000F91FF90EF90DF90CF90BF90AF909F901B
:100CA0008F907F906F900895CF93DF938E30910552
:100CB000B1F481E090E09093070680930606C7EFB9
:100CC000D5E084EF96E00E94DF0F899386E0C5307F
:100CD000D807B9F70AC084EF96E00E94DF0F84EFCF
:100CE00096E00E94D90F8823B1F7DF91CF91089544
:100CF000CF93DF93C4EFD6E0CE0160E670E00E94B0
:100D00009F0FCE016FE070E00E94D60FCE016FEF13
:100D100070E00E94D60FCE010E94A20FDF91CF910A
:100D20000895CF93DF93FC01AB0186819781EC019D
:100D3000A881B98164817581ED91FC910995DF915C
:100D4000CF910895FC014281538164817581808136
:100D500091810E94690E0895EF92FF920F931F9365
:100D60008091F7058D3409F0D4C08091F805843462
:100D700009F0CFC08091F905823509F0CAC0809191
:100D8000FA05833409F0C5C080910406813209F068
:100D9000C0C080910306813209F0BBC080E0E7EF5C
:100DA000F5E090E02191820F980F26E0E130F20704
:100DB000C9F78093080690930906209101068217CF
:100DC00009F0A7C080910206981709F0A2C090917F
:100DD000FB0580E06091FC0570E0682B792B88278B
:100DE00077FD8095982F0E94BC1420E030E048ECFD
:100DF00052E40E94521425E33AEF4EE85CE30E946D
:100E00007015609304037093050380930603909319
:100E100007036091FE0570E0882777FD8095982F85
:100E20000E94BC1420E030E048EC52E40E945214CE
:100E300025E33AEF4EE85CE30E94701560930803E7
:100E40007093090380930A0390930B037091FF053D
:100E500060E080910006680F711D882777FD8095FE
:100E6000982F0E94BC1420E030E048EC52E40E942D
:100E700052149B01AC0160E070E084EB92E40E94AC
:100E8000E91325E33AEF4EE85CE30E9470150AC0CF
:100E90006E2D7F2D802F912F28ED3FE049EC50E4FF
:100EA0000E94EA137B018C017F2D912F28ED3FE0FA
:100EB00049E450EC0E944E1487FDEACF0CC06E2D21
:100EC0007F2D802F912F28ED3FE049EC50E40E94C8
:100ED000E9137B018C016E2D7F2D802F912F28ED42
:100EE0003FE049E450E40E946C15181644F38E2D3F
:100EF0009F2DA02FB12F8093000390930103A09307
:100F00000203B093030381EE95E06EEF72E00E945E
:100F100091061F910F91FF90EF900895DB01FC0166
:100F2000EC5BFD4F20E030E04191519141155105BE
:100F3000A9F4F901EE5DFE4FEE0FFF1FE80FF91F58
:100F4000B183A08323583F4F15963C932E9314975B
:100F500017969C938E93169781E008952F5F3F4FCD
:100F60002931310509F780E00895FC01EA58FD4F69
:100F700020E030E0419151914115510581F4F90192
:100F8000E55CFE4FEE0FFF1FE80FF91F71836083D2
:100F90002C593F4FFB013383228381E008952F5F5B
:100FA0003F4F2931310531F780E00895CF93DF932A
:100FB000C4EFD6E0CE0162E470E00E94920FCE0151
:100FC00064E576E00E94F00FCEE0D3E0CE010E940F
:100FD000A2061092B5051092B4051092B7051092B2
:100FE000B6051092BB051092BA051092B905109281
:100FF000B8052297CE0161EE75E00E948E07CE0102
:101000006BEE75E00E94B507DF91CF9108950F93C5
:101010001F93DF93CF93CDB7DEB72A970FB6F8941F
:10102000DEBF0FBECDBF8C0187E992E09A83898332
:101030001B821C821D821E821F82188619861A86B8
:10104000D801ED91FC910190F081E02DC8016AE09A
:1010500070E0AE014F5F5F4F09950E946B0DF80184
:1010600060877187828793872A960FB6F894DEBFD0
:101070000FBECDBFCF91DF911F910F9108954F9279
:101080005F926F927F928F929F92AF92BF92CF9218
:10109000DF92EF92FF920F931F93DF93CF93CDB721
:1010A000DEB72E970FB6F894DEBF0FBECDBF8C0112
:1010B0008BE892E09A83898344E4E42E42E0F42EA4
:1010C000E00EF11E36E7632E32E0732E600E711EC5
:1010D00028E1822E21E0922EA12CB12C6E010894E1
:1010E000C11CD11CD701ED91FC9111973097A9F14A
:1010F000848195819C838B83808191819E838D8364
:1011000082819381DC01ED91FC910480F581E02DD9
:10111000099598878F83D701ED91FC918281938106
:10112000DC01ED91FC910680F781E02D09959A870D
:1011300089878B869C86AD86BE86F80180819181E9
:10114000F701A081B18118966D917C911997DC010E
:10115000ED91FC91C801A6010995E2E0F0E0EE0EE8
:10116000FF1EE614F70409F0BDCF96E7E92E92E0E2
:10117000F92EE00EF11E88EA482E82E0582E400E2D
:10118000511EB8E18B2EB1E09B2EA12CB12C6E012B
:101190000894C11CD11CF701A081B1811097D1F135
:1011A00012968D919C9113979C838B8314968D91AD
:1011B0009C9115979E838D83ED91FC9111970480EE
:1011C000F581E02DCD01099598878F83D7018D9109
:1011D0009C91DC01ED91FC910680F781E02D099551
:1011E0009A8789878B869C86AD86BE86D801ED91CD
:1011F000FC9160807180F70180819181DC01ED912B
:10120000FC910280F381E02D0995BC01C801A60183
:10121000F3010995E2E0F0E0EE0EFF1EE414F504A0
:1012200009F0B9CFF801EE54FD4F81E080832E968E
:101230000FB6F894DEBF0FBECDBFCF91DF911F91E7
:101240000F91FF90EF90DF90CF90BF90AF909F9065
:101250008F907F906F905F904F900895CF92DF9224
:10126000EF92FF920F931F93CF93DF93EC016B01EB
:101270000E946B0DF601E080F180028113810894D9
:10128000E108F1080109110928EE33E040E050E0DF
:101290000E941916E21AF30A040B150BEC86FD8660
:1012A0000E871F87F601E480F5800681178120E014
:1012B0003AEC4AE95BE3E20EF31E041F151F20E43B
:1012C00032E44FE050E00E94D315E61AF70A080B0B
:1012D000190BE88AF98A0A8B1B8BBE01605F7F4F6E
:1012E000CE010C960E94F20CDF91CF911F910F91CD
:1012F000FF90EF90DF90CF900895AF92BF92CF9282
:10130000DF92EF92FF920F931F93DF93CF93CDB7AE
:10131000DEB72A970FB6F894DEBF0FBECDBF5C01D3
:101320006B0187E992E09A8389831B821C821D826C
:101330001E821F82188619861A860E946B0D7B01F9
:101340008C01F50180859185A285B385E81AF90A9B
:101350000A0B1B0BCE010196B6010E948400C80146
:10136000B70128EE33E040E050E00E9419167B01FF
:101370008C018B819C81AD81BE81820F931FA41F44
:10138000B51F8B839C83AD83BE83C801B70120E466
:1013900032E44FE050E00E94D3159B01AC018F81F5
:1013A0009885A985BA85820F931FA41FB51F8F83C7
:1013B0009887A987BA87C501BE016D5F7F4F0E94DC
:1013C0002E090E946B0DF501E954FD4F6083718376
:1013D000828393832A960FB6F894DEBF0FBECDBFEB
:1013E000CF91DF911F910F91FF90EF90DF90CF9001
:1013F000BF90AF9008952F923F924F925F926F925D
:101400007F928F929F92AF92BF92CF92DF92EF9294
:10141000FF920F931F93DF93CF93CDB7DEB72C9737
:101420000FB6F894DEBF0FBECDBF9C878B870E949E
:101430006B0D6B017C01EB85FC85E954FD4F8081D0
:101440009181A281B381A7019601281B390B4A0B18
:101450005B0BDA01C901893F3AE2930730E0A30749
:1014600030E0B30728F0EB85FC85EE54FD4F108289
:10147000EB85FC85E855FD4F80819181009781F0D7
:10148000AB85BC85A554BD4F8D919D910D90BC91B0
:10149000A02D8C159D05AE05BF0510F4118210829C
:1014A00010EB612E12E0712E4B855C85640E751E6B
:1014B0008A0108551D4FBCEA8B2EB2E09B2E840E8C
:1014C000951EA4E14A2E512C440E551E40545D4FEA
:1014D0005A8349838B859C8581549D4F9C838B8344
:1014E000FAEAAF2EF2E0BF2EAB85BC85AA0EBB1E7A
:1014F000EEEA2E2EE2E03E2E2A0E3B1EA554BD4FF4
:10150000BE83AD83A70196012C5E3F4F4F4F5F4FC7
:101510002F83388749875A87C8010B851C859C878C
:101520008B87D80112968D919C911397DC01ED91D8
:10153000FC910084F185E02D09959C0197FDFCC08C
:10154000F30180819181820F931F91838083AB850A
:10155000BC854D915C91119746305105B9F4F1016C
:1015600080819181F801E80FF91F248B0196D10148
:1015700011969C938E93F5018081918101979183BF
:101580008083009771F6E7E0F0E04AC0411551050D
:10159000A9F42F3F310529F6E1E0F0E0AB85BC85E9
:1015A000ED93FC932F81388549855A85AD81BE81A5
:1015B0002D933D934D935C931397B3CF41305105D9
:1015C00081F42F3F310539F422E030E0EB85FC85D2
:1015D00031832083A6CFAB85BC8511961C921E92C9
:1015E000A0CF4230510571F4F40131832083E3E050
:1015F000F0E0AB85BC85ED93FC93D30111963C9351
:101600002E938FCF4330510589F4322F2227F401D6
:1016100080819181280F391F31832083E4E0F0E03D
:10162000AB85BC851196FC93EE937BCF443051057E
:1016300051F4D50111963C932E93F1011182108241
:10164000E5E0F0E0EDCF45305105D1F4322F22270F
:10165000D5018D919C911197280F391F11963C93BC
:101660002E9346E050E0EB85FC85518340832115A5
:10167000310509F056CF87E090E09183808351CF08
:101680004730510509F04DCFAB85BC8511961C92B2
:101690001E9260E071E00E9406168F3F910509F0EE
:1016A00040CFD401ED91FC9111973097E1F41C8764
:1016B0000B87C8010E9407088B859C850E943F0804
:1016C000EB85FC85ED54FD4FC082D182E282F3822E
:1016D000EB85FC85E954FD4FC082D182E282F38222
:1016E0002FEF3FEF54C0EA30F10529F4C801B201F1
:1016F0000E947D0916CFE630F10551F489819A8167
:10170000B2010E94060521E0EB81FC81208309CF14
:10171000E952FF4FEE0FFF1FE00FF11F8081918113
:10172000009709F4FECEDC01ED91FC910190F0816F
:10173000E02DB2010995F5CE1C870B87F801EE5418
:10174000FD4F8081882309F10D541D4FF8018081E0
:101750009181A281B381A7019601281B390B4A0B05
:101760005B0BDA01C901853C39E0930730E0A30740
:1017700030E0B30750F08B859C850E940708D801A4
:10178000CD92DD92ED92FC92139720E030E0C901FA
:101790002C960FB6F894DEBF0FBECDBFCF91DF9170
:1017A0001F910F91FF90EF90DF90CF90BF90AF907F
:1017B0009F908F907F906F905F904F903F902F9071
:1017C00008958091060690910706009731F01092D7
:1017D0000706109206060E94AC068CE093E00E9479
:1017E000FB090895DF93CF9300D000D00F92CDB7BF
:1017F000DEB723EA32E03A8329836B835D834C832F
:10180000DC01ED91FC910190F081E02D67E070E04A
:10181000AE014F5F5F4F09950F900F900F900F90A3
:101820000F90CF91DF910895AB0163E00E94F20B1E
:101830000895CF92DF92EF92FF920F931F93CF9371
:10184000DF93EC017B01CA01643671053CF0FE01B7
:10185000EE54FD4F2081222309F463C0DC01ED9199
:10186000FC91BE016E5C7E4F0190F081E02D0995E8
:10187000FE01E45DFE4F2FEF2083FE01E35DFE4F8E
:101880002083FE01E25DFE4FE082DE01A15DBE4FDE
:101890001C92DE01A05DBE4F8C93DE01AF5CBE4F9B
:1018A0001C9242E050E020E030E0BC016B5F7F4FD3
:1018B00005C0A1912A0F311D4F5F5F4F6417750757
:1018C000C4F7FE01E80FF91FEE5CFE4F2095208360
:1018D0008C01095F1F4FB1E009311B07E4F48CE272
:1018E000C82E81E0D82ECC0EDD1EEE24FF240FC0C2
:1018F0008A819B81F60161916F01DC01ED91FC9180
:101900000190F081E02D09950894E11CF11CE0168E
:10191000F10674F308C0CE0163E272E00E94140C79
:1019200003C000E010E0C801DF91CF911F910F913B
:10193000FF90EF90DF90CF90089585E792E090932D
:10194000FF028093FE0281E892E090930D03809362
:101950000C0387E996E090930F0380930E0380E0D9
:1019600091EEA0E0B0E08093100390931103A09358
:101970001203B09313031092BE058FEA92E0909386
:10198000CD058093CC058CE592E09093E2058093A1
:10199000E1058EEF92E09093E4058093E3051092C9
:1019A000EA051092E90587ED92E09093EC058093AB
:1019B000EB0583EE92E09093F2058093F10588E7C2
:1019C00096E09093F4058093F30581E090E0909386
:1019D000F6058093F50580E692E09093F0058093FC
:1019E000EF050895CF92DF92EF92FF920F931F932E
:1019F000CF93DF93EC016B01FB01608171818281E8
:101A0000938120E03AEC4AE95BE30E9419167B01DE
:101A10008C0188819981AA81BB81820F931FA41FA9
:101A2000B51F88839983AA83BB83F601E082F18284
:101A300002831383DF91CF911F910F91FF90EF905D
:101A4000DF90CF9008951F920F920FB60F9211243E
:101A50002F933F938F939F93AF93BF9380910E06E5
:101A600090910F06A0911006B091110630911206C8
:101A70000196A11DB11D232F2D5F2D3720F02D576D
:101A80000196A11DB11D2093120680930E0690931E
:101A90000F06A0931006B093110680910A0690914C
:101AA0000B06A0910C06B0910D060196A11DB11D6B
:101AB00080930A0690930B06A0930C06B0930D0634
:101AC000BF91AF919F918F913F912F910F900FBE3A
:101AD0000F901F9018958FB7F89420910E063091B3
:101AE0000F0640911006509111068FBFB901CA012F
:101AF0000895789484B5826084BD84B5816084BD86
:101B000085B5826085BD85B5816085BDEEE6F0E076
:101B1000808181608083E1E8F0E0108280818260D2
:101B20008083808181608083E0E8F0E08081816053
:101B30008083E1EBF0E0808184608083E0EBF0E083
:101B4000808181608083EAE7F0E080818460808327
:101B500080818260808380818160808380818068D1
:101B600080831092C1000895FC0182819381FC0161
:101B7000E058FF4F208131818E579F4FFC018081BB
:101B80009181281B390B2F773070C9010895FC0112
:101B900082819381FC01EE57FF4F20813181FC014E
:101BA000E058FF4F408151814217530731F0820FB7
:101BB000931FFC01208130E002C02FEF3FEFC901ED
:101BC0000895DC0112962D913C911397F901EE577F
:101BD000FF4F80819181D901A058BF4F4D915C91F9
:101BE00011974817590759F0280F391FD9012C911F
:101BF00001968F7790709183808330E002C02FEF41
:101C00003FEFC9010895DC0112968D919C911397C5
:101C1000FC01E058FF4F8E579F4FDC018D919C9146
:101C20001197918380830895FC01A085B185218956
:101C30008C9190E0022E02C0959587950A94E2F768
:101C400080FFF6CF0484F585E02D60830895FB01C5
:101C5000E058FF4F408151819A012F5F3F4F2F770E
:101C60003070DB01AE57BF4F0D90BC91A02D2A17ED
:101C70003B0731F0640F751FDB018C9331832083A8
:101C800008951F920F920FB60F9211242F933F9336
:101C90004F935F936F937F938F939F93AF93BF9374
:101CA000EF93FF938091C60063E176E00E94270ED8
:101CB000FF91EF91BF91AF919F918F917F916F9124
:101CC0005F914F913F912F910F900FBE0F901F90FA
:101CD0001895CF93DF93EC019A01AB01E885F98564
:101CE000203081EE380780E0480780E0580709F48B
:101CF00049C081E090E00A8802C0880F991F0A94C9
:101D0000E2F7808360E079E08DE390E00E943B168B
:101D10002150304040405040CA01B90122E030E03B
:101D200040E050E00E943B16EC81FD813083EE8163
:101D3000FF812083EA85FB85408181E090E09C0162
:101D40000E8402C0220F331F0A94E2F7422B408315
:101D5000EA85FB8540819C010F8402C0220F331F5E
:101D60000A94E2F7422B4083EA85FB8520810888AC
:101D700002C0880F991F0A94E2F7282B2083DF9175
:101D8000CF910895108220E130E0CECF8FEE92E027
:101D9000909398068093970683E196E090939A0635
:101DA0008093990685EC90E090939C0680939B0627
:101DB00084EC90E090939E0680939D0680EC90E0EA
:101DC0009093A00680939F0681EC90E09093A206EA
:101DD0008093A10686EC90E09093A4068093A306DE
:101DE00084E08093A50683E08093A60687E0809335
:101DF000A70685E08093A80681E08093A906089550
:101E00000E94790D0E94D6070E94E10BFDCF0F932F
:101E10001F93CF93DF93EC01062F172F07C0E881A4
:101E2000F9810190F081E02DCE010995F8016191D1
:101E30008F016623A1F7DF91CF911F910F91089534
:101E4000EF92FF920F931F93CF93DF937C01EB01EF
:101E50008A010BC06991D701ED91FC910190F0814D
:101E6000E02DC7010995015010400115110591F7AA
:101E7000DF91CF911F910F91FF90EF900895CF9335
:101E8000DF939C01CB01E091F206F091F3063097CD
:101E9000D9F05091CA064091CB065417A8F060E0E3
:101EA00009C0DA01A655B94F420F531FEA01488114
:101EB0004C936F5F462F50E04817590794F31092E8
:101EC000CA068093CB060995DF91CF910895E091E2
:101ED000F006F091F106309729F01092ED0610927D
:101EE000EE06099508951092CA061092CB0610923C
:101EF000ED061092EE060E94F60F0895CF93DF9341
:101F0000EC01862F0E94091087E69FE00E946C106A
:101F10008FE39FE00E946710CE010E94730FDF9154
:101F2000CF9108950E947E0F089581E08093EF067F
:101F30006093CC061092ED061092EE0608950E9472
:101F4000950F08958091CC066DEC76E04091EE06F9
:101F500021E00E940D101092ED061092EE061092F4
:101F6000EF060895DF93CF930F92CDB7DEB7698365
:101F70008091EF06882389F08091EE06803290F4FC
:101F80008091ED06E82FF0E0E353F94F60838F5F17
:101F90008093ED068093EE0605C0CE01019661E0C8
:101FA0000E944D100F90CF91DF9108950E94B20FC3
:101FB00008958091CB069091CA06891B089590914F
:101FC000CA068091CB06981748F4E92FF0E0E65551
:101FD000F94F80819F5F9093CA06089580E008952D
:101FE0007093F3066093F20608950895109219070E
:101FF000449A459AE9EBF0E080818E7F808380816E
:102000008D7F808388E48093B80085E48093BC0052
:102010000895880F8093BA0008954132B0F59091E9
:1020200019079923E1F792E0909319079FEF909396
:1020300018071092F6064093F706DB01E8EFF6E08A
:1020400050E04E0F5F1F02C09D919193E417F5077A
:10205000D9F790E0880F991F8093F50685EE80935D
:10206000BC00222321F0809119078230E1F3809196
:1020700018078F3F61F080911807803251F08091EE
:102080001807803341F483E0089581E0089580E0EB
:10209000089582E0089584E008956132A0F42091CB
:1020A0001907243091F460933E07DC01E1E4F7E086
:1020B00070E06E0F7F1F02C08D918193E617F707C6
:1020C000D9F780E0089581E0089582E00895909323
:1020D0003C0780933B0708959093400780933F0708
:1020E0000895882311F085EC01C085E88093BC0039
:1020F000089585ED8093BC008091BC0084FDFCCFE9
:1021000010921907089585EC8093BC00109219076E
:1021100008951F920F920FB60F9211242F933F93A1
:102120004F935F936F937F938F939F93AF93BF93DF
:10213000EF93FF938091B90090E0887F9070803694
:10214000910509F4C2C081369105E4F58832910504
:1021500009F47EC089329105C4F48031910509F4F7
:1021600072C08131910544F4009709F413C188309D
:10217000910509F013C167C08831910509F468C061
:102180008032910509F00AC178C08034910509F4C4
:102190008AC0813491054CF48033910509F46FC0F5
:1021A0008833910509F0FAC06EC08035910509F4B5
:1021B0006EC08835910509F47BC08834910509F01B
:1021C000EDC0EAC08839910509F4DAC08939910572
:1021D000ECF48837910509F478C0893791054CF4FF
:1021E0008836910509F471C08037910509F0D6C091
:1021F0006CC08838910509F4C3C08039910509F491
:102200006AC08038910509F0C9C065C0803B91055E
:1022100009F48EC0813B91054CF4803A910509F494
:102220006CC0883A910509F0B9C082C0803C910524
:1022300009F4AAC0883C910509F4A6C0883B910521
:1022400009F0ACC08AC08091F5068093BB0013C032
:102250009091F6068091F706981708F09DC080913E
:10226000F606E82FF0E0E850F94F90819093BB001C
:102270008F5F8093F60681E084C080E201C080E336
:102280008093180789C088E3809318074EC0809117
:10229000F6069091BB00E82FF0E0E850F94F9083EC
:1022A0008F5F8093F6069091F6068091F70665C0E1
:1022B0008091F6069091BB00E82FF0E0E850F94FCE
:1022C00090838F5F8093F60667C083E08093190741
:1022D00010921A07D0CF80911A07803208F050C0B0
:1022E00080911A079091BB00E82FF0E0E55EF84F6F
:1022F00090838F5F80931A07BECF80911A07803238
:1023000030F4E0911A07F0E0E55EF84F10820E9489
:10231000791060911A07E0913B07F0913C078BE13F
:1023200097E070E0099510921A070E94831036C05A
:1023300084E08093190710923D0710923E07E091C8
:102340003F07F0914007099580913E07882329F4C3
:1023500081E080933E071092410780913D07E82F6E
:10236000F0E0EF5BF84F90819093BB008F5F80931C
:102370003D0790913D0780913E07981708F47BCF69
:1023800080E00E9471100AC081E00E9471101092DA
:10239000190704C0109218070E947910FF91EF915D
:1023A000BF91AF919F918F917F916F915F914F916D
:1023B0003F912F910F900FBE0F901F901895CF93C4
:1023C000DF938230910510F482E090E0E0916307A2
:1023D000F091640740E050E020E030E026C06081EA
:1023E000718168177907E0F06817790781F48281B5
:1023F00093812115310531F0D90113969C938E9369
:1024000012972BC0909364078093630726C04115F1
:10241000510519F06417750718F4AB01E901DF01E4
:102420009F0172816381E72FF62F3097C1F6411526
:10243000510501F1481B590B4430510580F41296A7
:102440008D919C911397209719F09B838A8304C0E8
:102450009093640780936307FD01329646C0FD01A7
:10246000E40FF51F819391934250504011965C9375
:102470004E933BC0209161073091620721153105D1
:1024800041F420916D0230916E02309362072093E7
:10249000610720916F02309170022115310541F4DE
:1024A0002DB73EB740916B0250916C02241B350B47
:1024B000E0916107F0916207E217F307A0F42E1B89
:1024C0003F0B2817390778F0AC014E5F5F4F241798
:1024D000350748F04E0F5F1F509362074093610726
:1024E0008193919302C0E0E0F0E0CF01DF91CF91C2
:1024F0000895CF93DF93009709F491C0FC013297C0
:1025000013821282609163077091640761157105EF
:1025100081F420813181280F391F809161079091CA
:1025200062078217930799F5F0936207E0936107BA
:1025300076C0DB0180E090E002C0CD01D901AE178A
:10254000BF0748F412962D913C9113972115310540
:10255000A1F7CD0121C0B383A283EF014991599125
:102560009E01240F351FA217B30779F42D913C91DA
:102570001197240F351F2E5F3F4F31832083129612
:102580002D913C91139733832283009729F4F09384
:102590006407E093630743C0DC011396FC93EE935A
:1025A00012974D915D91A40FB51FEA17FB0769F4CF
:1025B00020813181240F351F2E5F3F4FEC0139837D
:1025C0002883228133813B832A83E0E0F0E002C04C
:1025D000FB01BC01DB0112968D919C911397009732
:1025E000B9F79B012E5F3F4F8D919C911197820F00
:1025F000931F40916107509162074817590779F47A
:10260000309729F4109264071092630702C0138276
:102610001282225030403093620720936107DF918D
:10262000CF910895A0E0B0E0E8E1F3E10C945C16EE
:102630008C01CB010115110529F40E94DF11082F2F
:10264000192FB5C0D80112979801260F371F2A17E6
:102650003B0708F4AAC0ED90FC901197E616F70628
:10266000D0F045E0E416F10408F4A1C0A7014450FD
:1026700050404617570708F49AC0A70142505040EF
:10268000461B570BF901419351936D937C93CF01F6
:102690000E9479128CC05B01AE18BF0848018E0CF5
:1026A0009F1CE0916307F0916407CC24DD24C0E017
:1026B000D0E041C0E815F90599F560817181AB0161
:1026C0004E5F5F4F4A155B0558F1AB014A195B0934
:1026D000CC24DD246894C1F8C40ED51E8280A3806A
:1026E000E5E0CE16D10448F0F9018282A38251833D
:1026F000408311969C938E9309C0C7010296860F62
:10270000971F11969C938E93E82DFA2D209719F020
:10271000FB83EA834CC0F0936407E093630747C0F0
:1027200040815181C416D50608F46A01EF01528137
:102730004381E52FF42F309709F0BCCF409161071A
:102740005091620748155905E9F4C816D906D0F426
:1027500040916F02509170024115510541F44DB7FF
:102760005EB760916B0270916C02461B570B241789
:102770003507D8F4309362072093610711969C9334
:102780008E9315C00E94DF11C82EE6016E01D92E6E
:10279000E601209751F08C2DB801A7010E94E013AB
:1027A000C8010E947912860102C000E010E0C80151
:1027B000CDB7DEB7ECE00C947816F8940C94931631
:1027C000FB01DC0102C001900D9241505040D8F74E
:1027D00008955058BB27AA270ED044C135D130F0F8
:1027E0003AD120F031F49F3F11F41EF42AC10EF4C7
:1027F000E095E7FB20C1E92F46D180F3BA176207C5
:1028000073078407950718F071F49EF55EC10EF406
:10281000E0950B2EBA2FA02D0B01B90190010C01F0
:10282000CA01A0011124FF27591B99F0593F50F408
:10283000503E68F11A16F040A22F232F342F442760
:10284000585FF3CF469537952795A795F040539558
:10285000C9F77EF41F16BA0B620B730B840BBAF028
:102860009150A1F0FF0FBB1F661F771F881FC2F793
:102870000EC0BA0F621F731F841F48F487957795A7
:102880006795B795F7959E3F08F0B3CF9395880F5E
:1028900008F09927EE0F979587950895A8D008F42A
:1028A00081E008950CD0DEC0D6D040F0CDD030F01D
:1028B00021F45F3F19F0BFC0511108C1C2C0E3D07D
:1028C00098F39923C9F35523B1F3951B550BBB27F7
:1028D000AA2762177307840738F09F5F5F4F220FA4
:1028E000331F441FAA1FA9F333D00E2E3AF0E0E89D
:1028F00030D091505040E695001CCAF729D0FE2FE9
:1029000027D0660F771F881FBB1F2617370748077A
:10291000AB07B0E809F0BB0B802DBF01FF27935830
:102920005F4F2AF09E3F510568F085C0CFC05F3FE2
:10293000ECF3983EDCF3869577956795B795F79518
:102940009F5FC9F7880F911D9695879597F9089510
:10295000E1E0660F771F881FBB1F621773078407AC
:10296000BA0720F0621B730B840BBA0BEE1F88F7BB
:10297000E0950895E89409C097FB3EF49095809502
:10298000709561957F4F8F4F9F4F9923A9F0F92F35
:1029900096E9BB279395F695879577956795B795B3
:1029A000F111F8CFFAF4BB0F11F460FF1BC06F5F99
:1029B0007F4F8F4F9F4F16C0882311F096E911C0AB
:1029C000772321F09EE8872F762F05C0662371F0CC
:1029D00096E8862F70E060E02AF09A95660F771FE0
:1029E000881FDAF7880F9695879597F90895990FBC
:1029F0000008550FAA0BE0E8FEEF16161706E807C9
:102A0000F907C0F012161306E407F50798F0621BE9
:102A1000730B840B950B39F40A2661F0232B242BBE
:102A2000252B21F408950A2609F4A140A6958FEFDD
:102A3000811D811D089597F99F6780E870E060E02F
:102A400008959FEF80EC089500240A941616170647
:102A500018060906089500240A941216130614068F
:102A600005060895092E0394000C11F4882352F0F2
:102A7000BB0F40F4BF2B11F460FF04C06F5F7F4FAA
:102A80008F4F9F4F089557FD9058440F551F59F091
:102A90005F3F71F04795880F97FB991F61F09F3F4B
:102AA00079F087950895121613061406551FF2CF74
:102AB0004695F1DF08C0161617061806991FF1CFC4
:102AC00086957105610508940895E894BB276627EB
:102AD0007727CB0197F908958ADF08F48FEF0895DF
:102AE0000BD0C0CFB1DF28F0B6DF18F0952309F086
:102AF000A2CFA7CF1124EACFC6DFA0F3959FD1F3D1
:102B0000950F50E0551F629FF001729FBB27F00D9B
:102B1000B11D639FAA27F00DB11DAA1F649F6627F0
:102B2000B00DA11D661F829F2227B00DA11D621F3F
:102B3000739FB00DA11D621F839FA00D611D221FF9
:102B4000749F3327A00D611D231F849F600D211DDD
:102B5000822F762F6A2F11249F5750408AF0E1F080
:102B600088234AF0EE0FFF1FBB1F661F771F881FC9
:102B700091505040A9F79E3F510570F05CCFA6CF11
:102B80005F3FECF3983EDCF3869577956795B795B4
:102B9000F795E7959F5FC1F7FE2B880F911D9695DE
:102BA000879597F90895629FD001739FF001829FE6
:102BB000E00DF11D649FE00DF11D929FF00D839FCC
:102BC000F00D749FF00D659FF00D9927729FB00D69
:102BD000E11DF91F639FB00DE11DF91FBD01CF017C
:102BE00011240895AA1BBB1B51E107C0AA1FBB1FDC
:102BF000A617B70710F0A61BB70B881F991F5A9589
:102C0000A9F780959095BC01CD01089597FB092EF9
:102C100007260AD077FD04D0E5DF06D000201AF49D
:102C2000709561957F4F0895F6F7909581959F4F28
:102C30000895A1E21A2EAA1BBB1BFD010DC0AA1FFD
:102C4000BB1FEE1FFF1FA217B307E407F50720F015
:102C5000A21BB30BE40BF50B661F771F881F991F90
:102C60001A9469F760957095809590959B01AC01D9
:102C7000BD01CF01089597FB092E05260ED057FD03
:102C800004D0D7DF0AD0001C38F450954095309519
:102C900021953F4F4F4F5F4F0895F6F790958095E0
:102CA000709561957F4F8F4F9F4F08952F923F9260
:102CB0004F925F926F927F928F929F92AF92BF924C
:102CC000CF92DF92EF92FF920F931F93CF93DF93F8
:102CD000CDB7DEB7CA1BDB0B0FB6F894DEBF0FBE55
:102CE000CDBF09942A88398848885F846E847D84A2
:102CF0008C849B84AA84B984C884DF80EE80FD80A4
:102D00000C811B81AA81B981CE0FD11D0FB6F89419
:102D1000DEBF0FBECDBFED010895EE0FFF1F059082
:0A2D2000F491E02D0994F894FFCF20
:102D2A007374645F6D7367732F54696D65006364B0
:102D3A00373136366337346335353263333131668A
:102D4A0062636332666535613762633238390072AD
:102D5A006F7373657269616C5F6D7367732F546FFC
:102D6A00706963496E666F0036336161356538662E
:102D7A00316264643666333563363966653161318A
:102D8A00623964323865396600726F7373657269C5
:102D9A00616C5F6D7367732F4C6F670031316162CD
:102DAA00643733316332353933333236316364361B
:102DBA00313833626431326436323935003966303B
:102DCA006539386264613635393831393836646480
:102DDA006635336166613761343065343900696D4F
:102DEA00755F6D73672F4F7269656E746174696F71
:102DFA006E003434396335393839333064366661B4
:102E0A0031646234393030383434313361353263C5
:102E1A003932007374645F6D7367732F456D707414
:102E2A007900643431643863643938663030623228
:102E3A003034653938303039393865636638343278
:102E4A003765004D6573736167652066726F6D2023
:102E5A006465766963652064726F707065643A2090
:102E6A006D657373616765206C6172676572207442
:102E7A0068616E206275666665722E00696D7500FE
:102E8A00636D707330335F63616C00200065070007
:102E9A0000000000005F02920224032703000000E2
:102EAA0000190CFB094803000000004D031201023F
:102EBA0002050200000000610084000C010F0100FD
:102ECA00000000EC03080253025602000000001240
:102EDA0004060559025C02726F7373657269616C4C
:102EEA005F6D7367732F5265717565737450617284
:102EFA00616D000000000036033E034203450300F3
:102F0A000000002A032D03300333030000000014DD
:0E2F1A000E070F200FB40DE10DC70D030E00C2
:00000001FF
