:10000000FFC0000025C1000023C1000021C1000085
:100010001FC100001DC100001BC1000019C100006C
:1000200017C1000015C1000013C1000011C100007C
:100030000FC100000DC100000BC1000009C100008C
:100040000C941B1605C100000C94D91401C10000CA
:10005000FFC00000FDC00000FBC00000F9C00000B0
:100060000C94B013F5C000005214001400140014D6
:1000700000140014001400145C1400140014001484
:1000800000140014001400145C1400140014001474
:10009000001400140014001464140014001400145C
:1000A000001400140014001473140014001400143D
:1000B000001400140014001464140014001400143C
:1000C00000140014001400149E14001400140014F2
:1000D0000014001400140014A914001400140014D7
:1000E000001400140014001426140014001400144A
:1000F0000014001400140014391400140014001427
:1001000000140014001400141A1400140014001435
:1001100000140014001400142D1400140014001412
:1001200000140014001400144914001400140014E6
:1001300000140014001400144914001400140014D6
:1001400000140014001400144914001400140014C6
:1001500000140014001400144914001400140014B6
:1001600000140014001400141114001400140014DE
:1001700000140014001400141614001400140014C9
:1001800000140014001400141114001400140014BE
:1001900000140014001400141614001400140014A9
:1001A00000140014001400147E1400140014001431
:1001B0000014001400140014D613001400140014CA
:1001C0000014001400140014D613001400140014BA
:1001D0000014001400140014EB1300140014001495
:1001E000001400140014001443140014001400142C
:1001F000001400140014001443147509B212DC1525
:1002000011241FBECFEFD8E0DEBFCDBF12E0A0E0CB
:10021000B1E0E8EDF3E302C005900D92A43BB10715
:10022000D9F716E0A4EBB2E001C01D92A83FB107D8
:10023000E1F711E0C0E0D2E004C02297FE010E9485
:100240001118CA3FD107C9F70E9416160C94EA1973
:10025000D7CEEF92FF920F931F937B018C0120E08A
:1002600030E040E05FE45FD388237CF0C801B70151
:1002700020E030E040E05FE460D182D39B01AC013C
:10028000205030404040504805C0C801B70178D3E5
:100290009B01AC01B901CA011F910F91FF90EF9032
:1002A0000895A0E0B0E0E7E5F1E00C94D817DC0198
:1002B0002B01FA019C91923008F439C1EB0188813D
:1002C000823008F433C1943069F4843009F02FC1CE
:1002D00011969C9111978981981709F428C1A3E47C
:1002E000B1E025C1843009F421C18230A9F49230F3
:1002F00009F01DC19A01AD0188E0EA010990AE0143
:10030000E90109929E018150C1F7E20189811196AC
:100310009C918923818308C1923009F407C1129608
:100320002D903C901397EB018A819B811496AD90A0
:10033000BD90CD90DC901797EC80FD800E811F81E1
:100340009101281B390BB90137FF04C066277727B5
:10035000621B730B603271050CF061C0121613063C
:100360006CF537014801062E04C096948794779463
:1003700067940A94D2F721E030E040E050E004C0F6
:10038000220F331F441F551F6A95D2F7215030406A
:10039000404050402E213F2140235123211531055B
:1003A0004105510521F021E030E040E050E07901C5
:1003B0008A01E628F728082919293CC0232BD1F106
:1003C000260E371E35014601062E04C096948794EA
:1003D000779467940A94D2F721E030E040E050E04F
:1003E00004C0220F331F441F551F6A95D2F72150B6
:1003F0003040404050402A213B214C215D212115B5
:1004000031054105510521F021E030E040E050E0A8
:1004100059016A01A628B728C828D9280BC0821517
:1004200093052CF01C01AA24BB24650103C0EE2413
:10043000FF24870111969C91D20111968C919817F7
:1004400009F445C0992339F0A80197012A193B09FD
:100450004C095D0906C0A60195012E193F09400B04
:10046000510B57FD08C011823382228224833583C9
:10047000468357831DC081E081833382228288278F
:100480009927DC01821B930BA40BB50B8483958306
:10049000A683B7830DC0220F331F441F551F24832B
:1004A0003583468357838281938101979383828327
:1004B0002481358146815781DA01C9010197A1095B
:1004C000B1098F5F9F4FAF4FBF4328F30BC091839C
:1004D00033822282EA0CFB1C0C1D1D1DE482F58276
:1004E0000683178383E08083248135814681578189
:1004F00057FF1AC0C901AA2797FDA095BA2F81708E
:100500009070A070B0705695479537952795822BBF
:10051000932BA42BB52B84839583A683B7838281E9
:100520009381019693838283DF0101C0D201CD01C3
:10053000CDB7DEB7E2E10C94F417A0E2B0E0E3EA55
:10054000F2E00C94E41769837A838B839C832D8378
:100550003E834F835887E9E0EE2EF12CEC0EFD1E12
:10056000CE010196B701FAD38E010F5E1F4FCE0167
:100570000596B801F3D38A8991E089278A8BC70150
:10058000B801AE01475E5F4F8CDE13D3A096E6E064
:100590000C940018A0E2B0E0E0EDF2E00C94E41757
:1005A00069837A838B839C832D833E834F83588713
:1005B000F9E0EF2EF12CEC0EFD1ECE010196B701F5
:1005C000CDD38E010F5E1F4FCE010596B801C6D365
:1005D000C701B801AE01475E5F4F63DEEAD2A09665
:1005E000E6E00C940018A0E2B0E0E9EFF2E00C9431
:1005F000D81769837A838B839C832D833E834F83B3
:100600005887CE010196BE01675F7F4FA7D3CE0109
:100610000596BE016F5E7F4FA1D39985923088F019
:1006200089898230C8F0943019F4823051F404C0C2
:10063000843029F4923081F483E491E0C6C0923092
:1006400049F420E09A858A89981321E02A87CE010F
:100650000996BBC0823049F420E09A858A899813B4
:1006600021E02A8BCE014196B0C02D843E844F8478
:1006700058886D887E888F88988CEE24FF248701A7
:10068000AA24BB24650140E050E060E070E0E0E0B7
:10069000F0E0C10181709070892BE9F0E60CF71C45
:1006A000081D191D9A01AB012A0D3B1D4C1D5D1D36
:1006B00080E090E0A0E0B0E0E614F704080519053A
:1006C00020F481E090E0A0E0B0E0BA01A901480F79
:1006D000591F6A1F7B1FAA0CBB1CCC1CDD1C97FE7C
:1006E00008C081E090E0A0E0B0E0A82AB92ACA2AB8
:1006F000DB2A3196E032F10549F0660C771C881C44
:10070000991C5694479437942794C3CFFA85EA8965
:100710002B893C898B859C85280F391F2E5F3F4F85
:1007200017C0CA0181709070892B61F016950795EA
:10073000F794E79480E090E0A0E0B0E8E82AF92A96
:100740000A2B1B2B76956795579547952F5F3F4F43
:1007500077FDE7CF0CC0440F551F661F771F17FDAD
:100760004160EE0CFF1C001F111F21503040403033
:1007700090E0590790E0690790E4790760F32B8FC8
:100780003C8FDB01CA018F779070A070B07080340D
:100790009105A105B10561F447FD0AC0E114F1041A
:1007A0000105110529F0405C5F4F6F4F7F4F407886
:1007B0001A8EFE1711F081E08A8F4D8F5E8F6F8F3A
:1007C00078A383E0898FCE014996F3D1A096E2E128
:1007D0000C94F417A8E1B0E0E0EFF3E00C94E0171C
:1007E00069837A838B839C832D833E834F835887D1
:1007F000B9E0EB2EF12CEC0EFD1ECE010196B701F7
:10080000ADD28E010F5E1F4FCE010596B801A6D264
:100810002985223008F47EC03989323010F4B801BD
:100820007CC08A859A8989278A87243011F02230F2
:1008300031F4231709F06EC063E471E06EC0343008
:1008400039F41D861E861F86188A1C861B8604C0E6
:10085000323021F484E08987B7015FC02B853C8565
:100860008B899C89281B390B3C872B87ED84FE8460
:100870000F851889AD88BE88CF88D88CEA14FB0410
:100880000C051D0540F4EE0CFF1C001F111F21502C
:1008900030403C872B8720E030E040E050E080E0B3
:1008A00090E0A0E0B0E460E070E0EA14FB040C0526
:1008B0001D0540F0282B392B4A2B5B2BEA18FB082F
:1008C0000C091D09B695A79597958795EE0CFF1C09
:1008D000001F111F6F5F7F4F6F31710531F7DA0114
:1008E000C9018F779070A070B07080349105A10518
:1008F000B10561F427FD0AC0E114F10401051105F9
:1009000029F0205C3F4F4F4F5F4F20782D873E8767
:100910004F87588BBE01675F7F4FCB014AD16896E6
:10092000EAE00C94FC17A8E1B0E0E9E9F4E00C94EB
:10093000E41769837A838B839C832D833E834F8363
:10094000588789E0E82EF12CEC0EFD1ECE010196B1
:10095000B70104D28E010F5E1F4FCE010596B8017C
:10096000FDD18985823038F08989823020F0C70135
:10097000B8016CD201C08FEF6896E6E00C940018C5
:10098000ACE0B0E0E6ECF4E00C94E81769837A831D
:100990008B839C83CE010196BE016B5F7F4FDED1BE
:1009A0008D81823061F1823050F1843021F48E816A
:1009B000882351F12EC02F81388537FD20C06E81EC
:1009C0002F3131051CF06623F9F023C08EE190E051
:1009D000821B930B29853A854B855C8504C056950F
:1009E0004795379527958A95D2F76623B1F05095AC
:1009F0004095309521953F4F4F4F5F4F0EC020E0FF
:100A000030E040E050E009C02FEF3FEF4FEF5FE7ED
:100A100004C020E030E040E050E8B901CA012C9663
:100A2000E2E00C940418A8E0B0E0E9E1F5E00C94F1
:100A3000E0177B018C01611571058105910519F4A1
:100A400082E089835FC083E089838EE1C82ED12C48
:100A5000DC82CB82ED82FE820F831887C801B7014A
:100A600059D0FC013197F7FF3BC0222733272E1BBB
:100A70003F0B57016801022E04C0D694C794B79467
:100A8000A7940A94D2F740E050E060E070E081E083
:100A900090E0A0E0B0E004C0880F991FAA1FBB1F20
:100AA0002A95D2F70197A109B1098E219F21A02390
:100AB000B1230097A105B10521F041E050E060E0CD
:100AC00070E04A295B296C297D294D835E836F8301
:100AD00078878EE190E08E1B9F0B9C838B8312C0E6
:100AE000309781F00E2E04C0EE0CFF1C001F111F6A
:100AF0000A94D2F7ED82FE820F831887CE1ADF0A9E
:100B0000DC82CB821A82CE01019653D02896EAE08D
:100B10000C94FC17EF92FF920F931F937B018C01B3
:100B200080E0E81680E0F80681E0080780E018071A
:100B300088F48FEFE816F1040105110531F028F073
:100B400088E090E0A0E0B0E017C080E090E0A0E096
:100B5000B0E012C080E0E81680E0F80680E0080708
:100B600081E0180728F088E190E0A0E0B0E004C040
:100B700080E190E0A0E0B0E020E230E040E050E032
:100B8000281B390B4A0B5B0B04C016950795F7948D
:100B9000E7948A95D2F7F701E55BFE4F8081281B29
:100BA000310941095109C9011F910F91FF90EF903F
:100BB0000895DF92EF92FF920F931F93FC01E48060
:100BC000F58006811781D1808081823048F480E0F1
:100BD00090E0A0E1B0E0E82AF92A0A2B1B2BA5C07F
:100BE000843009F49FC0823021F4EE24FF24870171
:100BF00005C0E114F1040105110519F4E0E0F0E08D
:100C000096C0628173819FEF623879070CF05BC0F8
:100C100022E83FEF261B370B2A3131052CF020E06C
:100C200030E040E050E02AC0B801A701022E04C025
:100C300076956795579547950A94D2F781E090E0AD
:100C4000A0E0B0E004C0880F991FAA1FBB1F2A951F
:100C5000D2F70197A109B1098E219F21A023B123C9
:100C60000097A105B10521F081E090E0A0E0B0E09F
:100C70009A01AB01282B392B4A2B5B2BDA01C901D6
:100C80008F779070A070B07080349105A105B10588
:100C900039F427FF09C0205C3F4F4F4F5F4F04C01E
:100CA000215C3F4F4F4F5F4FE0E0F0E02030A0E08D
:100CB0003A07A0E04A07A0E45A0710F0E1E0F0E0AC
:100CC00079018A0127C06038710564F5FB01E1589C
:100CD000FF4FD801C7018F779070A070B07080343B
:100CE0009105A105B10539F4E7FE0DC080E490E05F
:100CF000A0E0B0E004C08FE390E0A0E0B0E0E80E38
:100D0000F91E0A1F1B1F17FF05C016950795F794BC
:100D1000E794319687E016950795F794E7948A95BE
:100D2000D1F705C0EE24FF248701EFEFF0E06E2F2E
:100D3000679566276795902F9F77D794DD24D79482
:100D40008E2F8695492F462B582F5D29B701CA0152
:100D50001F910F91FF90EF90DF900895FC01DB0150
:100D6000408151812281622F6F7770E0221F2227FC
:100D7000221F9381892F880F822B282F30E0991F03
:100D80009927991F11969C93119721153105A9F563
:100D9000411551056105710511F482E037C082E803
:100DA0009FEF13969C938E9312979A01AB0167E085
:100DB000220F331F441F551F6A95D1F783E08C9390
:100DC0000DC0220F331F441F551F12968D919C9109
:100DD0001397019713969C938E931297203080E07F
:100DE000380780E0480780E4580758F314962D939D
:100DF0003D934D935C93179708952F3F310579F4F8
:100E0000411551056105710519F484E08C9308952D
:100E100064FF03C081E08C9312C01C9210C02F5756
:100E2000304013963C932E93129783E08C9387E087
:100E3000440F551F661F771F8A95D1F7706414966B
:100E40004D935D936D937C93179708951F93DC01E9
:100E5000FB019C91923008F447C08081823008F4F5
:100E600043C0943051F411961C91843099F58181DE
:100E7000682F70E0611B71093FC0843021F092300F
:100E800031F48230B9F18181882389F12DC0119626
:100E90001C9111978230F1F081811817D9F41296C4
:100EA0002D913C911397828193818217930794F03F
:100EB00028173907BCF014968D919D910D90BC9127
:100EC000A02D2481358146815781281739074A078B
:100ED0005B0718F4112341F00AC082179307A40797
:100EE000B50740F4112319F061E070E005C06FEF21
:100EF0007FEF02C060E070E0CB011F910895CF93B7
:100F0000DF93FC0182819381A481B581EB01888309
:100F1000292F3A2F4B2F552729839D0144275527E9
:100F20002A838B2F9927AA27BB278B8386819781BA
:100F3000A085B1858C83292F3A2F4B2F55272D83E0
:100F40009D01442755272E838B2F9927AA27BB273E
:100F50008F8388E090E0DF91CF9108950F931F93E6
:100F60008C01FB01218130E040E050E0542F432F01
:100F7000322F2227828190E0A0E0B0E0DC019927A7
:100F80008827282B392B4A2B5B2B808190E0A0E00F
:100F9000B0E0282B392B4A2B5B2B838190E0A0E01B
:100FA000B0E0B82FAA2799278827282B392B4A2B5E
:100FB0005B2BD80112962C93129713963C931397A0
:100FC00014964C93149715965C93258130E040E07D
:100FD00050E0542F432F322F2227868190E0A0E04B
:100FE000B0E0DC0199278827282B392B4A2B5B2B73
:100FF000848190E0A0E0B0E0282B392B4A2B5B2BBA
:10100000878190E0A0E0B0E0B82FAA279927882731
:10101000282B392B4A2B5B2BF801268337834087FB
:10102000518788E090E01F910F91089580E091E052
:1010300008956F927F928F929F92AF92BF92CF92BC
:10104000DF92EF92FF920F931F93CF93DF933C01B8
:10105000EB01398120E0888190E0822B932BD30132
:1010600012968C93129713969C93CA80DB80EC8027
:10107000FD80970186010A5F1F4F2F4F3F4F0730BA
:1010800011052105310590F046E050E0FE01E40F26
:10109000F51F8081319780834F5F5F4FCA01A0E0C9
:1010A000B0E080179107A207B30780F3F6013696E8
:1010B000EC0FFD1F129231962596D3011596DC9305
:1010C000CE931497259780809180A280B38086016B
:1010D000065F1F4FA801662757FD6095762F480DC4
:1010E000591D6A1D7B1DC801A0E0B0E0841795075B
:1010F000A607B70788F49801FE01E20FF31F80816D
:10110000319780832F5F3F4FC901A0E0B0E0841783
:101110009507A607B70780F39801280D391DFE0132
:10112000E20FF31F31971082015010400C0F1D1F6A
:10113000F30117830683C901DF91CF911F910F91AE
:10114000FF90EF90DF90CF90BF90AF909F908F90E7
:101150007F906F9008958EE091E008958BE792E084
:101160000895FC0182819381A481B581FB01808374
:10117000292F3A2F4B2F552721839D01442755278F
:1011800022838B2F9927AA27BB27838384E090E0B3
:101190000895EF92FF920F931F93FB01E180FF24CC
:1011A00000E010E0102F0F2DFE2CEE24228130E005
:1011B00040E050E0A90133272227E22AF32A042B3A
:1011C000152B208130E040E050E0E22AF32A042B86
:1011D000152B238130E040E050E0522F4427332785
:1011E0002227E22AF32A042B152B9701A801FC01E0
:1011F000228333834483558384E090E01F910F91D1
:10120000FF90EF90089587E291E00895CF92DF92EA
:10121000EF92FF920F931F93CF93DF938C01F62EE3
:10122000DA01FC018481882361F4EE24FF24C701E4
:10123000DF91CF911F910F91FF90EF90DF90CF90B2
:101240000895ED91FC91B801655F7F4F0190F081A9
:10125000E02DCA010995DC018FEFF80185838683B3
:10126000F7821086A1871286BD016B5F7F4F6230C7
:1012700071058CF040E050E022E030E0F801E20F30
:10128000F31F8581480F511D2F5F3F4F6217730772
:10129000ACF7842F8095F801EA0FFB1F838787E066
:1012A000E82EF12CEA0EFB1ED8011296CD90DC90B0
:1012B00013971E141F040CF0BACFC0E0D0E0F60163
:1012C000A081B181ED91FC91119798012C0F3D1FE8
:1012D0000190F081E02DCD01D90115966C91099511
:1012E0002196CE15DF055CF3A2CF85E592E09093C1
:1012F000B5028093B40288ED96E09093B702809394
:10130000B60280E091EEA0E0B0E08093B802909346
:10131000B902A093BA02B093BB028FE692E0909319
:10132000BD028093BC0286EB92E09093BF02809353
:10133000BE021092C00285E792E090937B058093F5
:101340007A058BE992E09093900580938F058BE36B
:1013500091E090939605809395058FE895E09093A2
:101360009805809397050895AF92BF92CF92DF9230
:10137000EF92FF920F931F936C017B01DC01129699
:101380008C91129713969C911397FB018083918304
:1013900014966C91149715967C91FB01DF010D90CA
:1013A0000020E9F79D01215030402E1B3F0BC90161
:1013B000A0E0B0E0F70182839383A483B583A70103
:1013C0004A5F5F4FCA01A9010E94E119D701129635
:1013D0000D911C9113970A5F1F4F5701A00EB11E6C
:1013E000F60166817781FB01DF010D900020E9F7AE
:1013F0009D01215030402E1B3F0BC901A0E0B0E001
:10140000F50180839183A283B3830C5F1F4FE00EAD
:10141000F11EC701A9010E94E119D5012D913C914E
:10142000200F311FC9011F910F91FF90EF90DF90A6
:10143000CF90BF90AF900895BF92CF92DF92EF927E
:10144000FF920F931F93CF93DF936C01EB01DC01AD
:1014500012968C911297888319821A821B82129697
:101460008C91882309F4DDC064E070E000E0802FF7
:1014700090E0880F991F880F991FD6011796ED915C
:10148000FC911897E80FF91F80819181A281B381A7
:10149000FE01E60FF71F8083292F3A2F4B2F552788
:1014A00021839D014427552722838B2F9927AA2723
:1014B000BB2783836C5F7F4F0F5FF6018281081724
:1014C000B0F2AB019B012F5F3F4FD90111967D0117
:1014D0000894E11CF11CB7016F5F7F4F8B014C0F2B
:1014E0005D1FF6018185FA0180832C0F3D1FF901F4
:1014F0001082AC0FBD1F1C92EC0EFD1ED7011C927A
:10150000F6018185882361F100E0802F90E0880F4B
:10151000991F880F991FD6011E96ED91FC911F9778
:10152000E80FF91F80819181A281B381FE01E60F4E
:10153000F71F8083292F3A2F4B2F552721839D0199
:101540004427552722838B2F9927AA27BB278383DC
:101550006C5F7F4F0F5FF60181850817B0F28B013A
:101560000C0F1D1FD60150968C915097F801808367
:10157000CB010196FE01E80FF91F10820196FE01D2
:10158000E80FF91F10820196FE01E80FF91F108283
:10159000AC014F5F5F4F50968C918823B9F1BB240B
:1015A0007E01E40EF51E8B2D90E0880F991FD60169
:1015B0005396ED91FC915497E80FF91F608171816A
:1015C000FB01DF010D900020E9F79D012150304023
:1015D0002E1B3F0BC901A0E0B0E0F701808391838F
:1015E000A283B3838A010C5F1F4FAE01400F511FCE
:1015F000CA01A9010E94E119D7014D915C91400FE8
:10160000511FB394F6018089B81650F2CA01DF91D8
:10161000CF911F910F91FF90EF90DF90CF90BF90EF
:10162000089544E050E025E030E0A6E0B0E067E057
:10163000E62EF12C68E070E008E010E050CF6F92E9
:101640007F929F92AF92BF92CF92DF92EF92FF92E2
:101650000F931F93CF93DF936C015B01DB011C9110
:10166000FC018281811708F43BC1F601128311232A
:1016700009F44BC164E070E010E0E6012396F50147
:10168000E60FF71F218130E040E050E0542F432F58
:10169000322F2227828190E0A0E0B0E0DC01992780
:1016A0008827282B392B4A2B5B2B808190E0A0E0E8
:1016B000B0E0282B392B4A2B5B2B838190E0A0E0F4
:1016C000B0E0B82FAA2799278827282B392B4A2B37
:1016D0005B2BD60113962C93139714963C93149777
:1016E00015964C93159716965C9316976C5F7F4FE3
:1016F000812F90E0880F991F880F991F1796ED9101
:10170000FC911897E80FF91F88819981AA81BB8104
:1017100080839183A283B3831F5FF60182811817B0
:1017200008F4ADCFFB01EB0124968E01EA0DFB1D01
:10173000F080D60119968C9119978F1508F4FBC08B
:10174000D6011996FC92FF2009F453C010E0EAE09C
:10175000EE2EF12CEC0CFD1CF501EC0FFD1F218190
:1017600030E040E050E0542F432F322F2227828177
:1017700090E0A0E0B0E0DC0199278827282B392BE6
:101780004A2B5B2B808190E0A0E0B0E0282B392B26
:101790004A2B5B2B838190E0A0E0B0E0B82FAA2712
:1017A00099278827282B392B4A2B5B2BC901DA0173
:1017B000F60182879387A487B5872496812F90E0CE
:1017C000880F991F880F991F0684F785E02DE80F71
:1017D000F91FD7012D913D914D915C91208331836B
:1017E000428353831F5FF6018185181708F4B4CF35
:1017F0008E010A0D1B1DD8011C91F60180898117ED
:1018000008F48AC09E012C5F3F4FF601108B112314
:1018100009F457C09924E1E16E2E712C6C0C7D1CEB
:10182000F501E20FF31FE080F18002811381E901ED
:101830002496AE01662757FD6095762F4E0D5F1DED
:10184000601F711FCE01A0E0B0E084179507A607C6
:10185000B70788F49E01F501E20FF31F80813197ED
:1018600080832F5F3F4FC901A0E0B0E08417950748
:10187000A607B70780F3CE018E0D9F1DF501E80F77
:10188000F91F319710822197CA0DDB1DD6015296A0
:10189000DC93CE9351979C01892D90E0880F991F7E
:1018A0005396ED91FC915497E80FF91FD3018D9158
:1018B0009C91918380839394F6018089981608F413
:1018C000AFCFC901DF91CF911F910F91FF90EF90A2
:1018D000DF90CF90BF90AF909F907F906F900895D2
:1018E000612F70E0660F771F660F771F87819085E5
:1018F0000E941A19D60117968C93179718969C93E5
:10190000F6011283112309F0B5CEE4E0F0E0C8E05F
:10191000D0E008E010E00ACF612F70E0660F771F7B
:10192000838994890E941A19D60153968C935397F0
:1019300054969C9367CF6F2D70E0660F771F660FEC
:10194000771F1E968D919C911F970E941A19F60180
:1019500086879787F5CE87EE95E014D64091B8023A
:101960005091B9026091BA027091BB028091B602A7
:101970009091B7020E940A151092620510926105BB
:101980001092640510926305109268051092670525
:10199000109266051092650510926C0510926B0509
:1019A00020E030E005C02F5F3F4F29313105D4F4EE
:1019B000F901EE0FFF1FE350FB4F80819181892BCE
:1019C00091F785E995E09183808323583F4F3093C9
:1019D0009A05209399058CEB92E090939C05809357
:1019E0009B05089508958F929F92AF92BF92CF92D8
:1019F000DF92EF92FF920F931F93DF93CF93CDB7B8
:101A0000DEB72A970FB6F894DEBF0FBECDBF4C01EC
:101A100085E692E09A8389831B821C821D821E8246
:101A20001F82188619861A86D4011C968C918823E9
:101A3000F9F40E946316E5E2F1E08E0E9F1ED401D8
:101A40006D937D938D939C9313972A960FB6F8947C
:101A5000DEBF0FBECDBFCF91DF911F910F91FF90E1
:101A6000EF90DF90CF90BF90AF909F908F900895B0
:101A700068E0A62EB12CA80CB91CB4016D5E7F4F96
:101A8000E0916502F0916602CE0101960995DC01B4
:101A90008FEFF401858786878AE08787108AA18B7C
:101AA000128ABD016B5F7F4F62307105D4F122E075
:101AB00030E040E050E0F501E20FF31F8581480F70
:101AC000511D2F5F3F4F62177307ACF7842F80952E
:101AD00056E0E52EF12CEA0EFB1EF401EE0DFF1D83
:101AE0008587D4011A96CD90DC901B97F7FCA1CF87
:101AF00000E010E0F601A081B181ED91FC91119719
:101B00009501200F311F0190F081E02DCD01D90109
:101B100015966C9109950F5F1F4FE016F10654F76B
:101B200088CF8FEFD5CF2F923F924F925F926F92D7
:101B30007F928F929F92AF92BF92CF92DF92EF925D
:101B4000FF920F931F93DF93CF93CDB7DEB76897C4
:101B50000FB6F894DEBF0FBECDBF2C010E946316F6
:101B60006B8B7C8B8D8B9E8B920123543D4F388FDA
:101B70002F8BF90180819181A281B3812B893C89CE
:101B80004D895E89281B390B4A0B5B0BDA01C901B1
:101B9000895F9A42A040B04018F0D2011C961C9276
:101BA0007DEA272E72E0372E240C351CF10180814E
:101BB0009181892BB9F021EC32E0420E531EF201E3
:101BC00080819181A281B3812FE33DEF420E531EAC
:101BD0002B893C894D895E8982179307A407B50735
:101BE00008F497C0D2011296ED91FC911397A08151
:101BF000B18118962D913C911997CF01F901099562
:101C00009C0197FDB2C0F201EB54FD4F80819181A0
:101C1000820F931F91838083D1014D915C91463057
:101C2000510509F47AC04115510539F52F3F3105A9
:101C3000C9F681E090E0D1018D939C93E1ECF2E054
:101C40004E0E5F1E2B893C894D895E892C5E3F4F6D
:101C50004F4F5F4FD2012D933D934D935C9313975C
:101C6000EFE3FDEF4E0E5F1E2451304040405040E8
:101C70002B8B3C8B4D8B5E8BB5CF4130510509F4DE
:101C80006CC04230510509F423C14330510509F4B9
:101C900032C14430510509F43FC14530510509F4C2
:101CA00059C14730510509F09DCF60E071E00E94B5
:101CB00088178F3F910569F521EB32E0420E531EE4
:101CC000D201ED91FC912FE43DEF420E531E30976F
:101CD00009F458C1EA30F10509F48BC2E430F1058A
:101CE00009F42DC3E456F040EE0FFF1FE40DF51D7F
:101CF000E558FD4FA081B181109759F0ED91FC910D
:101D00001197B2016F5C7E4F0190F081E02DCD0103
:101D10000995D1011D921C9265CFD201AD54BD4FE2
:101D20008D919C911197F201E80FF91FEF5CFE4F26
:101D3000208301968D939C93F201E155FD4F8081A4
:101D40009181019791838083892B09F04BCF87E0A4
:101D500090E0F1019183808345CF2F3F310509F455
:101D6000F3C0F101118210823DCFF20184858823F6
:101D700009F495C0F9EB8F2EF2E09F2E840C951C90
:101D8000F40180819181A281B3812B893C894D89A5
:101D90005E89281B390B4A0B5B0BDA01C901855C94
:101DA0009940A040B04008F47AC085E692E09A8756
:101DB00089871B861C861D861E861F86188A198A9F
:101DC0001A8AE8E0AE2EB12CA40CB51CB2016D5EEF
:101DD0007F4FE0916502F0916602CE010996099568
:101DE000DC018FEFF201858786878AE08787108A7A
:101DF000A18B128ABD016B5F7F4F623071050CF4BD
:101E0000B5C222E030E040E050E0F501E20FF31F00
:101E10008581480F511D2F5F3F4F62177307ACF745
:101E2000842F809576E0E72EF12CEA0EFB1EF2015E
:101E3000EE0DFF1D8587D2011A96CD90DC901B9781
:101E4000F7FC18C000E010E0F601A081B181ED912F
:101E5000FC9111979501200F311F0190F081E02D29
:101E6000CD01D90115966C9109950F5F1F4FE016B2
:101E7000F10654F728D7E5E2F1E04E0E5F1ED201DD
:101E80006D937D938D939C9313972B893C894D89FA
:101E90005E89D4012D933D934D935C93139768967F
:101EA0000FB6F894DEBF0FBECDBFCF91DF911F916B
:101EB0000F91FF90EF90DF90CF90BF90AF909F90E9
:101EC0008F907F906F905F904F903F902F900895EC
:101ED00041EB52E0440E551ED2012D933C934FE44A
:101EE0005DEF440E551E83E090E0D1018D939C93ED
:101EF0003183208377CEF201EF54FD4F922F882754
:101F000020813181820F931F9183808384E090E050
:101F1000F1019183808366CE4FEA52E0440E551E54
:101F2000D2012D933C93E4E0F0E04E0E5F1ED2010F
:101F30001D921C92EDE4FDEF4E0E5F1E85E090E0D9
:101F4000D1018D939C934ECE82E090E0D1018D9390
:101F50009C9348CEF201E155FD4F322F222780811C
:101F60009181280F391F3183208386E090E0F101B1
:101F700091838083232B09F035CE87E090E0918315
:101F8000808330CEC2012FDD81E0D2011C968C937C
:101F90008BE592E09A8389838824992408C0089469
:101FA000811C911CB9E18B1691040CF07DC0F401E9
:101FB000EE0FFF1FE40DF51DE75BFD4F0190F08173
:101FC000E02D309761F3848195819C838B838081A0
:101FD00091819E838D83A281B381ED91FC911197B4
:101FE0000480F581E02DCD01099598878F83F2015A
:101FF00084858823A1F238E0A32EB12CA40CB51C53
:10200000E981FA81B2016D5E7F4F0190F081E02D90
:10201000CE0101960995DC018FEFF2018587868755
:102020001786108AA18B128ABD016B5F7F4F6230C9
:1020300071058CF022E030E040E050E0F501E20F65
:10204000F31F8581480F511D2F5F3F4F62177307A4
:10205000ACF7842F809526E0E22EF12CEA0EFB1ED1
:10206000F201EE0DFF1D8587D2011A96CD90DC900E
:102070001B97F7FC94CF00E010E0F601A081B1813E
:10208000ED91FC9111979501200F311F0190F08186
:10209000E02DCD01D90115966C9109950F5F1F4F69
:1020A000E016F10654F77BCF8824992408C00894E1
:1020B000811C911CB9E18B1691040CF080C0F401D5
:1020C000EE0FFF1FE40DF51DE558FD4FA081B18116
:1020D000109769F312968D919C9113979C838B8333
:1020E00014968D919C9115979E838D83ED91FC9113
:1020F00011970480F581E02DCD01099598878F8394
:10210000F2018485882399F288E0A82EB12CA40CD2
:10211000B51CE981FA81B2016D5E7F4F0190F081BB
:10212000E02DCE0101960995DC018FEFF201858744
:10213000868781E08787108AA18B128ABD016B5F39
:102140007F4F623071050CF40FC122E030E040E0B7
:1021500050E0F501E20FF31F8581480F511D2F5FFD
:102160003F4F62177307ACF7842F809506E0E02E8F
:10217000F12CEA0EFB1EF201EE0DFF1D8587D20148
:102180001A96CD90DC901B97F7FC91CF00E010E001
:10219000F601A081B181ED91FC9111979501200F7D
:1021A000311F0190F081E02DCD01D90115966C9180
:1021B00009950F5F1F4FE016F10654F778CFE9EB52
:1021C000F2E04E0E5F1E2B893C894D895E89D2015B
:1021D0002D933D934D935C931397E7E4FDEF4E0EE3
:1021E0005F1EAF89B88D2D933D934D935C931397EC
:1021F00090CD85E692E09A8789871B861C861D868E
:102200001E861F86188A198A1A8A5DD57B018C0161
:10221000E5E2F1E04E0E5F1EF20180819181A28124
:10222000B3812BED3EEF420E531EE81AF90A0A0B5A
:102230001B0BB2016F5C7E4FCE0109960E94AE0768
:10224000C801B70128EE33E040E050E074D68B853A
:102250009C85AD85BE85820F931FA41FB51F8B87FC
:102260009C87AD87BE87C801B70128EE33E040E008
:1022700050E061D620E432E44FE050E016D62F85DE
:10228000388949895A89260F371F481F591F2F87B8
:10229000388B498B5A8B17D55B016C0119E2612E83
:1022A00011E0712E640C751CEB84FC840D851E8579
:1022B0000894E108F1080109110928EE33E040E033
:1022C00050E039D6E21AF30A040B150BD301ED9254
:1022D000FD920D931C931397BDE28B2EB1E09B2EC4
:1022E000840C951CEF84F88809891A8920E03AEC5F
:1022F0004AE95BE3E20EF31E041F151FC601B50198
:1023000028EE33E040E050E016D620E432E44FE01F
:1023100050E0CBD5E61AF70A080B190BD401ED9261
:10232000FD920D931C931397C301B401C2D0CBD47B
:10233000EF89F88D6083718382839383EACCC20135
:102340008A539D4F21E331E0420E531EB20177D9EB
:1023500044E951E0440E551E81E0D2018C93EBE339
:10236000FDEF4E0E5F1ED5CC8FEF00CF8FEF5ACD15
:10237000EF92FF920F931F9387EE95E060E670E077
:10238000D0D087EE95E062E070E011D187EE95E065
:10239000EAD087EE95E060E670E042E050E0FBD0E6
:1023A00087EE95E0C8D0823008F478C087EE95E0DB
:1023B000C8D0F82EEE2487EE95E0C3D090E0E82A4E
:1023C000F92A00E010E0C801B7010E9413052DECC6
:1023D0003CEC4CE45EE30E94F3027B018C016091D3
:1023E0009D0570919E0580E090E00E9413052DEC04
:1023F0003CEC4CE45FE30E94F302A80197010E94C9
:10240000CA020E9429019B0170939E0560939D055D
:1024100080919F059091A00501969093A0058093CF
:102420009F0565E070E060D5892B59F51092A005F5
:1024300010929F05B90180E090E00E94130520E012
:1024400030E040E251E40E94EA036093910570930A
:1024500092058093930590939405A0919B05B0916C
:102460009C05ED91FC9111976091990570919A05E9
:1024700040919705509198050190F081E02DCD0194
:10248000099564E170E080E090E02BD484EB92E069
:102490004ADB1F910F91FF90EF9008950F2EF0E00F
:1024A000EF2EF0E0FF2EF0E00F2FF0E01F2FF02DC9
:1024B00096CFAF92BF92CF92DF92EF92FF920F939F
:1024C0001F936C015B01FB01E080F18002811381AD
:1024D000C801B70120E03AEC4AE95BE32CD5F601EC
:1024E00080819181A281B381820F931FA41FB51FA8
:1024F00080839183A283B383C801B70120E03AECC3
:102500004AE95BE318D5F501608371838283938385
:102510001F910F91FF90EF90DF90CF90BF90AF9001
:10252000089581E08093E6056093C3051092E40569
:102530001092E50508958091C2059091C105891B0F
:1025400008959091C1058091C205981748F4E92F2C
:10255000F0E0EF55FA4F80819F5F9093C105089599
:1025600080E0089508958091C30564EC75E0409182
:10257000E50521E092D01092E4051092E505109255
:10258000E60508951092C1051092C2051092E40567
:102590001092E50536C0413208F040E2862F61EA2C
:1025A00075E042D01092C1058093C2050895DF9373
:1025B000CF930F92CDB7DEB78091E6058823C1F0A7
:1025C0008091E505803220F00F90CF91DF91089542
:1025D0008091E405E82FF0E0EC53FA4F60838F5FC1
:1025E0008093E4058093E5050F90CF91DF910895E6
:1025F0006983CE01019661E095D00F90CF91DF9174
:1026000008951092E805449A459AE9EBF0E080813C
:102610008E7F808380818D7F808388E48093B80063
:1026200085E48093BC000895982F413298F58091FD
:10263000E8058823E1F781E08093E8058FEF809338
:10264000530610920E06415040930F064F5F990FAC
:1026500091609093E90585EE8093BC008091E80538
:102660008130E1F380910E06841788F0442369F0ED
:1026700090E0E92FF0E0DB01AE0FBF1FE251FA4F0F
:1026800080818C939F5F9417A0F3842F08954091CD
:102690000E06ECCF40E0842F0895982F4132D0F5FC
:1026A0008091E8058823E1F782E08093E8058FEFC9
:1026B0008093530610920E0640930F06442369F050
:1026C00030E0E32FF0E0DB01AE0FBF1F8C91E25151
:1026D000FA4F80833F5F3417A0F3892F90E0880F73
:1026E000991F8093E90585EE8093BC00222321F099
:1026F0008091E8058230E1F3809153068F3F61F0CD
:1027000080915306803251F080915306803341F01E
:1027100084E0089581E0089580E0089582E00895BE
:1027200083E00895AC016132C8F48091E8058430FB
:1027300011F082E0089560933106662369F020E08D
:10274000E22FF0E0DA01AE0FBF1F8C91E05FF94F8E
:1027500080832F5F2617A0F380E0089581E008951D
:102760001F920F920FB60F9211242F933F934F9306
:102770005F936F937F938F939F93AF93BF93EF93E9
:10278000FF938091B90090E0A0E0B0E0887F907066
:10279000A070B070FC01893C910590F5EC5CFF4F96
:1027A000EE0FFF1F0590F491E02D099484E08093D3
:1027B000E8051092300610923106E091EA05F0919A
:1027C000EB05099580913106882329F481E08093F7
:1027D00031061092100690913006E92FF0E0E05F8C
:1027E000F94F80818093BB009F5F9093300690915A
:1027F0003006809131069817C8F485EC8093BC00B0
:10280000FF91EF91BF91AF919F918F917F916F91C8
:102810005F914F913F912F910F900FBE0F901F909E
:10282000189580915206803208F49CC085E8809308
:10283000BC00E6CF80910E069091BB00E82FF0E03F
:10284000E251FA4F90838F5F80930E0690910E06AF
:1028500080910F06981750F7D0CF80910E06909177
:10286000BB00E82FF0E0E251FA4F90838F5F809336
:102870000E0685ED8093BC008091BC0084FDFCCFEA
:102880001092E805BDCF85EC8093BC001092E8055E
:10289000B7CF83E08093E8051092520685EC8093D1
:1028A000BC00AECF1092530685ED8093BC008091A2
:1028B000BC0084FDFCCFE4CF8091E9058093BB0090
:1028C00085EC8093BC009CCF90910E0680910F0602
:1028D000981708F45EC085ED8093BC008091BC0021
:1028E00084FDFCCFCDCF80E28093530685ED8093AD
:1028F000BC008091BC0084FDFCCFC2CF8091520609
:10290000803208F43FC085ED8093BC008091BC000C
:1029100084FDFCCF1092E80560915206E091EC0531
:10292000F091ED0582E396E070E009951092520671
:1029300085EC8093BC001092E80562CF80E3809321
:10294000530685ED8093BC008091BC0084FDFCCFD4
:1029500097CF88E38093530685EC8093BC00109258
:10296000E8054ECF809152069091BB00E82FF0E031
:10297000EE5CF94F90838F5F8093520685EC8093D5
:10298000BC003ECFE0915206F0E0EE5CF94F1082C1
:10299000BACF90910E06E92FF0E0E251FA4F808114
:1029A0008093BB009F5F90930E0685EC8093BC00E4
:1029B00027CF1F920F920FB60F9211242F933F93A0
:1029C0004F938F939F93EF93FF934091C600E091B5
:1029D000D406F091D50631969F012F77307031974C
:1029E0008091D6069091D7062817390739F0EC5A0E
:1029F000F94F40833093D5062093D406FF91EF9191
:102A00009F918F914F913F912F910F900FBE0F90FB
:102A10001F901895CF93DF93EC019A01AB01203002
:102A200081EE380780E0480780E0580709F449C084
:102A3000E885F98581E090E00A8802C0880F991F37
:102A40000A94E2F7808360E079E08DE390E095D22C
:102A50002150304040405040CA01B90122E030E0EE
:102A600040E050E08AD2EC81FD813083EE81FF812D
:102A70002083EA85FB85208141E050E0CA010E8475
:102A800002C0880F991F0A94E2F7282B2083EA8559
:102A9000FB852081CA010F8402C0880F991F0A9408
:102AA000E2F7282B2083EA85FB858081088802C015
:102AB000440F551F0A94E2F7842B8083DF91CF9156
:102AC0000895E885F985108230E020E1CCCFDC0163
:102AD0001296ED91FC911397E058FF4F219131919F
:102AE00080819181281B390B2F773070C90108959F
:102AF000DC011296ED91FC911397EE57FF4F208168
:102B0000318192918291E058F0408217930739F019
:102B1000E20FF31F8081282F30E0C90108952FEFC5
:102B20003FEFC9010895DC011296ED91FC911397D6
:102B3000DF01AE57BF4F2D913C911197E058FF4FE9
:102B400080819181E058F0408217930769F0E20F8D
:102B5000F31F80812F5F3F4F2F7730702D933C9371
:102B6000282F30E0C90108952FEF3FEFC9010895E4
:102B7000DC011296ED91FC911397EE57FF4F808187
:102B80009181929382930895DC011896ED91FC91C6
:102B9000199751962C915197808190E0022E02C096
:102BA000959587950A94E2F780FFF6CF1C96ED91F4
:102BB000FC911D976083089585EA92E09093D90671
:102BC0008093D80684E596E09093DB068093DA063E
:102BD00085EC90E09093DD068093DC0684EC90E039
:102BE0009093DF068093DE0680EC90E09093E10600
:102BF0008093E00681EC90E09093E3068093E206F8
:102C000086EC90E09093E5068093E40684E0809360
:102C1000E60683E08093E70687E08093E80685E098
:102C20008093E90681E08093EA060895C4D00E946B
:102C3000AB0C9EDBFECF1F920F920FB60F921124AA
:102C40002F933F938F939F93AF93BF938091EF0602
:102C50009091F006A091F106B091F2063091F30642
:102C60000196A11DB11D232F2D5F2D3720F02D576B
:102C70000196A11DB11D2093F3068093EF0690935A
:102C8000F006A093F106B093F2068091EB069091C6
:102C9000EC06A091ED06B091EE060196A11DB11DC6
:102CA0008093EB069093EC06A093ED06B093EE06AE
:102CB000BF91AF919F918F913F912F910F900FBE38
:102CC0000F901F9018958FB7F8942091EF063091D0
:102CD000F0064091F1065091F2068FBFB901CA018A
:102CE0000895EF92FF920F931F937B018C012FB7F2
:102CF000F8948091EB069091EC06A091ED06B091CE
:102D0000EE0636B5A89B05C03F3F19F00196A11D00
:102D1000B11D2FBFE114F1040105110509F446C0EE
:102D2000BA2FA92F982F8827830F911DA11DB11DA0
:102D3000880F991FAA1FBB1F880F991FAA1FBB1FAF
:102D4000AC013FB7F8948091EB069091EC06A0910E
:102D5000ED06B091EE0626B5A89B05C02F3F19F0F1
:102D60000196A11DB11D3FBFBA2FA92F982F88270B
:102D7000820F911DA11DB11D880F991FAA1FBB1F96
:102D8000880F991FAA1FBB1F841B950B885E934059
:102D9000C0F20894E108F10801091109E114F104F5
:102DA0000105110519F048515C4FCBCF1F910F91D0
:102DB000FF90EF900895789484B5826084BD84B5C7
:102DC000816084BD85B5826085BD85B5816085BD26
:102DD000EEE6F0E0808181608083E1E8F0E010823F
:102DE000808182608083808181608083E0E8F0E080
:102DF000808181608083E1EBF0E08081846080836A
:102E0000E0EBF0E0808181608083EAE7F0E08081A0
:102E10008460808380818260808380818160808300
:102E20008081806880831092C10008950F931F9362
:102E3000CF93DF938C01EB016881662361F02196CB
:102E4000D801ED91FC910190F081E02DC801099528
:102E500068816623A1F7DF91CF911F910F910895AB
:102E6000EF92FF920F931F93CF93DF938C017B011F
:102E70004115510599F0EA01219701C0EC01D701F4
:102E80006D917D01D801ED91FC910190F081E02DD3
:102E9000C8010995CE010197CD2B81F7DF91CF9124
:102EA0001F910F91FF90EF900895629FD001739F43
:102EB000F001829FE00DF11D649FE00DF11D929FD6
:102EC000F00D839FF00D749FF00D659FF00D992715
:102ED000729FB00DE11DF91F639FB00DE11DF91F39
:102EE000BD01CF0111240895AA1BBB1B51E107C0EE
:102EF000AA1FBB1FA617B70710F0A61BB70B881F8A
:102F0000991F5A95A9F780959095BC01CD01089518
:102F100097FB092E07260AD077FD04D0E5DF06D0FF
:102F200000201AF4709561957F4F0895F6F79095FB
:102F300081959F4F0895A1E21A2EAA1BBB1BFD018C
:102F40000DC0AA1FBB1FEE1FFF1FA217B307E40788
:102F5000F50720F0A21BB30BE40BF50B661F771FE0
:102F6000881F991F1A9469F76095709580959095C0
:102F70009B01AC01BD01CF01089597FB092E0526E9
:102F80000ED057FD04D0D7DF0AD0001C38F450957E
:102F90004095309521953F4F4F4F5F4F0895F6F77D
:102FA00090958095709561957F4F8F4F9F4F0895B5
:102FB0002F923F924F925F926F927F928F929F9249
:102FC000AF92BF92CF92DF92EF92FF920F931F9337
:102FD000CF93DF93CDB7DEB7CA1BDB0B0FB6F894E8
:102FE000DEBF0FBECDBF09942A88398848885F8428
:102FF0006E847D848C849B84AA84B984C884DF8099
:10300000EE80FD800C811B81AA81B981CE0FD11D7C
:103010000FB6F894DEBF0FBECDBFED010895EE0FE1
:10302000FF1F0590F491E02D0994CF93DF93BC012D
:103030008230910510F462E070E0A091F606B09144
:10304000F706ED01E0E0F0E040E050E021C08881CB
:1030500099818617970769F48A819B81309719F0C7
:103060009383828304C09093F7068093F606FE0153
:1030700034C06817790738F44115510519F08417E1
:10308000950708F4AC01FE018A819B819C01E9014E
:103090002097E9F641155105A9F1CA01861B970B46
:1030A000049708F4BA01E0E0F0E02AC08D919C9109
:1030B000119784179507F9F46417750781F4129630
:1030C0008D919C911397309719F09383828304C05C
:1030D0009093F7068093F606FD0132964FC0CA0121
:1030E000861B970BFD01E80FF91F619371930297FF
:1030F0008D939C9343C0FD01828193819C01D901F2
:103100001097A1F68091F4069091F506892B41F471
:1031100080914D0290914E029093F5068093F406B3
:1031200040914F02509150024115510541F44DB765
:103130005EB780914B0290914C02481B590B209135
:10314000F4063091F50624173507B0F4CA01821B46
:10315000930B8617970780F0AB014E5F5F4F841784
:10316000950750F0420F531F5093F5064093F40615
:10317000F9016193719302C0E0E0F0E0CF01DF91CB
:10318000CF910895CF93DF93009709F450C0EC01DD
:1031900022971B821A82A091F606B091F70610972B
:1031A00009F140E050E0AC17BD0708F1BB83AA83EA
:1031B000FE0121913191E20FF31FAE17BF0779F4A1
:1031C0008D919C911197280F391F2E5F3F4F3983A6
:1031D000288312968D919C9113979B838A83411526
:1031E000510571F4D093F706C093F60620C01296ED
:1031F0008D919C911397AD01009711F0DC01D3CF15
:10320000FA01D383C28321913191E20FF31FCE17CC
:10321000DF0769F488819981280F391F2E5F3F4F9E
:10322000FA01318320838A819B8193838283DF919A
:10323000CF910895A0E0B0E0EFE1F9E1BFCE8C01BD
:10324000009721F4CB01F1DE8C01B6C09EEFE92E90
:103250009FEFF92EE00EF11E5801A60EB71EAE1418
:10326000BF0408F4A7C08EEF882E8FEF982E8A0C2B
:103270009B1CE7014881598146175707B0F045303C
:10328000510508F499C0CA0104978617970708F4F6
:1032900093C042505040461B570BF401518340836A
:1032A00079836883C5016EDF87C06B01C41AD50AB4
:1032B000E091F606F091F706A0E0B0E0C0E0D0E0C3
:1032C00042C0E815F905A1F5208131812C153D0595
:1032D00078F1C90102968C159D05A8F04E5F5F4FED
:1032E000420F531FE701598348832281338110978E
:1032F00029F013963C932E9312975EC03093F706F5
:103300002093F60659C0225030402C193D093183D4
:103310002083109729F01396FC93EE93129704C024
:10332000F093F706E093F606F7017183608344C0DB
:1033300080819181C817D90708F4EC01DF018281EF
:1033400093819C01F901309709F0BBCF400F511FC9
:103350008091F4069091F50684179507E9F4C61755
:10336000D707D0F420914F0230915002211531053A
:1033700041F42DB73EB780914B0290914C02281B2F
:10338000390BA216B306B0F4B092F506A092F4067B
:10339000E7017983688310C0CB0147DEEC01009719
:1033A00049F0F70140815181B8010BD0C801EADE34
:1033B0008E0102C000E010E0C801CDB7DEB7ECE03E
:1033C00019CEFB01DC0102C001900D92415050402A
:0833D000D8F70895F894FFCF2F
:1033D8007374645F6D7367732F54696D6500726FE2
:1033E8007373657269616C5F6D7367732F546F7067
:1033F8006963496E666F00636F6D706173735F6DAB
:1034080073672F436F6D7061737300636F6D7061C5
:1034180073730000000000000000000001020203B6
:103428000303030404040404040404050505050552
:10343800050505050505050505050506060606062F
:103448000606060606060606060606060606060614
:1034580006060606060606060606060707070707FF
:1034680007070707070707070707070707070707E4
:1034780007070707070707070707070707070707D4
:1034880007070707070707070707070707070707C4
:1034980007070707070707070707070808080808AF
:1034A8000808080808080808080808080808080894
:1034B8000808080808080808080808080808080884
:1034C8000808080808080808080808080808080874
:1034D8000808080808080808080808080808080864
:1034E8000808080808080808080808080808080854
:1034F8000808080808080808080808080808080844
:103508000808080808080808080808080808080833
:1035180008080808080808080808082000F806002D
:103528000000000000930D00000000B4091908AB6A
:1035380008000000007F07AE07160800000000061C
:1035480009000000001C0A1F0BAE08726F73736538
:103558007269616C5F6D7367732F526571756573FE
:1035680074506172616D0000000000B108C9080361
:103578000900000000C41516173017671593157851
:0435880015B815005D
:00000001FF
