:1000000064C000008AC0000088C0000086C00000F4
:1000100084C000000C946D2280C000007EC00000EF
:100020007CC000000C94B11C78C0000076C00000B9
:1000300074C000000C94272270C000006EC0000045
:100040000C94FC256AC000000C94B92466C0000022
:1000500064C0000062C0000060C000005EC000001C
:100060005CC000005AC0000000000000240027000F
:100070002A0000000000250028002B0000000000DE
:1000800023002600290004040404040404040202DA
:100090000202020203030303030301020408102007
:1000A0004080010204081020010204081020000012
:1000B0000007000201000003040600000000000029
:1000C00000006F0EF021BC25EF2111241FBECFEFE1
:1000D000D8E0DEBFCDBF13E0A0E0B1E0EAE6F3E593
:1000E00002C005900D92A83DB107D9F716E0A8ED22
:1000F000B3E001C01D92A23EB107E1F710E0C8ECE9
:10010000D0E004C02297FE010E94D027C23CD10754
:10011000C9F70E94F6250C94A92972CFEF92FF929D
:100120000F931F937B018C0120E030E040E05FE4FF
:10013000E6D388237CF0C801B70120E030E040E03E
:100140005FE460D1BFD49B01AC01205030404040FF
:10015000504805C0C801B701B5D49B01AC01B90135
:10016000CA011F910F91FF90EF900895A0E0B0E0B9
:10017000ECEBF0E00C949727DC012B01FA019C9149
:10018000923008F439C1EB018881823008F433C120
:10019000943069F4843009F02FC111969C91119725
:1001A0008981981709F428C1A8EFB1E025C18430EE
:1001B00009F421C18230A9F4923009F01DC19A01DD
:1001C000AD0188E0EA010990AE01E90109929E01C2
:1001D0008150C1F7E201898111969C918923818325
:1001E00008C1923009F407C112962D903C901397E4
:1001F000EB018A819B811496AD90BD90CD90DC90EF
:100200001797EC80FD800E811F819101281B390B0F
:10021000B90137FF04C066277727621B730B603272
:1002200071050CF061C0121613066CF53701480118
:10023000062E04C096948794779467940A94D2F714
:1002400021E030E040E050E004C0220F331F441FA3
:10025000551F6A95D2F721503040404050402E2122
:100260003F2140235123211531054105510521F03E
:1002700021E030E040E050E079018A01E628F728EB
:10028000082919293CC0232BD1F1260E371E350130
:100290004601062E04C096948794779467940A9436
:1002A000D2F721E030E040E050E004C0220F331FDD
:1002B000441F551F6A95D2F72150304040405040AE
:1002C0002A213B214C215D21211531054105510594
:1002D00021F021E030E040E050E059016A01A62819
:1002E000B728C828D9280BC0821593052CF01C010B
:1002F000AA24BB24650103C0EE24FF2487011196C4
:100300009C91D20111968C91981709F445C09923BC
:1003100039F0A80197012A193B094C095D0906C06B
:10032000A60195012E193F09400B510B57FD08C03E
:1003300011823382228224833583468357831DC0F2
:1003400081E081833382228288279927DC01821B06
:10035000930BA40BB50B84839583A683B7830DC041
:10036000220F331F441F551F248335834683578331
:100370008281938101979383828324813581468191
:100380005781DA01C9010197A109B1098F5F9F4F18
:10039000AF4FBF4328F30BC0918333822282EA0C14
:1003A000FB1C0C1D1D1DE482F5820683178383E070
:1003B0008083248135814681578157FF1AC0C90146
:1003C000AA2797FDA095BA2F81709070A070B07089
:1003D0005695479537952795822B932BA42BB52BB4
:1003E00084839583A683B7838281938101969383C7
:1003F0008283DF0101C0D201CD01CDB7DEB7E2E1DA
:100400000C94B327A0E2B0E0E8E0F2E00C94A3275C
:1004100069837A838B839C832D833E834F835887A4
:10042000E9E0EE2EF12CEC0EFD1ECE010196B70197
:1004300037D58E010F5E1F4FCE010596B80130D51E
:100440008A8991E089278A8BC701B801AE01475E8E
:100450005F4F8CDE50D4A096E6E00C94BF27A0E25C
:10046000B0E0E5E3F2E00C94A32769837A838B8301
:100470009C832D833E834F835887F9E0EF2EF12C28
:10048000EC0EFD1ECE010196B7010AD58E010F5E5E
:100490001F4FCE010596B80103D5C701B801AE01C3
:1004A000475E5F4F63DE27D4A096E6E00C94BF273B
:1004B000A0E2B0E0EEE5F2E00C94972769837A833E
:1004C0008B839C832D833E834F835887CE01019677
:1004D000BE01675F7F4FE4D4CE010596BE016F5E1B
:1004E0007F4FDED49985923088F089898230C8F0B8
:1004F000943019F4823051F404C0843029F49230DD
:1005000081F488EF91E0C6C0923049F420E09A85EA
:100510008A89981321E02A87CE010996BBC08230D0
:1005200049F420E09A858A89981321E02A8BCE012C
:100530004196B0C02D843E844F8458886D887E8853
:100540008F88988CEE24FF248701AA24BB246501A0
:1005500040E050E060E070E0E0E0F0E0C101817078
:100560009070892BE9F0E60CF71C081D191D9A0103
:10057000AB012A0D3B1D4C1D5D1D80E090E0A0E00D
:10058000B0E0E614F7040805190520F481E090E0D6
:10059000A0E0B0E0BA01A901480F591F6A1F7B1FF4
:1005A000AA0CBB1CCC1CDD1C97FE08C081E090E0AF
:1005B000A0E0B0E0A82AB92ACA2ADB2A3196E032A4
:1005C000F10549F0660C771C881C991C56944794D9
:1005D00037942794C3CFFA85EA892B893C898B8588
:1005E0009C85280F391F2E5F3F4F17C0CA018170AD
:1005F0009070892B61F016950795F794E79480E049
:1006000090E0A0E0B0E8E82AF92A0A2B1B2B7695A7
:100610006795579547952F5F3F4F77FDE7CF0CC004
:10062000440F551F661F771F17FD4160EE0CFF1C1E
:10063000001F111F21503040403090E0590790E0DA
:10064000690790E4790760F32B8F3C8FDB01CA01C7
:100650008F779070A070B07080349105A105B105BE
:1006600061F447FD0AC0E114F1040105110529F008
:10067000405C5F4F6F4F7F4F40781A8EFE1711F02E
:1006800081E08A8F4D8F5E8F6F8F78A383E0898F93
:10069000CE01499630D3A096E2E10C94B327A8E1AD
:1006A000B0E0E5E5F3E00C949F2769837A838B83C0
:1006B0009C832D833E834F835887B9E0EB2EF12C2A
:1006C000EC0EFD1ECE010196B701EAD38E010F5E3E
:1006D0001F4FCE010596B801E3D32985223008F4D7
:1006E0007EC03989323010F4B8017CC08A859A897D
:1006F00089278A87243011F0223031F4231709F03A
:100700006EC068EF71E06EC0343039F41D861E860D
:100710001F86188A1C861B8604C0323021F484E0B0
:100720008987B7015FC02B853C858B899C89281BF5
:10073000390B3C872B87ED84FE840F851889AD88A3
:10074000BE88CF88D88CEA14FB040C051D0540F444
:10075000EE0CFF1C001F111F215030403C872B87DF
:1007600020E030E040E050E080E090E0A0E0B0E445
:1007700060E070E0EA14FB040C051D0540F0282B36
:10078000392B4A2B5B2BEA18FB080C091D09B6957F
:10079000A79597958795EE0CFF1C001F111F6F5FA3
:1007A0007F4F6F31710531F7DA01C9018F77907092
:1007B000A070B07080349105A105B10561F427FDEA
:1007C0000AC0E114F1040105110529F0205C3F4F36
:1007D0004F4F5F4F20782D873E874F87588BBE0144
:1007E000675F7F4FCB0187D26896EAE00C94BB2706
:1007F000A8E1B0E0EEEFF3E00C94A32769837A83DD
:100800008B839C832D833E834F83588789E0E82E1A
:10081000F12CEC0EFD1ECE010196B70141D38E01E5
:100820000F5E1F4FCE010596B8013AD389858230FD
:1008300038F08989823020F0C701B801A9D301C0FE
:1008400081E06896E6E00C94BF27A8E1B0E0EBE217
:10085000F4E00C94A32769837A838B839C832D8394
:100860003E834F83588789E0E82EF12CEC0EFD1E65
:10087000CE010196B70114D38E010F5E1F4FCE013A
:100880000596B8010DD38985823038F08989823088
:1008900020F0C701B8017CD301C081E06896E6E092
:1008A0000C94BF27A8E1B0E0E8E5F4E00C94A3279E
:1008B00069837A838B839C832D833E834F83588700
:1008C00089E0E82EF12CEC0EFD1ECE010196B70159
:1008D000E7D28E010F5E1F4FCE010596B801E0D220
:1008E0008985823038F08989823020F0C701B801CB
:1008F0004FD301C08FEF6896E6E00C94BF27A8E1C4
:10090000B0E0E5E8F4E00C94A32769837A838B8355
:100910009C832D833E834F83588789E0E82EF12CFA
:10092000EC0EFD1ECE010196B701BAD28E010F5E0C
:100930001F4FCE010596B801B3D28985823038F0B9
:100940008989823020F0C701B80122D301C08FEF1E
:100950006896E6E00C94BF27A8E1B0E0E2EBF4E093
:100960000C94A32769837A838B839C832D833E8396
:100970004F83588789E0E82EF12CEC0EFD1ECE0146
:100980000196B7018DD28E010F5E1F4FCE010596E5
:10099000B80186D28985823038F08989823020F08A
:1009A000C701B801F5D201C081E06896E6E00C9479
:1009B000BF27A8E1B0E0EFEDF4E00C94A327698332
:1009C0007A838B839C832D833E834F83588789E072
:1009D000E82EF12CEC0EFD1ECE010196B70160D27F
:1009E0008E010F5E1F4FCE010596B80159D2898541
:1009F000823038F08989823020F0C701B801C8D22E
:100A000001C081E06896E6E00C94BF27A8E0B0E062
:100A1000ECE0F5E00C94A0279B01AC0183E0898316
:100A2000DA01C9018827B7FD83959927AA27BB2733
:100A3000B82E211531054105510519F482E089834D
:100A400039C08823A9F0203080E0380780E04807CB
:100A500080E8580729F460E070E080E09FEC2EC049
:100A6000EE24FF248701E21AF30A040B150B02C0DF
:100A700079018A018EE1C82ED12CDC82CB82ED82F5
:100A8000FE820F831887C801B701E6D001971816B8
:100A9000190684F4082E04C0EE0CFF1C001F111F61
:100AA0000A94D2F7ED82FE820F831887C81AD90AFA
:100AB000DC82CB82BA82CE0101961DD12896E9E074
:100AC0000C94BC27ACE0B0E0E8E6F5E00C94A72776
:100AD00069837A838B839C83CE010196BE016B5F11
:100AE0007F4FDED18D81823061F1823050F18430D0
:100AF00021F48E81882351F12EC02F81388537FD56
:100B000020C06E812F3131051CF06623F9F023C01F
:100B10008EE190E0821B930B29853A854B855C859D
:100B200004C056954795379527958A95D2F7662341
:100B3000B1F050954095309521953F4F4F4F5F4F05
:100B40000EC020E030E040E050E009C02FEF3FEF62
:100B50004FEF5FE704C020E030E040E050E8B9012B
:100B6000CA012C96E2E00C94C327A8E0B0E0EBEBBE
:100B7000F5E00C949F277B018C01611571058105BF
:100B8000910519F482E089835FC083E089838EE157
:100B9000C82ED12CDC82CB82ED82FE820F83188797
:100BA000C801B70159D0FC013197F7FF3BC022279C
:100BB00033272E1B3F0B57016801022E04C0D69429
:100BC000C794B794A7940A94D2F740E050E060E04D
:100BD00070E081E090E0A0E0B0E004C0880F991FD1
:100BE000AA1FBB1F2A95D2F70197A109B1098E212F
:100BF0009F21A023B1230097A105B10521F041E079
:100C000050E060E070E04A295B296C297D294D8322
:100C10005E836F8378878EE190E08E1B9F0B9C83B1
:100C20008B8312C0309781F00E2E04C0EE0CFF1C97
:100C3000001F111F0A94D2F7ED82FE820F831887DE
:100C4000CE1ADF0ADC82CB821A82CE01019653D003
:100C50002896EAE00C94BB27EF92FF920F931F9324
:100C60007B018C0180E0E81680E0F80681E008074F
:100C700080E0180788F48FEFE816F10401051105EC
:100C800031F028F088E090E0A0E0B0E017C080E00C
:100C900090E0A0E0B0E012C080E0E81680E0F80646
:100CA00080E0080781E0180728F088E190E0A0E0E4
:100CB000B0E004C080E190E0A0E0B0E020E230E0ED
:100CC00040E050E0281B390B4A0B5B0B04C0169523
:100CD0000795F794E7948A95D2F7F701E050FE4F15
:100CE0008081281B310941095109C9011F910F91C8
:100CF000FF90EF900895DF92EF92FF920F931F9372
:100D0000FC01E480F58006811781D18080818230EA
:100D100048F480E090E0A0E1B0E0E82AF92A0A2B4C
:100D20001B2BA5C0843009F49FC0823021F4EE242F
:100D3000FF24870105C0E114F1040105110519F430
:100D4000E0E0F0E096C0628173819FEF623879073E
:100D50000CF05BC022E83FEF261B370B2A31310530
:100D60002CF020E030E040E050E02AC0B801A701BC
:100D7000022E04C076956795579547950A94D2F749
:100D800081E090E0A0E0B0E004C0880F991FAA1FA6
:100D9000BB1F2A95D2F70197A109B1098E219F2186
:100DA000A023B1230097A105B10521F081E090E0D7
:100DB000A0E0B0E09A01AB01282B392B4A2B5B2B2A
:100DC000DA01C9018F779070A070B07080349105FE
:100DD000A105B10539F427FF09C0205C3F4F4F4FF3
:100DE0005F4F04C0215C3F4F4F4F5F4FE0E0F0E0AA
:100DF0002030A0E03A07A0E04A07A0E45A0710F02C
:100E0000E1E0F0E079018A0127C06038710564F5FE
:100E1000FB01E158FF4FD801C7018F779070A07098
:100E2000B07080349105A105B10539F4E7FE0DC01D
:100E300080E490E0A0E0B0E004C08FE390E0A0E0A8
:100E4000B0E0E80EF91E0A1F1B1F17FF05C016951C
:100E50000795F794E794319687E016950795F794F0
:100E6000E7948A95D1F705C0EE24FF248701EFEFC0
:100E7000F0E06E2F679566276795902F9F77D79440
:100E8000DD24D7948E2F8695492F462B582F5D2928
:100E9000B701CA011F910F91FF90EF90DF90089565
:100EA000FC01DB01408151812281622F6F7770E06C
:100EB000221F2227221F9381892F880F822B282F00
:100EC00030E0991F9927991F11969C93119721152E
:100ED0003105A9F5411551056105710511F482E04F
:100EE00037C082E89FEF13969C938E9312979A01D6
:100EF000AB0167E0220F331F441F551F6A95D1F7DE
:100F000083E08C930DC0220F331F441F551F129690
:100F10008D919C911397019713969C938E931297A2
:100F2000203080E0380780E0480780E4580758F315
:100F300014962D933D934D935C93179708952F3FEF
:100F4000310579F4411551056105710519F484E005
:100F50008C93089564FF03C081E08C9312C01C92AF
:100F600010C02F57304013963C932E93129783E076
:100F70008C9387E0440F551F661F771F8A95D1F722
:100F8000706414964D935D936D937C9317970895B9
:100F90001F93DC01FB019C91923008F447C08081D3
:100FA000823008F443C0943051F411961C9184307F
:100FB00099F58181682F70E0611B71093FC0843011
:100FC00021F0923031F48230B9F18181882389F1A6
:100FD0002DC011961C9111978230F1F08181181764
:100FE000D9F412962D913C911397828193818217A7
:100FF000930794F028173907BCF014968D919D91B2
:101000000D90BC91A02D24813581468157812817F0
:1010100039074A075B0718F4112341F00AC0821709
:101020009307A407B50740F4112319F061E070E0BD
:1010300005C06FEF7FEF02C060E070E0CB011F9151
:1010400008950E94A8210C9493190E94B3210E9434
:10105000451378940895CF93DF93FC0182819381A7
:10106000A481B581EB018883292F3A2F4B2F552777
:1010700029839D01442755272A838B2F9927AA2747
:10108000BB278B8386819781A085B1858C83292F8F
:101090003A2F4B2F55272D839D01442755272E830B
:1010A0008B2F9927AA27BB278F8382859385A485B9
:1010B000B5858887292F3A2F4B2F552729879D01E2
:1010C000442755272A878B2F9927AA27BB278B8749
:1010D0008CE090E0DF91CF910895EF92FF920F9313
:1010E0001F93CF93DF937C01FB01218130E040E02F
:1010F00050E0542F432F322F2227828190E0A0E02E
:10110000B0E0DC0199278827282B392B4A2B5B2B51
:10111000808190E0A0E0B0E0282B392B4A2B5B2B9C
:10112000838190E0A0E0B0E0B82FAA279927882714
:10113000282B392B4A2B5B2BC901A42FB52FE70194
:101140008A839B83AC83BD83258130E040E050E0FF
:10115000542F432F322F2227868190E0A0E0B0E069
:10116000DC0199278827282B392B4A2B5B2B84817C
:1011700090E0A0E0B0E0282B392B4A2B5B2B878135
:1011800090E0A0E0B0E0B82FAA2799278827282B65
:10119000392B4A2B5B2BC901A42FB52F8E839F833C
:1011A000A887B987218530E040E050E0542F432FD5
:1011B000322F2227828590E0A0E0B0E0DC01992761
:1011C0008827282B392B4A2B5B2B808590E0A0E0C9
:1011D000B0E0282B392B4A2B5B2B838590E0A0E0D5
:1011E000B0E0B82FAA2799278827282B392B4A2B1C
:1011F0005B2BC901DA01F70182879387A487B58742
:101200008CE090E0DF91CF911F910F91FF90EF90D4
:10121000089580E091E00895CF93DF93FC018281EF
:101220009381A481B581EB018883292F3A2F4B2F1D
:10123000552729839D01442755272A838B2F9927DA
:10124000AA27BB278B8386819781A085B1858C8354
:10125000292F3A2F4B2F55272D839D0144275527A2
:101260002E838B2F9927AA27BB278F8388E090E0B6
:10127000DF91CF910895EF92FF920F931F93CF9339
:10128000DF937C01FB01218130E040E050E0542FEE
:10129000432F322F2227828190E0A0E0B0E0DC01D2
:1012A00099278827282B392B4A2B5B2B808190E0AC
:1012B000A0E0B0E0282B392B4A2B5B2B838190E0F8
:1012C000A0E0B0E0B82FAA2799278827282B392B30
:1012D0004A2B5B2BC901A42FB52FE7018A839B837F
:1012E000AC83BD83258130E040E050E0542F432F94
:1012F000322F2227868190E0A0E0B0E0DC01992720
:101300008827282B392B4A2B5B2B848190E0A0E087
:10131000B0E0282B392B4A2B5B2B878190E0A0E093
:10132000B0E0B82FAA2799278827282B392B4A2BDA
:101330005B2BC901DA01F70186839783A087B18708
:1013400088E090E0DF91CF911F910F91FF90EF9097
:10135000089581E191E00895CF93DF93FC018281AC
:101360009381A481B581EB018883292F3A2F4B2FDC
:10137000552729839D01442755272A838B2F992799
:10138000AA27BB278B8386819781A085B1858C8313
:10139000292F3A2F4B2F55272D839D014427552761
:1013A0002E838B2F9927AA27BB278F8388E090E075
:1013B000DF91CF910895EF92FF920F931F93CF93F8
:1013C000DF937C01FB01218130E040E050E0542FAD
:1013D000432F322F2227828190E0A0E0B0E0DC0191
:1013E00099278827282B392B4A2B5B2B808190E06B
:1013F000A0E0B0E0282B392B4A2B5B2B838190E0B7
:10140000A0E0B0E0B82FAA2799278827282B392BEE
:101410004A2B5B2BC901A42FB52FE7018A839B833D
:10142000AC83BD83258130E040E050E0542F432F52
:10143000322F2227868190E0A0E0B0E0DC019927DE
:101440008827282B392B4A2B5B2B848190E0A0E046
:10145000B0E0282B392B4A2B5B2B878190E0A0E052
:10146000B0E0B82FAA2799278827282B392B4A2B99
:101470005B2BC901DA01F70186839783A087B187C7
:1014800088E090E0DF91CF911F910F91FF90EF9056
:10149000089584E291E0089580E090E0089580E06E
:1014A00090E0089587E391E00895CF93DF93FC01E6
:1014B00082819381A481B581EB018883292F3A2F02
:1014C0004B2F552729839D01442755272A838B2F8E
:1014D0009927AA27BB278B8386819781A085B18511
:1014E0008C83292F3A2F4B2F55272D839D0144277D
:1014F00055272E838B2F9927AA27BB278F83828579
:101500009385A485B5858887292F3A2F4B2F55279A
:1015100029879D01442755272A878B2F9927AA279A
:10152000BB278B8786859785A089B1898C87292FD2
:101530003A2F4B2F55272D879D01442755272E875E
:101540008B2F9927AA27BB278F8780E190E0DF9117
:10155000CF910895EF92FF920F931F93CF93DF9354
:101560007C01FB01218130E040E050E0542F432F0B
:10157000322F2227828190E0A0E0B0E0DC019927A1
:101580008827282B392B4A2B5B2B808190E0A0E009
:10159000B0E0282B392B4A2B5B2B838190E0A0E015
:1015A000B0E0B82FAA2799278827282B392B4A2B58
:1015B0005B2BC901A42FB52FE7018A839B83AC83E2
:1015C000BD83258130E040E050E0542F432F322F7F
:1015D0002227868190E0A0E0B0E0DC0199278827EF
:1015E000282B392B4A2B5B2B848190E0A0E0B0E0C4
:1015F000282B392B4A2B5B2B878190E0A0E0B0E0B1
:10160000B82FAA2799278827282B392B4A2B5B2B01
:10161000C901A42FB52F8E839F83A887B987218501
:1016200030E040E050E0542F432F322F22278285B4
:1016300090E0A0E0B0E0DC0199278827282B392B27
:101640004A2B5B2B808590E0A0E0B0E0282B392B63
:101650004A2B5B2B838590E0A0E0B0E0B82FAA274F
:1016600099278827282B392B4A2B5B2BC901A42FBC
:10167000B52F8A879B87AC87BD87258530E040E002
:1016800050E0542F432F322F2227868590E0A0E090
:10169000B0E0DC0199278827282B392B4A2B5B2BBC
:1016A000848590E0A0E0B0E0282B392B4A2B5B2BFF
:1016B000878590E0A0E0B0E0B82FAA279927882777
:1016C000282B392B4A2B5B2BC901DA01F7018687BE
:1016D0009787A08BB18B80E190E0DF91CF911F9134
:1016E0000F91FF90EF9008958AE491E00895CF93D1
:1016F000DF93FC0182819381A481B581EB01888312
:10170000292F3A2F4B2F552729839D0144275527F1
:101710002A838B2F9927AA27BB278B8386819781C2
:10172000A085B1858C83292F3A2F4B2F55272D83E8
:101730009D01442755272E838B2F9927AA27BB2746
:101740008F8382859385A485B5858887292F3A2F35
:101750004B2F552729879D01442755272A878B2FF3
:101760009927AA27BB278B8786859785A089B1896A
:101770008C87292F3A2F4B2F55272D879D014427E2
:1017800055272E878B2F9927AA27BB278F8780E184
:1017900090E0DF91CF910895EF92FF920F931F9306
:1017A000CF93DF937C01FB01218130E040E050E0EA
:1017B000542F432F322F2227828190E0A0E0B0E007
:1017C000DC0199278827282B392B4A2B5B2B80811A
:1017D00090E0A0E0B0E0282B392B4A2B5B2B8381D3
:1017E00090E0A0E0B0E0B82FAA2799278827282BFF
:1017F000392B4A2B5B2BC901A42FB52FE7018A8314
:101800009B83AC83BD83258130E040E050E0542FC2
:10181000432F322F2227868190E0A0E0B0E0DC0148
:1018200099278827282B392B4A2B5B2B848190E022
:10183000A0E0B0E0282B392B4A2B5B2B878190E06E
:10184000A0E0B0E0B82FAA2799278827282B392BAA
:101850004A2B5B2BC901A42FB52F8E839F83A887AA
:10186000B987218530E040E050E0542F432F322FDC
:101870002227828590E0A0E0B0E0DC01992788274C
:10188000282B392B4A2B5B2B808590E0A0E0B0E021
:10189000282B392B4A2B5B2B838590E0A0E0B0E00E
:1018A000B82FAA2799278827282B392B4A2B5B2B5F
:1018B000C901A42FB52F8A879B87AC87BD87258553
:1018C00030E040E050E0542F432F322F222786850E
:1018D00090E0A0E0B0E0DC0199278827282B392B85
:1018E0004A2B5B2B848590E0A0E0B0E0282B392BBD
:1018F0004A2B5B2B878590E0A0E0B0E0B82FAA27A9
:1019000099278827282B392B4A2B5B2BC901DA0111
:10191000F70186879787A08BB18B80E190E0DF91FC
:10192000CF911F910F91FF90EF9008958EE591E078
:10193000089580E090E0089580E090E0089582E7C7
:1019400091E00895CF93DF93FC0182819381A4817C
:10195000B581EB018883292F3A2F4B2F55272983F7
:101960009D01442755272A838B2F9927AA27BB2718
:101970008B8386819781A085B1858C83292F3A2F0F
:101980004B2F55272D839D01442755272E838B2FC1
:101990009927AA27BB278F8388E090E0DF91CF911A
:1019A00008950F931F938C01FB01218130E040E0EB
:1019B00050E0542F432F322F2227828190E0A0E065
:1019C000B0E0DC0199278827282B392B4A2B5B2B89
:1019D000808190E0A0E0B0E0282B392B4A2B5B2BD4
:1019E000838190E0A0E0B0E0B82FAA27992788274C
:1019F000282B392B4A2B5B2BD80112962C9312974C
:101A000013963C93139714964C93149715965C93E6
:101A1000258130E040E050E0542F432F322F222721
:101A2000868190E0A0E0B0E0DC0199278827282B90
:101A3000392B4A2B5B2B848190E0A0E0B0E0282B6F
:101A4000392B4A2B5B2B878190E0A0E0B0E0B82FC8
:101A5000AA2799278827282B392B4A2B5B2BF8019B
:101A6000268337834087518788E090E01F910F914C
:101A7000089581E891E008956F927F928F929F92EE
:101A8000AF92BF92CF92DF92EF92FF920F931F938C
:101A9000CF93DF933C01EB01398120E0888190E016
:101AA000822B932BD30112968C93129713969C93AF
:101AB000CA80DB80EC80FD80970186010A5F1F4FA2
:101AC0002F4F3F4F073011052105310590F046E0BB
:101AD00050E0FE01E40FF51F8081319780834F5F56
:101AE0005F4FCA01A0E0B0E080179107A207B307DB
:101AF00080F3F6013696EC0FFD1F12923196259673
:101B0000D3011596DC93CE9314972597808091800E
:101B1000A280B3808601065F1F4FA801662757FD8C
:101B20006095762F480D591D6A1D7B1DC801A0E0E8
:101B3000B0E084179507A607B70788F49801FE015F
:101B4000E20FF31F8081319780832F5F3F4FC901E0
:101B5000A0E0B0E084179507A607B70780F39801C7
:101B6000280D391DFE01E20FF31F3197108201503D
:101B700010400C0F1D1FF30117830683C901DF916D
:101B8000CF911F910F91FF90EF90DF90CF90BF907A
:101B9000AF909F908F907F906F9008958FE891E025
:101BA000089581E393E00895CF92DF92EF92FF9240
:101BB0000F931F93CF93DF938C01F62EDA01FC0174
:101BC0008481882361F4EE24FF24C701DF91CF9143
:101BD0001F910F91FF90EF90DF90CF900895ED91BE
:101BE000FC91B801655F7F4F0190F081E02DCA0143
:101BF0000995DC018FEFF80185838683F7821086D3
:101C0000A1871286BD016B5F7F4F623071058CF03A
:101C100040E050E022E030E0F801E20FF31F858160
:101C2000480F511D2F5F3F4F62177307ACF7842F8A
:101C30008095F801EA0FFB1F838787E0E82EF12CDF
:101C4000EA0EFB1ED8011296CD90DC9013971E145D
:101C50001F040CF0BACFC0E0D0E0F601A081B18142
:101C6000ED91FC91119798012C0F3D1F0190F0818F
:101C7000E02DCD01D90115966C9109952196CE15CF
:101C8000DF055CF3A2CFFC01208531850696F901C2
:101C90000995089581E090E0089582E791E0089524
:101CA000FC01208531850696F9010995089581E0AA
:101CB00090E0089587E391E0089581E090E0089531
:101CC00084E291E0089581E090E0089581E191E05F
:101CD000089581E090E0089580E091E008958BE020
:101CE00093E09093D9038093D80382EC96E090938D
:101CF000DB038093DA0380E091EEA0E0B0E0809314
:101D0000DC039093DD03A093DE03B093DF0385E251
:101D100093E09093E1038093E0038AED93E0909346
:101D2000E3038093E2031092E4038BE293E0909349
:101D300023058093220581E593E0909338058093F5
:101D400037058BE593E090933E0580933D0588EA47
:101D500091E090933C0580933B0581EF92E1909355
:101D60004C0580934B0585E693E090934E05809358
:101D70004D058FE693E0909354058093530581EBD6
:101D800091E0909352058093510585E293E1909301
:101D90005E0580935D0589E793E0909360058093ED
:101DA0005F0583E893E090936605809365058CEB6F
:101DB00091E0909364058093630589ED92E190939F
:101DC000700580936F058DE893E090937205809382
:101DD000710587E993E0909378058093770587EC08
:101DE00091E090937605809375058DE393E1909350
:101DF0007A058093790541EA53E050937C0540933E
:101E00007B052BEA33E0309382052093810582ED38
:101E100091E09093800580937F058CEA92E1909306
:101E20008405809383055093860540938505309300
:101E30008C0520938B058AED91E090938A05809321
:101E4000890583E492E190938E0580938D0585EB5F
:101E500093E09093900580938F058FEB93E09093A0
:101E6000A2058093A10583EE91E09093B405809341
:101E7000B3058FE895E09093B6058093B5058DEE98
:101E800091E09093BC058093BB0581EA95E0909327
:101E9000BE058093BD050895AF92BF92CF92DF92A9
:101EA000EF92FF920F931F936C017B01DC0112965E
:101EB0008C91129713969C911397FB0180839183C9
:101EC00014966C91149715967C91FB01DF010D908F
:101ED0000020E9F79D01215030402E1B3F0BC90126
:101EE000A0E0B0E0F70182839383A483B583A701C8
:101EF0004A5F5F4FCA01A9010E94A029D70112962B
:101F00000D911C9113970A5F1F4F5701A00EB11E30
:101F1000F60166817781FB01DF010D900020E9F772
:101F20009D01215030402E1B3F0BC901A0E0B0E0C5
:101F3000F50180839183A283B3830C5F1F4FE00E72
:101F4000F11EC701A9010E94A029D5012D913C9144
:101F5000200F311FC9011F910F91FF90EF90DF906B
:101F6000CF90BF90AF900895BF92CF92DF92EF9243
:101F7000FF920F931F93CF93DF936C01EB01DC0172
:101F800012968C911297888319821A821B8212965C
:101F90008C91882309F4DDC064E070E000E0802FBC
:101FA00090E0880F991F880F991FD6011796ED9121
:101FB000FC911897E80FF91F80819181A281B3816C
:101FC000FE01E60FF71F8083292F3A2F4B2F55274D
:101FD00021839D014427552722838B2F9927AA27E8
:101FE000BB2783836C5F7F4F0F5FF60182810817E9
:101FF000B0F2AB019B012F5F3F4FD90111967D01DC
:102000000894E11CF11CB7016F5F7F4F8B014C0FEF
:102010005D1FF6018185FA0180832C0F3D1FF901B8
:102020001082AC0FBD1F1C92EC0EFD1ED7011C923E
:10203000F6018185882361F100E0802F90E0880F10
:10204000991F880F991FD6011E96ED91FC911F973D
:10205000E80FF91F80819181A281B381FE01E60F13
:10206000F71F8083292F3A2F4B2F552721839D015E
:102070004427552722838B2F9927AA27BB278383A1
:102080006C5F7F4F0F5FF60181850817B0F28B01FF
:102090000C0F1D1FD60150968C915097F80180832C
:1020A000CB010196FE01E80FF91F10820196FE0197
:1020B000E80FF91F10820196FE01E80FF91F108248
:1020C000AC014F5F5F4F50968C918823B9F1BB24D0
:1020D0007E01E40EF51E8B2D90E0880F991FD6012E
:1020E0005396ED91FC915497E80FF91F608171812F
:1020F000FB01DF010D900020E9F79D0121503040E8
:102100002E1B3F0BC901A0E0B0E0F7018083918353
:10211000A283B3838A010C5F1F4FAE01400F511F92
:10212000CA01A9010E94A029D7014D915C91400FDD
:10213000511FB394F6018089B81650F2CA01DF919D
:10214000CF911F910F91FF90EF90DF90CF90BF90B4
:10215000089544E050E025E030E0A6E0B0E067E01C
:10216000E62EF12C68E070E008E010E050CF6F92AE
:102170007F929F92AF92BF92CF92DF92EF92FF92A7
:102180000F931F93CF93DF936C015B01DB011C91D5
:10219000FC018281811708F43BC1F60112831123EF
:1021A00009F44BC164E070E010E0E6012396F5010C
:1021B000E60FF71F218130E040E050E0542F432F1D
:1021C000322F2227828190E0A0E0B0E0DC01992745
:1021D0008827282B392B4A2B5B2B808190E0A0E0AD
:1021E000B0E0282B392B4A2B5B2B838190E0A0E0B9
:1021F000B0E0B82FAA2799278827282B392B4A2BFC
:102200005B2BD60113962C93139714963C9314973B
:1022100015964C93159716965C9316976C5F7F4FA7
:10222000812F90E0880F991F880F991F1796ED91C5
:10223000FC911897E80FF91F88819981AA81BB81C9
:1022400080839183A283B3831F5FF6018281181775
:1022500008F4ADCFFB01EB0124968E01EA0DFB1DC6
:10226000F080D60119968C9119978F1508F4FBC050
:10227000D6011996FC92FF2009F453C010E0EAE061
:10228000EE2EF12CEC0CFD1CF501EC0FFD1F218155
:1022900030E040E050E0542F432F322F222782813C
:1022A00090E0A0E0B0E0DC0199278827282B392BAB
:1022B0004A2B5B2B808190E0A0E0B0E0282B392BEB
:1022C0004A2B5B2B838190E0A0E0B0E0B82FAA27D7
:1022D00099278827282B392B4A2B5B2BC901DA0138
:1022E000F60182879387A487B5872496812F90E093
:1022F000880F991F880F991F0684F785E02DE80F36
:10230000F91FD7012D913D914D915C91208331832F
:10231000428353831F5FF6018185181708F4B4CFF9
:102320008E010A0D1B1DD8011C91F60180898117B1
:1023300008F48AC09E012C5F3F4FF601108B1123D9
:1023400009F457C09924E1E16E2E712C6C0C7D1CB0
:10235000F501E20FF31FE080F18002811381E901B2
:102360002496AE01662757FD6095762F4E0D5F1DB2
:10237000601F711FCE01A0E0B0E084179507A6078B
:10238000B70788F49E01F501E20FF31F80813197B2
:1023900080832F5F3F4FC901A0E0B0E0841795070D
:1023A000A607B70780F3CE018E0D9F1DF501E80F3C
:1023B000F91F319710822197CA0DDB1DD601529665
:1023C000DC93CE9351979C01892D90E0880F991F43
:1023D0005396ED91FC915497E80FF91FD3018D911D
:1023E0009C91918380839394F6018089981608F4D8
:1023F000AFCFC901DF91CF911F910F91FF90EF9067
:10240000DF90CF90BF90AF909F907F906F90089596
:10241000612F70E0660F771F660F771F87819085A9
:102420000E94D928D60117968C93179718969C93DB
:10243000F6011283112309F0B5CEE4E0F0E0C8E024
:10244000D0E008E010E00ACF612F70E0660F771F40
:10245000838994890E94D928D60153968C935397E7
:1024600054969C9367CF6F2D70E0660F771F660FB1
:10247000771F1E968D919C911F970E94D928F60177
:1024800086879787F5CE0F931F9307EC15E0C80159
:102490000E94671DAA2797FDA095BA2FBC01CD0108
:1024A0000E9406056093A3057093A4058093A5057B
:1024B0009093A605C8010E946B1DAA2797FDA095C1
:1024C000BA2FBC01CD010E9406056093AB05709345
:1024D000AC058093AD059093AE050CEF15E0C801F7
:1024E0000E94671DAA2797FDA095BA2FBC01CD01B8
:1024F0000E9406056093A7057093A8058093A9051F
:102500009093AA05C8010E946B1DAA2797FDA0956C
:10251000BA2FBC01CD010E9406056093AF057093F0
:10252000B0058093B1059093B205A091C105B0911B
:10253000C205ED91FC9111976091BF057091C005A6
:102540004091BD055091BE050190F081E02DCD0177
:1025500009951F910F9108950F931F9301E915E0BD
:10256000A801485F5F4F87EC95E0B8010E94431DCA
:10257000A801445F5F4F8CEF95E00C5F1F4FB801DF
:102580000E94431DA091B905B091BA05ED91FC914F
:1025900011976091B7057091B8054091B5055091BC
:1025A000B6050190F081E02DCD0109951F910F91A5
:1025B00008950F931F938C01FC0142815381648124
:1025C000758187EC95E00E943D1DF8014681578199
:1025D000608571858CEF95E00E943D1D1F910F91E4
:1025E0000895AF92BF92CF92DF92EF92FF920F9336
:1025F0001F935C01FC0142815381648175810681D6
:10260000178120853185C284D384E484F58487ECE6
:1026100095E00E94171DF501428153816481758107
:102620000681178120853185C284D384E484F584B2
:102630008CEF95E00E94171D1F910F91FF90EF9076
:10264000DF90CF90BF90AF9008950F931F938C01B0
:10265000FC01428153816481758187EC95E00E9481
:10266000091DF80146815781608571858CEF95E0E1
:102670000E94091D1F910F91089587EC95E00E941B
:10268000D91C8CEF95E00C94D91C4091DC0350913F
:10269000DD036091DE037091DF038091DA03909196
:1026A000DB030E94EA2410920A0510920905109299
:1026B0000C0510920B051092100510920F05109248
:1026C0000E0510920D0587E395E09093FE0480932C
:1026D000FD0484E690E090933A05809339058DE4FB
:1026E00095E0909300058093FF0485E690E0909339
:1026F000500580934F058FE595E0909302058093F8
:10270000010586E690E0909362058093610581E77C
:1027100095E0909304058093030587E690E09093FD
:102720007405809373058BE795E09093060580937D
:10273000050588E690E090937E0580937D0585E809
:1027400095E0909308058093070589E690E09093C3
:1027500088058093870586E090E090931405809328
:10276000130520E030E0F901EE0FFF1FEF50FB4FA3
:1027700080819181892BB1F02F5F3F4F2630310549
:1027800094F320E030E0F901EE0FFF1FEF50FB4F14
:1027900080819181892BB9F02F5F3F4F2630310521
:1027A00094F3089583EB95E09183808326593F4FFE
:1027B0003093B8052093B70580EE93E09093BA0567
:1027C0008093B905DECF8BEB95E09183808326590A
:1027D0003F4F3093C0052093BF0580EE93E0909368
:1027E000C2058093C1050895EF92FF920F931F9346
:1027F000CF93DF938C01FB01218130E040E050E07A
:10280000542F432F322F2227828190E0A0E0B0E0A6
:10281000DC0199278827282B392B4A2B5B2B8081B9
:1028200090E0A0E0B0E0282B392B4A2B5B2B838172
:1028300090E0A0E0B0E0B82FAA2799278827282B9E
:10284000392B4A2B5B2BC901A42FB52FE8018887B0
:102850009987AA87BB87258130E040E050E0542F5C
:10286000432F322F2227868190E0A0E0B0E0DC01E8
:1028700099278827282B392B4A2B5B2B848190E0C2
:10288000A0E0B0E0282B392B4A2B5B2B878190E00E
:10289000A0E0B0E0B82FAA2799278827282B392B4A
:1028A0004A2B5B2BC901DA01F80184879587A6873B
:1028B000B7870088F189E02DC80106960995DF9158
:1028C000CF911F910F91FF90EF900895EF92FF929B
:1028D0000F931F93CF93DF938C01FB01218130E095
:1028E00040E050E0542F432F322F2227828190E086
:1028F000A0E0B0E0DC0199278827282B392B4A2B50
:102900005B2B808190E0A0E0B0E0282B392B4A2B94
:102910005B2B838190E0A0E0B0E0B82FAA27992735
:102920008827282B392B4A2B5B2BC901A42FB52FC5
:10293000E80188879987AA87BB87258130E040E036
:1029400050E0542F432F322F2227868190E0A0E0C1
:10295000B0E0DC0199278827282B392B4A2B5B2BE9
:10296000848190E0A0E0B0E0282B392B4A2B5B2B30
:10297000878190E0A0E0B0E0B82FAA2799278827A8
:10298000282B392B4A2B5B2BC901DA01F8018487EC
:102990009587A687B7870088F189E02DC80106963C
:1029A0000995DF91CF911F910F91FF90EF900895BE
:1029B000EF92FF920F931F93CF93DF937C01FB0164
:1029C000218130E040E050E0542F432F322F222766
:1029D000828190E0A0E0B0E0DC0199278827282BD5
:1029E000392B4A2B5B2B808190E0A0E0B0E0282BB4
:1029F000392B4A2B5B2B838190E0A0E0B0E0B82F0D
:102A0000AA2799278827282B392B4A2B5B2BC9010A
:102A1000A42FB52FE70188879987AA87BB872581CF
:102A200030E040E050E0542F432F322F22278681A0
:102A300090E0A0E0B0E0DC0199278827282B392B13
:102A40004A2B5B2B848190E0A0E0B0E0282B392B4F
:102A50004A2B5B2B878190E0A0E0B0E0B82FAA273B
:102A600099278827282B392B4A2B5B2BC901A42FA8
:102A7000B52F8C879D87AE87BF87218530E040E0EA
:102A800050E0542F432F322F2227828590E0A0E080
:102A9000B0E0DC0199278827282B392B4A2B5B2BA8
:102AA000808590E0A0E0B0E0282B392B4A2B5B2BEF
:102AB000838590E0A0E0B0E0B82FAA279927882767
:102AC000282B392B4A2B5B2BC901DA01F701808BAC
:102AD000918BA28BB38B0488F589E02DC7010696F4
:102AE0000995DF91CF911F910F91FF90EF9008957D
:102AF0008F929F92AF92BF92CF92DF92EF92FF920E
:102B00000F931F93DF93CF93CDB7DEB72A970FB6FE
:102B1000F894DEBF0FBECDBF4C018BE193E09A83EA
:102B200089831B821C821D821E821F821886198641
:102B30001A86D4011C968C918823F9F40E944426AD
:102B4000EDE8F0E08E0E9F1ED4016D937D938D9382
:102B50009C9313972A960FB6F894DEBF0FBECDBF95
:102B6000CF91DF911F910F91FF90EF90DF90CF9069
:102B7000BF90AF909F908F90089528E0A22EB12C27
:102B8000A80CB91CB4016D5E7F4FE0911B03F0915E
:102B90001C03CE0101960995DC018FEFF4018587B6
:102BA00086878AE08787108AA18B128ABD016B5FB6
:102BB0007F4F62307105D4F122E030E040E050E018
:102BC000F501E20FF31F8581480F511D2F5F3F4F25
:102BD00062177307ACF7842F809596E0E92EF12CED
:102BE000EA0EFB1EF401EE0DFF1D8587D4011A9637
:102BF000CD90DC901B97F7FCA1CF00E010E0F60130
:102C0000A081B181ED91FC9111979501200F311FA9
:102C10000190F081E02DCD01D90115966C910995B7
:102C20000F5F1F4FE016F10654F788CF8FEFD5CF17
:102C30002F923F924F925F926F927F928F929F92CC
:102C4000AF92BF92CF92DF92EF92FF920F931F93BA
:102C5000DF93CF93CDB7DEB768970FB6F894DEBF9A
:102C60000FBECDBF2C010E9444266B8B7C8B8D8BBD
:102C70009E8B92012F5B3E4F388F2F8BF901808105
:102C80009181A281B3812B893C894D895E89281B62
:102C9000390B4A0B5B0BDA01C901895F9A42A040EC
:102CA000B04018F0D2011C961C9281E3282E81E0DE
:102CB000382E240C351CF10180819181892BB9F0CB
:102CC00025E431E0420E531EF20180819181A28100
:102CD000B3812BEB3EEF420E531E2B893C894D896D
:102CE0005E8982179307A407B50708F497C0D2013D
:102CF0001296ED91FC911397A081B18118962D91B8
:102D00003C911997CF01F90109959C0197FDB2C03B
:102D1000F201E75CFE4F80819181820F931F9183C6
:102D20008083D1014D915C914630510509F47AC000
:102D30004115510539F52F3F3105C9F681E090E085
:102D4000D1018D939C93E5E4F1E04E0E5F1E2B893B
:102D50003C894D895E892C5E3F4F4F4F5F4FD201BA
:102D60002D933D934D935C931397EBEBFEEF4E0E3B
:102D70005F1E24513040404050402B8B3C8B4D8B8C
:102D80005E8BB5CF4130510509F46CC0423051051E
:102D900009F424C14330510509F433C144305105CD
:102DA00009F440C14530510509F45AC14730510575
:102DB00009F09DCF60E071E00E9433278F3F9105BD
:102DC00069F525E331E0420E531ED201ED91FC91ED
:102DD0002BEC3EEF420E531E309709F459C1EA30F6
:102DE000F10509F4DAC1E430F10509F484C2E456CE
:102DF000F040EE0FFF1FE40DF51DEB5DFE4FA081CF
:102E0000B181109759F0ED91FC911197B20167567D
:102E10007F4F0190F081E02DCD010995D1011D92E8
:102E20001C9265CFD201A95CBE4F8D919C911197E8
:102E3000F201E80FF91FE756FF4F208301968D93AB
:102E40009C93F201ED5CFE4F80819181019791830B
:102E50008083892B09F04BCF87E090E0F1019183CB
:102E6000808345CF2F3F310509F4F4C0F101118271
:102E700010823DCFF2018485882309F496C05DE37A
:102E8000252E51E0352E240C351CF10180819181D5
:102E9000A281B3812B893C894D895E89281B390B1E
:102EA0004A0B5B0BDA01C901855C9940A040B04038
:102EB00008F47BC08BE193E09A8789871B861C8688
:102EC0001D861E861F86188A198A1A8A48E0A42E33
:102ED000B12CA40CB51CB2016D5E7F4FE0911B03B9
:102EE000F0911C03CE0109960995DC018FEFF201E8
:102EF000858786878AE08787108AA18B128ABD0121
:102F00006B5F7F4F623071050CF40BC222E030E042
:102F100040E050E0F501E20FF31F8581480F511D9D
:102F20002F5F3F4F62177307ACF7842F809536E011
:102F3000E32EF12CEA0EFB1EF201EE0DFF1D85873C
:102F4000D2011A96CD90DC901B97F7FC18C000E0D8
:102F500010E0F601A081B181ED91FC9111979501EE
:102F6000200F311F0190F081E02DCD01D901159680
:102F70006C9109950F5F1F4FE016F10654F70E9400
:102F80004426EDE8F0E04E0E5F1ED2016D937D9376
:102F90008D939C9313972B893C894D895E89D10130
:102FA0002D933D934D935C93139768960FB6F894C9
:102FB000DEBF0FBECDBFCF91DF911F910F91FF906C
:102FC000EF90DF90CF90BF90AF909F908F907F90C9
:102FD0006F905F904F903F902F90089545E351E0A0
:102FE000440E551ED2012D933C934BEC5EEF440EE4
:102FF000551E83E090E0D1018D939C933183208313
:1030000076CEF201EB5CFE4F922F88272081318132
:10301000820F931F9183808384E090E0F10191837C
:10302000808365CE43E351E0440E551ED2012D93BB
:103030003C93E4E0F0E04E0E5F1ED2011D921C9224
:10304000E9ECFEEF4E0E5F1E85E090E0D1018D931E
:103050009C934DCE82E090E0D1018D939C9347CE1E
:10306000F201ED5CFE4F322F222780819181280FE3
:10307000391F3183208386E090E0F10191838083C2
:10308000232B09F034CE87E090E0918380832FCE0C
:10309000C2012EDD81E0D2011C968C9381E193E088
:1030A0009A83898300E010E0F801EE0FFF1FE40D22
:1030B000F51DE75EFE4F0190F081E02D3097E9F0BD
:1030C000848195819C838B83808191819E838D8374
:1030D000A281B381ED91FC9111970480F581E02DDF
:1030E000CD01099598878F83C201089660E070E052
:1030F000AE014F5F5F4F0E94D40D0F5F1F4F063030
:10310000110594F200E010E0F801EE0FFF1FE40D4E
:10311000F51DEB5DFE4FA081B1811097F9F012967D
:103120008D919C9113979C838B8314968D919C9188
:1031300015979E838D83ED91FC9111970480F58105
:10314000E02DCD01099598878F83C201089661E033
:1031500070E0AE014F5F5F4F0E94D40D0F5F1F4FB5
:10316000063011058CF2EDE3F1E04E0E5F1E2B8967
:103170003C894D895E89D2012D933D934D935C939B
:103180001397E3ECFEEF4E0E5F1EAF89B88D2D93C3
:103190003D934D935C93139741CE8BE193E09A87D7
:1031A00089871B861C861D861E861F86188A198A9B
:1031B0001A8A0E9444267B018C01EDE8F0E04E0E55
:1031C0005F1EF20180819181A281B38123E73FEFED
:1031D000420E531EE81AF90A0A0B1B0BB20167567E
:1031E0007F4FCE0109960E94D10CC801B70128EE8D
:1031F00033E040E050E00E9446278B859C85AD85FA
:10320000BE85820F931FA41FB51F8B879C87AD8738
:10321000BE87C801B70128EE33E040E050E00E94CD
:10322000462720E432E44FE050E00E9414272F8527
:10323000388949895A89260F371F481F591F2F87F8
:10324000388B498B5A8B0E9444265B016C01E1E963
:103250006E2E712C640C751CEB84FC840D851E8510
:103260000894E108F1080109110928EE33E040E073
:1032700050E00E944627E21AF30A040B150BD30113
:10328000ED92FD920D931C93139775E9872E912C67
:10329000840C951CEF84F88809891A8920E03AEC9F
:1032A0004AE95BE3E20EF31E041F151FC601B501D8
:1032B00028EE33E040E050E00E94462720E432E46C
:1032C0004FE050E00E941427E61AF70A080B190B8A
:1032D000D401ED92FD920D931C931397C301B40199
:1032E0000E9481240E944426EF89F88D60837183B7
:1032F0008283938393CDC201865B9E4F29E930E0A0
:10330000420E531EB2010E94B71040EB50E0440E33
:10331000551E81E0D2018C93E7EBFEEF4E0E5F1E4F
:103320007DCD8FEF04CE6F927F928F929F92AF925E
:10333000BF92CF92DF92EF92FF920F931F93DF9392
:10334000CF93CDB7DEB762970FB6F894DEBF0FBE4E
:10335000CDBF0E9444263B014C01809119059091FC
:103360001A05A0911B05B0911C05A4019301281B0F
:10337000390B4A0B5B0BDA01C901895F9A42A04005
:10338000B04010F01092E4038091090590910A0575
:10339000892B71F080911D0590911E05A0911F054C
:1033A000B091200586159705A805B90508F487C0D2
:1033B000E091DA03F091DB03A081B18118962D91A1
:1033C0003C911997CF01F9010995AC0197FDA6C071
:1033D0008091110590911205840F951F909312050D
:1033E000809311052091090530910A052630310599
:1033F00009F46AC02115310511F54F3F5105C1F699
:1034000081E090E090930A058093090584E190E0C3
:10341000A0E0B0E0680E791E8A1E9B1E60921D051A
:1034200070921E0580921F05909220052CEE3FEFB2
:103430004FEF5FEF620E731E841E951EB9CF2130D1
:10344000310509F461C02230310509F40CC1233083
:10345000310509F417C12430310509F426C125309E
:10346000310509F431C12730310509F0A1CF60E001
:1034700071E00E9433278F3F910509F5E0910D051A
:10348000F0910E05309709F435C1EA30F10509F4E1
:10349000A9C1E430F10509F44AC2EE0FFF1FEB5C4D
:1034A000FB4FA081B181109751F0ED91FC911197E4
:1034B0000190F081E02DCD0161E774E00995109253
:1034C0000A051092090574CF80910F05909110059F
:1034D000FC01EF58FB4F40830196909310058093B9
:1034E0000F0580910B0590910C05019790930C05A9
:1034F00080930B05892B09F05BCF87E090E09093D8
:103500000A058093090554CF4F3F5105C1F682E06B
:1035100090E090930A05809309054ACF8091E403D7
:10352000882309F48BC08091150590911605A09110
:103530001705B0911805A4019301281B390B4A0BFC
:103540005B0BDA01C901855C9940A040B04008F4EA
:1035500075C08BE193E09A8789871B861C861D8640
:103560001E861F86188A198A1A8AE0911B03F09119
:103570001C03CE0109966BEE73E00995DC018FEF19
:103580008093E5038093E6038AE08093E70310923B
:10359000E803A093E9031092EA03BD016B5F7F4F3C
:1035A000623071050CF4CDC122E030E040E050E023
:1035B000F901E852FC4F8585480F511D2F5F3F4FA1
:1035C00062177307ACF7842F809596E0E92EF12CF3
:1035D000EA0EFB1EF701E852FC4F8587C090E2031C
:1035E000D090E303F7FC18C000E010E0F601A081E2
:1035F000B181ED91FC911197980128523C4F0190B7
:10360000F081E02DCD01D9011D966C9109950F5FD8
:103610001F4FE016F10654F70E944426609365049C
:103620007093660480936704909368046092150514
:1036300070921605809217059092180562960FB643
:10364000F894DEBF0FBECDBFCF91DF911F910F91D8
:10365000FF90EF90DF90CF90BF90AF909F908F90B2
:103660007F906F90089550930E0540930D0583E071
:1036700090E090930A0580930905509312054093BA
:10368000110596CE942F882720910D0530910E05B7
:10369000820F931F90930E0580930D0584E090E0B8
:1036A00090930A058093090583CE50930C054093AF
:1036B0000B051092100510920F0585E090E0909395
:1036C0000A058093090574CE942F882720910B0555
:1036D00030910C05820F931F90930C0580930B057E
:1036E00026E030E030930A0520930905892B09F084
:1036F0005FCE03CF88ED93E0FBD981E08093E403B4
:1037000081E193E09A83898300E010E0F801EE0FF5
:10371000FF1FEF50FB4F0190F081E02D3097E9F053
:10372000848195819C838B83808191819E838D830D
:10373000A281B381ED91FC9111970480F581E02D78
:10374000CD01099598878F8380EE93E060E070E06B
:10375000AE014F5F5F4F0E94D40D0F5F1F4F0630C9
:103760001105A4F200E010E0F801EE0FFF1FE35096
:10377000FB4FA081B1811097F9F012968D919C9129
:1037800013979C838B8314968D919C9115979E83A0
:103790008D83ED91FC9111970480F581E02DCD0191
:1037A000099598878F8380EE93E061E070E0AE0129
:1037B0004F5F5F4F0E94D40D0F5F1F4F0630110502
:1037C0009CF26092150570921605809217059092F2
:1037D00018056092190570921A0580921B05909247
:1037E0001C056DCE8BE193E09A8789871B861C862A
:1037F0001D861E861F86188A198A1A8A0E944426E8
:103800007B018C018091650490916604A09167040E
:10381000B0916804E81AF90A0A0B1B0BCE0109964D
:1038200061E774E00E94D10CC801B70128EE33E0D3
:1038300040E050E00E9446278B859C85AD85BE8583
:10384000820F931FA41FB51F8B879C87AD87BE87F0
:10385000C801B70128EE33E040E050E00E9446275F
:1038600020E432E44FE050E00E9414272F8538898D
:1038700049895A89260F371F481F591F2F87388BB0
:10388000498B5A8B0E9444265B016C01EB84FC84BB
:103890000D851E850894E108F1080109110928EE3B
:1038A00033E040E050E00E944627E21AF30A040B9E
:1038B000150BE0926904F0926A0400936B04109374
:1038C0006C04EF84F88809891A8980E09AECAAE9E7
:1038D000BBE3E80EF91E0A1F1B1FC601B50128EE47
:1038E00033E040E050E00E94462720E432E44FE01D
:1038F00050E00E941427E61AF70A080B190BE09211
:103900006D04F0926E0400936F041093700489E6C6
:1039100094E06DE674E0F5D70E94442660931905A3
:1039200070931A0580931B0590931C05C8CD82E205
:1039300095E061E774E00E94B71081E08093210573
:10394000BECD8FEF42CE1092B00084E08093B100E4
:1039500081E0809370001092B60086E08093B20000
:1039600008951F920F920FB60F9211248F939F9379
:10397000AF93BF9386E08093B2008091C30590918E
:10398000C405A091C505B091C6050196A11DB11D44
:103990008093C3059093C405A093C505B093C60555
:1039A000BF91AF919F918F910F900FBE0F901F907D
:1039B0001895FC0184E1DF011D928A95E9F780E00A
:1039C00090E0A0E0B0E0808F918FA28FB38F848BC6
:1039D000958BA68BB78B848F958FA68FB78F80A37F
:1039E00091A3A2A3B3A384A395A3A6A3B7A380A7DF
:1039F00091A7A2A7B3A715A614A617A616A680E09E
:103A000090E0A0E8BFE380AB91ABA2ABB3AB14AA4C
:103A10000895FC01408F518F628F738F80E090E09A
:103A2000A0E8BFE380AB91ABA2ABB3AB0895CF925C
:103A3000DF92EF92FF920F931F93FC01408351831B
:103A4000628373830483158326833783C086D1867C
:103A5000E286F38680E090E0A0E0B0E0848795877E
:103A6000A687B787808B918BA28BB38B1F910F9109
:103A7000FF90EF90DF90CF900895FC01448B558B21
:103A8000668B778B0895CF93DF93FC0184A195A17A
:103A9000A6A1B7A1EB0188839983AA83BB8380A5E4
:103AA00091A5A2A5B3A5EA0188839983AA83BB83C4
:103AB00080E090E0A0E0B0E080A791A7A2A7B3A724
:103AC00084A395A3A6A3B7A3DF91CF910895FC018A
:103AD00084A595A50895FC0186A597A508952F9224
:103AE0003F924F925F926F927F928F929F92AF928E
:103AF000BF92CF92DF92EF92FF920F931F93DF93CB
:103B0000CF93CDB7DEB728970FB6F894DEBF0FBEC0
:103B1000CDBFF894609132067091330680913406DF
:103B2000909135060E9406057B018C016091360656
:103B30007091370680913806909139060E940605EB
:103B40005B016C011092360610923706109238060F
:103B5000109239068091360690913706A09138066A
:103B6000B09139068093320690933306A0933406C1
:103B7000B09335066090C3057090C4058090C5056C
:103B80009090C6051092C3051092C4051092C50509
:103B90001092C6057894C801B7012EEA35EA44E8C8
:103BA00058E30E9458026D837E838F839887C601F5
:103BB000B5012EEA35EA44E858E30E9458026983C9
:103BC0007A838B839C83C401B3010E94B50520E0F6
:103BD00030E04AE754E40E944F031B012C0160913E
:103BE000EB057091EC058091ED059091EE052D812E
:103BF0003E814F8158850E942F026093EB057093A0
:103C0000EC058093ED059093EE056091EF057091C2
:103C1000F0058091F1059091F205A20191010E94B9
:103C20002F026093EF057093F0058093F105909358
:103C3000F2056091200670912106809122069091F4
:103C4000230629813A814B815C810E942F02609377
:103C5000200670932106809322069093230660919C
:103C60002406709125068091260690912706A201D0
:103C700091010E942F026093240670932506809381
:103C8000260690932706C201B10120E030E040E013
:103C900050E00E94D90418160CF0DCC16090E305D6
:103CA0007090E4058090E5059090E605E090DF05D2
:103CB000F090E0050091E1051091E205C401B30127
:103CC000A80197010E942504882309F43FC0A09011
:103CD000DB05B090DC05C090DD05D090DE05C601A7
:103CE000B50120E030E040E050E00E94D904181611
:103CF0000CF07AC2C401B301A80197010E94AC0480
:103D000088230CF07AC2C201B101A60195010E947C
:103D100058025B016C01C801B701A40193010E9424
:103D20000202A60195010E94520418160CF05CC212
:103D3000C401B301A60195010E942F026093E3051F
:103D40007093E4058093E5059093E605609018066E
:103D50007090190680901A0690901B06E090140649
:103D6000F09015060091160610911706C401B301D4
:103D7000A80197010E942504882309F43FC0A09060
:103D80001006B0901106C0901206D0901306C6011E
:103D9000B50120E030E040E050E00E94D904181660
:103DA0000CF014C2C401B301A80197010E94AC0435
:103DB00088230CF045C2C201B101A60195010E9401
:103DC00058025B016C01C801B701A40193010E9474
:103DD0000202A60195010E94520418160CF0F6C1C9
:103DE000C401B301A60195010E942F026093180639
:103DF0007093190680931A0690931B068091FB0519
:103E0000882309F040C180E090E0A0E0B0E080931A
:103E1000D3059093D405A093D505B093D605809390
:103E2000D7059093D805A093D905B093DA05809370
:103E3000E7059093E805A093E905B093EA05809320
:103E4000E3059093E405A093E505B093E605809122
:103E50003006882309F43DC16091FC057091FD0591
:103E60008091FE059091FF0520E030E040E050E0B9
:103E70000E94F803882309F039C2809118069091B6
:103E80001906A0911A06B0911B0680931C06909308
:103E90001D06A0931E06B0931F06E090E705F09064
:103EA000E8050091E9051091EA05C801B7012DEC7C
:103EB0003CEC4CEC5FE30E94520418160CF048C135
:103EC0008DEC9CECACECBFE38093E7059093E805A8
:103ED000A093E905B093EA057C018D01A0901C0632
:103EE000B0901D06C0901E06D0901F06C601B501F9
:103EF0002DEC3CEC4CEC5FE30E94520418160CF0E5
:103F00000DC18DEC9CECACECBFE380931C06909350
:103F10001D06A0931E06B0931F065C016D01C8012B
:103F2000B7012DEC3CEC4CEC5FE30E944F037B01AE
:103F30008C01C601B5012DEC3CEC4CEC5FE30E941A
:103F40004F039B01AC01C801B70150D2B9D2909385
:103F5000F4058093F305B2D29093F6058093F505AE
:103F6000ABD29093290680932806A4D290932B0677
:103F700080932A0610E06091F3057091F40588277C
:103F800077FD8095982F0E94060520E030E040EAFA
:103F900052E40E94520418160CF411E01093FB0531
:103FA00010E06091280670912906882777FD80959A
:103FB000982F0E94060520E030E040EA52E40E947B
:103FC000520418160CF411E010933006A090F70577
:103FD000B090F805C090F905D090FA05C201B10182
:103FE000A60195010E94AC0488230CF0CBC0C60149
:103FF000B501A20191010E9402026093F70570933E
:10400000F8058093F9059093FA05A0902C06B090DE
:104010002D06C0902E06D0902F06C201B101A60138
:1040200095010E94AC0488230CF4C1C080E090E0AC
:10403000A0E0B0E080932C0690932D06A0932E066E
:10404000B0932F068093140690931506A09316063E
:10405000B093170628960FB6F894DEBF0FBECDBFFB
:10406000CF91DF911F910F91FF90EF90DF90CF9054
:10407000BF90AF909F908F907F906F905F904F9088
:104080003F902F9008956091C7057091C805809169
:10409000C9059091CA0520E030E040E050E00E9460
:1040A000F803882309F0F0C08091E3059091E405BE
:1040B000A091E505B091E6058093E7059093E805AA
:1040C000A093E905B093EA0580913006882309F0B2
:1040D000C3CE80E090E0A0E0B0E08093080690932B
:1040E0000906A0930A06B0930B0680930C069093E2
:1040F0000D06A0930E06B0930F0680931C069093B6
:104100001D06A0931E06B0931F0680931806909379
:104110001906A0931A06B0931B06BFCEC601B501BF
:104120002DEC3CEC4CEC5FEB0E94AC0488230CF0D3
:10413000F6CE8DEC9CECACECBFEB80931C06909320
:104140001D06A0931E06B0931F065C016D01E7CE0D
:10415000C801B7012DEC3CEC4CEC5FEB0E94AC04C9
:1041600088230CF0BBCE8DEC9CECACECBFEB8093C9
:10417000E7059093E805A093E905B093EA057C0173
:104180008D01ACCE80E090E0A0E0B0E08093F70538
:104190009093F805A093F905B093FA058093DF0595
:1041A0009093E005A093E105B093E2052ECFC60100
:1041B000B501A20191010E94020260932C06709346
:1041C0002D0680932E0690932F0644CFE09218067A
:1041D000F092190600931A0610931B068091FB05B6
:1041E000882309F410CE4FCFE092E305F092E40566
:1041F0000093E5051093E605A9CDC201B101A60122
:1042000095010E9458025B016C01C401B301A80131
:1042100097010E940202A60195010E9452041816FD
:104220001CF7C401B301A60195010E94020260932C
:10423000E3057093E4058093E5059093E60586CD4C
:10424000C201B101A60195010E9458025B016C01F7
:10425000C401B301A80197010E940202A6019501C1
:104260000E94520418160CF0B1CFC401B301A6018C
:1042700095010E94020260931806709319068093BC
:104280001A0690931B06BACDC090E705D090E805BA
:10429000E090E905F090EA056D817E818F81988537
:1042A000A20191010E944F039B01AC016091E305C3
:1042B0007091E4058091E5059091E6050E94020267
:1042C000AB01BC0187EC95E09201810189D29B0191
:1042D000AC01C701B6010E942F026093E7057093FD
:1042E000E8058093E9059093EA05B1CDC0901C06DE
:1042F000D0901D06E0901E06F0901F0669817A811D
:104300008B819C81A20191010E944F039B01AC0112
:10431000609118067091190680911A0690911B06FB
:104320000E940202AB01BC018CEF95E09201810179
:1043300057D29B01AC01C701B6010E942F026093C6
:104340001C0670931D0680931E0690931F06A5CD34
:10435000F89480913106882311F47894089510928E
:1043600031067894BCCBAED081D0EDCACF93DF9329
:10437000FC0124E1DC01822F1D928A95E9F780E09F
:1043800090E0A0E0B0E0EF0119922A95E9F7808F64
:10439000918FA28FB38F848B958BA68BB78B848FD5
:1043A000958FA68FB78F80A391A3A2A3B3A384A355
:1043B00095A3A6A3B7A380A791A7A2A7B3A715A665
:1043C00014A617A616A680E090E0A0E8BFE380AB95
:1043D00091ABA2ABB3AB14AADF91CF91089508952E
:1043E00087EC95E0C3DF8CEF95E0C0CFEF92FF92B2
:1043F0000F931F9379018A0120E030E04AE754E4EB
:104400000E94580220E030E84BE355E40E942F025E
:104410000E948E007093890060938800C801B701E4
:1044200020E030E04AE754E40E94580220E030E8FF
:104430004BE355E40E942F020E948E0070938B0084
:1044400060938A001F910F91FF90EF9008951F9243
:104450000F920FB60F9211248F9381E08093310653
:104460008F910F900FBE0F901F90189589E061E01B
:1044700076D48AE061E073D482EA809380008AE196
:104480008093810081E080936F0080E49CE99093A9
:10449000870080938600109285001092840088EB3C
:1044A0009BE0909389008093880090938B00809389
:1044B0008A00089583E031C482E02FC481E02DC4D6
:1044C00080E02BC4E8E6F0E0808184608083EDE644
:1044D000F0E080818C63808308951F920F920FB665
:1044E0000F9211242F933F938F939F93AF93BF937A
:1044F00089B1869586958695817090913A069E7FC2
:10450000982B90933A0689B186958270292F2D7F3A
:10451000282B20933A0699B192959F7091708091C3
:104520003B068E7F892B80933B0699B192959F70B5
:1045300092708D7F892B80933B06322F317020FD46
:1045400069C080913C0680FF69C021FD21C1809136
:10455000320690913306A0913406B091350601974A
:10456000A109B1098093320690933306A0933406D3
:10457000B093350680913C0681FDC3C090913B0607
:10458000292F217090FD6CC080913D0680FF6CC08A
:1045900091FD12C18091360690913706A0913806A0
:1045A000B09139060197A109B1098093360690931D
:1045B0003706A0933806B093390680913D0681FFF7
:1045C00016C0222309F459C080913606909137060F
:1045D000A0913806B09139060197A109B1098093DD
:1045E000360690933706A0933806B093390680912B
:1045F0003A0690913B0690933D0680933C06BF910E
:10460000AF919F918F913F912F910F900FBE0F907F
:104610001F90189580913C0680FF43C021FFAACFD0
:1046200080913C0681FDAACF332309F06DC08091B3
:10463000320690913306A0913406B0913506019769
:10464000A109B1098093320690933306A0933406F2
:10465000B093350690913B06292F217090FF94CF9F
:1046600080913D0680FF37C091FFA7CF80913D0626
:1046700081FDBDCF222309F4A7CF8091360690910A
:104680003706A0913806B09139060196A11DB11DDB
:104690008093360690933706A0933806B093390678
:1046A000A6CF21FD5DC08091320690913306A09186
:1046B0003406B09135060196A11DB11D80933206D6
:1046C00090933306A0933406B093350680913C0650
:1046D00081FF54CF16C091FD2BC08091360690917A
:1046E0003706A0913806B09139060196A11DB11D7B
:1046F0008093360690933706A0933806B093390618
:104700005CCF332309F093CF80913206909133062A
:10471000A0913406B09135060196A11DB11D80937C
:10472000320690933306A0933406B093350626CF15
:104730008091360690913706A0913806B0913906DF
:104740000197A109B1098093360690933706A0938B
:104750003806B093390680913D0681FD48CF8ACF57
:104760008091320690913306A0913406B0913506BF
:104770000197A109B1098093320690933306A09363
:104780003406B093350680913C0681FDF7CE4CCFC0
:104790008091320690913306A0913406B09135068F
:1047A0000196A11DB11D8093320690933306A0930C
:1047B0003406B093350634CF809136069091370693
:1047C000A0913806B09139060196A11DB11D8093C4
:1047D000360690933706A0933806B093390646CF35
:1047E0006F927F928F929F92AF92BF92CF92DF9201
:1047F000EF92FF920F931F93CF93DF93EC015A0137
:104800006B0138014901CB01BA01A90198010E944D
:1048100058022C853D854E855F850E942F027B01C5
:104820008C016C877D878E879F8720E030E040E891
:104830005FE30E94520418160CF04FC080E090E035
:10484000A0E8BFE38C879D87AE87BF87C601B5010F
:10485000288139814A815B810E9458027B018C0149
:104860006C817D818E819F812C853D854E855F8504
:104870000E9458029B01AC01C801B7010E942F029F
:104880007B018C01C601B501288939894A895B8978
:104890000E940202288539854A855B850E9458025C
:1048A000A40193010E944F039B01AC01C801B70111
:1048B0000E942F02A88AB98ACA8ADB8ADF91CF9127
:1048C0001F910F91FF90EF90DF90CF90BF90AF902E
:1048D0009F908F907F906F900895C801B70120E05E
:1048E00030E040E85FEB0E94AC0488230CF0AECFD0
:1048F00080E090E0A0E8BFEB8C879D87AE87BF8704
:10490000A5CFAF92BF92CF92DF92EF92FF920F931B
:104910001F936C015B01FB01E080F1800281138138
:10492000C801B70120E03AEC4AE95BE3AFD2F601F7
:1049300080819181A281B381820F931FA41FB51F33
:1049400080839183A283B383C801B70120E03AEC4E
:104950004AE95BE39BD2F501608371838283938391
:104960001F910F91FF90EF90DF90CF90BF90AF908D
:1049700008951F920F920FB60F9211242F933F9319
:104980004F938F939F93EF93FF934091C600E091D5
:10499000BE06F091BF0631969F012F773070319798
:1049A0008091C0069091C1062817390739F0E25C62
:1049B000F94F40833093BF062093BE06FF91EF91DD
:1049C0009F918F914F913F912F910F900FBE0F901C
:1049D0001F901895CF93DF93EC019A01AB01203023
:1049E00081EE380780E0480780E0580709F449C0A5
:1049F000E885F98581E090E00A8802C0880F991F58
:104A00000A94E2F7808360E079E08DE390E060D281
:104A10002150304040405040CA01B90122E030E00E
:104A200040E050E055D2EC81FD813083EE81FF8182
:104A30002083EA85FB85208141E050E0CA010E8495
:104A400002C0880F991F0A94E2F7282B2083EA8579
:104A5000FB852081CA010F8402C0880F991F0A9428
:104A6000E2F7282B2083EA85FB858081088802C035
:104A7000440F551F0A94E2F7842B8083DF91CF9176
:104A80000895E885F985108230E020E1CCCFDC0183
:104A90001296ED91FC911397E058FF4F21913191BF
:104AA00080819181281B390B2F773070C9010895BF
:104AB000DC011296ED91FC911397EE57FF4F208188
:104AC000318192918291E058F0408217930739F03A
:104AD000E20FF31F8081282F30E0C90108952FEFE6
:104AE0003FEFC9010895DC011296ED91FC911397F7
:104AF000DF01AE57BF4F2D913C911197E058FF4F0A
:104B000080819181E058F0408217930769F0E20FAD
:104B1000F31F80812F5F3F4F2F7730702D933C9391
:104B2000282F30E0C90108952FEF3FEFC901089504
:104B3000DC011296ED91FC911397EE57FF4F8081A7
:104B40009181929382930895DC011896ED91FC91E6
:104B5000199751962C915197808190E0022E02C0B6
:104B6000959587950A94E2F780FFF6CF1C96ED9114
:104B7000FC911D976083089589EC93E09093C306A0
:104B80008093C2068EE396E09093C5068093C40698
:104B900085EC90E09093C7068093C60684EC90E085
:104BA0009093C9068093C80680EC90E09093CB0662
:104BB0008093CA0681EC90E09093CD068093CC065A
:104BC00086EC90E09093CF068093CE0684E08093AD
:104BD000D00683E08093D10687E08093D20685E0FB
:104BE0008093D30681E08093D40608955BD00E9421
:104BF00025080E942108FDCF1F920F920FB60F9239
:104C000011242F933F938F939F93AF93BF938091E2
:104C1000D9069091DA06A091DB06B091DC063091BE
:104C2000DD060196A11DB11D232F2D5F2D3720F02C
:104C30002D570196A11DB11D2093DD068093D90645
:104C40009093DA06A093DB06B093DC068091D5063C
:104C50009091D606A091D706B091D8060196A11DD5
:104C6000B11D8093D5069093D606A093D706B09336
:104C7000D806BF91AF919F918F913F912F910F9047
:104C80000FBE0F901F9018958FB7F8942091D906FA
:104C90003091DA064091DB065091DC068FBFB901F6
:104CA000CA010895789484B5826084BD84B581601A
:104CB00084BD85B5826085BD85B5816085BDEEE624
:104CC000F0E0808181608083E1E8F0E01082808103
:104CD00082608083808181608083E0E8F0E0808171
:104CE00081608083E1EBF0E0808184608083E0EB91
:104CF000F0E0808181608083EAE7F0E08081846079
:104D000080838081826080838081816080838081D4
:104D1000806880831092C1000895982F8E3008F02B
:104D20009E509770809106038295880F880F807C33
:104D3000892B80937C0080917A00806480937A0034
:104D400080917A0086FDFCCF209178004091790017
:104D5000942F80E030E0282B392BC9010895482F8B
:104D600050E0CA0186569F4FFC0124914A575F4F7D
:104D7000FA018491882381F0E82FF0E0EE0FFF1F05
:104D8000E859FF4FA591B491662339F09FB7F89485
:104D90008C91822B8C939FBF08959FB7F8948C9130
:104DA000209582238C939FBF08950F931F93CF93D9
:104DB000DF938C01EB016881662361F02196D801B5
:104DC000ED91FC910190F081E02DC8010995688179
:104DD0006623A1F7DF91CF911F910F910895EF9274
:104DE000FF920F931F93CF93DF938C017B014115AB
:104DF000510599F0EA01219701C0EC01D7016D91AD
:104E00007D01D801ED91FC910190F081E02DC80168
:104E10000995CE010197CD2B81F7DF91CF911F919D
:104E20000F91FF90EF900895629FD001739FF00162
:104E3000829FE00DF11D649FE00DF11D929FF00D2A
:104E4000839FF00D749FF00D659FF00D9927729F61
:104E5000B00DE11DF91F639FB00DE11DF91FBD01EC
:104E6000CF011124089597FB092E07260AD077FD5C
:104E700004D049D006D000201AF4709561957F4F78
:104E80000895F6F7909581959F4F0895A1E21A2E07
:104E9000AA1BBB1BFD010DC0AA1FBB1FEE1FFF1FDE
:104EA000A217B307E407F50720F0A21BB30BE40B2E
:104EB000F50B661F771F881F991F1A9469F7609575
:104EC0007095809590959B01AC01BD01CF0108952F
:104ED00097FB092E05260ED057FD04D0D7DF0AD048
:104EE000001C38F450954095309521953F4F4F4F19
:104EF0005F4F0895F6F790958095709561957F4F77
:104F00008F4F9F4F0895AA1BBB1B51E107C0AA1FDB
:104F1000BB1FA617B70710F0A61BB70B881F991F5A
:104F20005A95A9F780959095BC01CD0108952F92CF
:104F30003F924F925F926F927F928F929F92AF9229
:104F4000BF92CF92DF92EF92FF920F931F93CF9376
:104F5000DF93CDB7DEB7CA1BDB0B0FB6F894DEBF0D
:104F60000FBECDBF09942A88398848885F846E8433
:104F70007D848C849B84AA84B984C884DF80EE807D
:104F8000FD800C811B81AA81B981CE0FD11D0FB686
:104F9000F894DEBF0FBECDBFED010895EE0FFF1FE9
:104FA0000590F491E02D0994CF93DF93BC018230FA
:104FB000910510F462E070E0A091E006B091E10686
:104FC000ED01E0E0F0E040E050E021C0888199810F
:104FD0008617970769F48A819B81309719F093832C
:104FE000828304C09093E1068093E006FE0134C002
:104FF0006817790738F44115510519F0841795079A
:1050000008F4AC01FE018A819B819C01E901209793
:10501000E9F641155105A9F1CA01861B970B0497C2
:1050200008F4BA01E0E0F0E02AC08D919C9111975C
:1050300084179507F9F46417750781F412968D911A
:105040009C911397309719F09383828304C09093B7
:10505000E1068093E006FD0132964FC0CA01861B2F
:10506000970BFD01E80FF91F6193719302978D93E0
:105070009C9343C0FD01828193819C01D9011097CB
:10508000A1F68091DE069091DF06892B41F4809194
:105090000203909103039093DF068093DE06409114
:1050A0000403509105034115510541F44DB75EB716
:1050B0008091000390910103481B590B2091DE065B
:1050C0003091DF0624173507B0F4CA01821B930B19
:1050D0008617970780F0AB014E5F5F4F84179507E7
:1050E00050F0420F531F5093DF064093DE06F90144
:1050F0006193719302C0E0E0F0E0CF01DF91CF91C6
:105100000895CF93DF93009709F450C0EC012297E4
:105110001B821A82A091E006B091E106109709F176
:1051200040E050E0AC17BD0708F1BB83AA83FE0145
:1051300021913191E20FF31FAE17BF0779F48D91E2
:105140009C911197280F391F2E5F3F4F3983288379
:1051500012968D919C9113979B838A8341155105DB
:1051600071F4D093E106C093E00620C012968D91B1
:105170009C911397AD01009711F0DC01D3CFFA0198
:10518000D383C28321913191E20FF31FCE17DF0742
:1051900069F488819981280F391F2E5F3F4FFA01EA
:1051A000318320838A819B8193838283DF91CF9196
:1051B0000895A0E0B0E0EEEDF8E2BFCE8C010097DC
:1051C00021F4CB01F1DE8C01B6C09EEFE92E9FEFFA
:1051D000F92EE00EF11E5801A60EB71EAE14BF0444
:1051E00008F4A7C08EEF882E8FEF982E8A0C9B1C98
:1051F000E7014881598146175707B0F045305105FE
:1052000008F499C0CA0104978617970708F493C059
:1052100042505040461B570BF40151834083798321
:105220006883C5016EDF87C06B01C41AD50AE0919F
:10523000E006F091E106A0E0B0E0C0E0D0E042C0BE
:10524000E815F905A1F5208131812C153D0578F18E
:10525000C90102968C159D05A8F04E5F5F4F420F65
:10526000531FE7015983488322813381109729F026
:1052700013963C932E9312975EC03093E1062093D1
:10528000E00659C0225030402C193D09318320835B
:10529000109729F01396FC93EE93129704C0F093A5
:1052A000E106E093E006F7017183608344C08081EA
:1052B0009181C817D90708F4EC01DF01828193813D
:1052C0009C01F901309709F0BBCF400F511F80912D
:1052D000DE069091DF0684179507E9F4C617D70715
:1052E000D0F420910403309105032115310541F4D8
:1052F0002DB73EB78091000390910103281B390B15
:10530000A216B306B0F4B092DF06A092DE06E70163
:105310007983688310C0CB0147DEEC01009749F028
:10532000F70140815181B8010BD0C801EADE8E013E
:1053300002C000E010E0C801CDB7DEB7ECE019CE46
:10534000FB01DC0102C001900D9241505040D8F7A2
:10535000089510E0C8ECD0E003C0FE0121DE2296E3
:0A536000CA3CD107D1F7F894FFCF43
:10536A00626173655F6D7367732F736574506964E7
:10537A0000626173655F6D7367732F736574537031
:10538A0065656400626173655F6D7367732F73652A
:10539A0074416363656C00626173655F6D73677303
:1053AA002F6D6F746F7252737400626173655F6DF3
:1053BA007367732F6D6F746F724F646F6D006261E4
:1053CA0073655F6D7367732F706F776572496E6669
:1053DA006F007374645F6D7367732F456D707479B2
:1053EA00007374645F6D7367732F54696D6500721F
:1053FA006F7373657269616C5F6D7367732F546F36
:10540A00706963496E666F006D6F746F725069647C
:10541A00006D6F746F725370656564006D6F746FA1
:10542A0072416363656C006D6F746F725265736568
:10543A0074007265714F646F6D00726571506F7799
:10544A006572006D6F746F724F646F6D006D6F746B
:10545A006F72506F77657200000000000000000054
:10546A000001020203030303040404040404040401
:10547A0005050505050505050505050505050505D2
:10548A0006060606060606060606060606060606B2
:10549A0006060606060606060606060606060606A2
:1054AA000707070707070707070707070707070782
:1054BA000707070707070707070707070707070772
:1054CA000707070707070707070707070707070762
:1054DA000707070707070707070707070707070752
:1054EA000808080808080808080808080808080832
:1054FA000808080808080808080808080808080822
:10550A000808080808080808080808080808080811
:10551A000808080808080808080808080808080801
:10552A0008080808080808080808080808080808F1
:10553A0008080808080808080808080808080808E1
:10554A0008080808080808080808080808080808D1
:10555A0008080808080808080808080808080808C1
:10556A002000E206000001000000001816000000FA
:10557A00004C0F3C0DCE0D00000000A20CD10C39DE
:10558A000D00000000D40D00000000B40FB710D1C8
:10559A000D726F7373657269616C5F6D7367732FD8
:1055AA0052657175657374506172616D0000000017
:1055BA0000D814690E6C0E000000002B086D080953
:1055CA0009000000006614630E660E000000000C5D
:1055DA00093B09A90900000000F4135D0E600E00E2
:1055EA00000000AC09DB09490A00000000500E5710
:1055FA000E5A0E000000004C0A4F0A520A00000020
:10560A0000430E4A0E4D0E00000000990C9C0C9FA0
:10561A000C00000000550AAA0A740B00000000776B
:10562A000BCC0B960C00000000A425D526EF2647CC
:08563A00257325582598250071
:00000001FF
