:10000000FFC0000025C1000023C1000021C1000085
:100010001FC100001DC100001BC1000019C100006C
:1000200017C1000015C1000013C1000011C100007C
:100030000FC100000DC100000BC1000009C100008C
:100040000C94171705C100000C94D51501C10000D0
:10005000FFC00000FDC00000FBC00000F9C00000B0
:100060000C94AC14F5C000004E15FC14FC14FC14E8
:10007000FC14FC14FC14FC145815FC14FC14FC14A3
:10008000FC14FC14FC14FC145815FC14FC14FC1493
:10009000FC14FC14FC14FC146015FC14FC14FC147B
:1000A000FC14FC14FC14FC146F15FC14FC14FC145C
:1000B000FC14FC14FC14FC146015FC14FC14FC145B
:1000C000FC14FC14FC14FC149A15FC14FC14FC1411
:1000D000FC14FC14FC14FC14A515FC14FC14FC14F6
:1000E000FC14FC14FC14FC142215FC14FC14FC1469
:1000F000FC14FC14FC14FC143515FC14FC14FC1446
:10010000FC14FC14FC14FC141615FC14FC14FC1454
:10011000FC14FC14FC14FC142915FC14FC14FC1431
:10012000FC14FC14FC14FC144515FC14FC14FC1405
:10013000FC14FC14FC14FC144515FC14FC14FC14F5
:10014000FC14FC14FC14FC144515FC14FC14FC14E5
:10015000FC14FC14FC14FC144515FC14FC14FC14D5
:10016000FC14FC14FC14FC140D15FC14FC14FC14FD
:10017000FC14FC14FC14FC141215FC14FC14FC14E8
:10018000FC14FC14FC14FC140D15FC14FC14FC14DD
:10019000FC14FC14FC14FC141215FC14FC14FC14C8
:1001A000FC14FC14FC14FC147A15FC14FC14FC1450
:1001B000FC14FC14FC14FC14D214FC14FC14FC14E9
:1001C000FC14FC14FC14FC14D214FC14FC14FC14D9
:1001D000FC14FC14FC14FC14E714FC14FC14FC14B4
:1001E000FC14FC14FC14FC143F15FC14FC14FC144B
:1001F000FC14FC14FC14FC143F158F0ADD13D816F4
:1002000011241FBECFEFD8E0DEBFCDBF12E0A0E0CB
:10021000B1E0ECEFF4E302C005900D92AE3DB10702
:10022000D9F717E0AEEDB2E001C01D92A734B107D7
:10023000E1F711E0C0E0D2E004C02297FE010E9485
:10024000A318CA3FD107C9F70E9412170C947C1A51
:10025000D7CEA0E0B0E0EFE2F1E00C946A18DC0148
:100260002B01FA019C91923008F439C1EB0188818D
:10027000823008F433C1943069F4843009F02FC11E
:1002800011969C9111978981981709F428C1A9E5C5
:10029000B1E025C1843009F421C18230A9F4923043
:1002A00009F01DC19A01AD0188E0EA010990AE0193
:1002B000E90109929E018150C1F7E20189811196FD
:1002C0009C918923818308C1923009F407C1129659
:1002D0002D903C901397EB018A819B811496AD90F1
:1002E000BD90CD90DC901797EC80FD800E811F8132
:1002F0009101281B390BB90137FF04C06627772706
:10030000621B730B603271050CF061C0121613068C
:100310006CF537014801062E04C0969487947794B3
:1003200067940A94D2F721E030E040E050E004C046
:10033000220F331F441F551F6A95D2F721503040BA
:10034000404050402E213F214023512321153105AB
:100350004105510521F021E030E040E050E0790115
:100360008A01E628F728082919293CC0232BD1F156
:10037000260E371E35014601062E04C0969487943A
:10038000779467940A94D2F721E030E040E050E09F
:1003900004C0220F331F441F551F6A95D2F7215006
:1003A0003040404050402A213B214C215D21211505
:1003B00031054105510521F021E030E040E050E0F9
:1003C00059016A01A628B728C828D9280BC0821568
:1003D00093052CF01C01AA24BB24650103C0EE2464
:1003E000FF24870111969C91D20111968C91981748
:1003F00009F445C0992339F0A80197012A193B094E
:100400004C095D0906C0A60195012E193F09400B54
:10041000510B57FD08C01182338222822483358319
:10042000468357831DC081E08183338222828827DF
:100430009927DC01821B930BA40BB50B8483958356
:10044000A683B7830DC0220F331F441F551F24837B
:100450003583468357838281938101979383828377
:100460002481358146815781DA01C9010197A109AB
:10047000B1098F5F9F4FAF4FBF4328F30BC09183EC
:1004800033822282EA0CFB1C0C1D1D1DE482F582C6
:100490000683178383E080832481358146815781D9
:1004A00057FF1AC0C901AA2797FDA095BA2F8170DE
:1004B0009070A070B0705695479537952795822B10
:1004C000932BA42BB52B84839583A683B78382813A
:1004D0009381019693838283DF0101C0D201CD0114
:1004E000CDB7DEB7E2E10C948618A0E2B0E0EBE70E
:1004F000F2E00C94761869837A838B839C832D8336
:100500003E834F835887E9E0EE2EF12CEC0EFD1E62
:10051000CE010196B701B9D38E010F5E1F4FCE01F8
:100520000596B801B2D38A8991E089278A8BC701E1
:10053000B801AE01475E5F4F8CDED2D2A096E6E0F6
:100540000C949218A0E2B0E0E8EAF2E00C9476187D
:1005500069837A838B839C832D833E834F83588763
:10056000F9E0EF2EF12CEC0EFD1ECE010196B70145
:100570008CD38E010F5E1F4FCE010596B80185D337
:10058000C701B801AE01475E5F4F63DEA9D2A096F6
:10059000E6E00C949218A0E2B0E0E1EDF2E00C94F9
:1005A0006A1869837A838B839C832D833E834F8370
:1005B0005887CE010196BE01675F7F4F66D3CE019B
:1005C0000596BE016F5E7F4F60D39985923088F0AB
:1005D00089898230C8F0943019F4823051F404C013
:1005E000843029F4923081F489E591E0C6C09230DC
:1005F00049F420E09A858A89981321E02A87CE0160
:100600000996BBC0823049F420E09A858A89981304
:1006100021E02A8BCE014196B0C02D843E844F84C8
:1006200058886D887E888F88988CEE24FF248701F7
:10063000AA24BB24650140E050E060E070E0E0E007
:10064000F0E0C10181709070892BE9F0E60CF71C95
:10065000081D191D9A01AB012A0D3B1D4C1D5D1D86
:1006600080E090E0A0E0B0E0E614F704080519058A
:1006700020F481E090E0A0E0B0E0BA01A901480FC9
:10068000591F6A1F7B1FAA0CBB1CCC1CDD1C97FECC
:1006900008C081E090E0A0E0B0E0A82AB92ACA2A08
:1006A000DB2A3196E032F10549F0660C771C881C94
:1006B000991C5694479437942794C3CFFA85EA89B6
:1006C0002B893C898B859C85280F391F2E5F3F4FD6
:1006D00017C0CA0181709070892B61F0169507953B
:1006E000F794E79480E090E0A0E0B0E8E82AF92AE7
:1006F0000A2B1B2B76956795579547952F5F3F4F94
:1007000077FDE7CF0CC0440F551F661F771F17FDFD
:100710004160EE0CFF1C001F111F21503040403083
:1007200090E0590790E0690790E4790760F32B8F18
:100730003C8FDB01CA018F779070A070B07080345D
:100740009105A105B10561F447FD0AC0E114F1046A
:100750000105110529F0405C5F4F6F4F7F4F4078D6
:100760001A8EFE1711F081E08A8F4D8F5E8F6F8F8A
:1007700078A383E0898FCE014996B2D1A096E2E1B9
:100780000C948618A8E1B0E0E8ECF3E00C94721841
:1007900069837A838B839C832D833E834F83588721
:1007A000B9E0EB2EF12CEC0EFD1ECE010196B70147
:1007B0006CD28E010F5E1F4FCE010596B80165D237
:1007C0002985223008F47EC03989323010F4B8010E
:1007D0007CC08A859A8989278A87243011F0223043
:1007E00031F4231709F06EC069E571E06EC0343052
:1007F00039F41D861E861F86188A1C861B8604C037
:10080000323021F484E08987B7015FC02B853C85B5
:100810008B899C89281B390B3C872B87ED84FE84B0
:100820000F851889AD88BE88CF88D88CEA14FB0460
:100830000C051D0540F4EE0CFF1C001F111F21507C
:1008400030403C872B8720E030E040E050E080E003
:1008500090E0A0E0B0E460E070E0EA14FB040C0576
:100860001D0540F0282B392B4A2B5B2BEA18FB087F
:100870000C091D09B695A79597958795EE0CFF1C59
:10088000001F111F6F5F7F4F6F31710531F7DA0164
:10089000C9018F779070A070B07080349105A10568
:1008A000B10561F427FD0AC0E114F1040105110549
:1008B00029F0205C3F4F4F4F5F4F20782D873E87B8
:1008C0004F87588BBE01675F7F4FCB0109D1689678
:1008D000EAE00C948E18A8E1B0E0E1E7F4E00C94B3
:1008E000761869837A838B839C832D833E834F8321
:1008F000588789E0E82EF12CEC0EFD1ECE01019602
:10090000B701C3D18E010F5E1F4FCE010596B8010E
:10091000BCD18985823038F08989823020F0C701C6
:10092000B8012BD201C08FEF6896E6E00C949218C4
:10093000A8E1B0E0EEE9F4E00C94761869837A83DC
:100940008B839C832D833E834F83588789E0E82ED9
:10095000F12CEC0EFD1ECE010196B70196D18E0151
:100960000F5E1F4FCE010596B8018FD18985823069
:1009700038F08989823020F0C701B801FED101C06A
:1009800081E06896E6E00C949218A8E0B0E0EBEC09
:10099000F4E00C9473189B01AC0183E08983DA01C5
:1009A000C9018827B7FD83959927AA27BB27B82EA9
:1009B000211531054105510519F482E0898339C0BB
:1009C0008823A9F0203080E0380780E0480780E8DD
:1009D000580729F460E070E080E09FEC2EC0EE2420
:1009E000FF248701E21AF30A040B150B02C07901F8
:1009F0008A018EE1C82ED12CDC82CB82ED82FE8270
:100A00000F831887C801B7011CD001971816190663
:100A100084F4082E04C0EE0CFF1C001F111F0A9462
:100A2000D2F7ED82FE820F831887C81AD90ADC82BA
:100A3000CB82BA82CE01019653D02896E9E00C947D
:100A40008F18EF92FF920F931F937B018C0180E030
:100A5000E81680E0F80681E0080780E0180788F4CF
:100A60008FEFE816F1040105110531F028F088E058
:100A700090E0A0E0B0E017C080E090E0A0E0B0E03F
:100A800012C080E0E81680E0F80680E0080781E008
:100A9000180728F088E190E0A0E0B0E004C080E111
:100AA00090E0A0E0B0E020E230E040E050E0281B21
:100AB000390B4A0B5B0B04C016950795F794E79426
:100AC0008A95D2F7F701EF59FE4F8081281B310933
:100AD00041095109C9011F910F91FF90EF900895AD
:100AE000DF92EF92FF920F931F93FC01E480F58059
:100AF00006811781D1808081823048F480E090E0C7
:100B0000A0E1B0E0E82AF92A0A2B1B2BA5C084300B
:100B100009F49FC0823021F4EE24FF24870105C030
:100B2000E114F1040105110519F4E0E0F0E096C0CC
:100B3000628173819FEF623879070CF05BC022E815
:100B40003FEF261B370B2A3131052CF020E030E037
:100B500040E050E02AC0B801A701022E04C07695FB
:100B60006795579547950A94D2F781E090E0A0E009
:100B7000B0E004C0880F991FAA1FBB1F2A95D2F7A7
:100B80000197A109B1098E219F21A023B1230097CC
:100B9000A105B10521F081E090E0A0E0B0E09A016C
:100BA000AB01282B392B4A2B5B2BDA01C9018F773C
:100BB0009070A070B07080349105A105B10539F432
:100BC00027FF09C0205C3F4F4F4F5F4F04C0215C9F
:100BD0003F4F4F4F5F4FE0E0F0E02030A0E03A079A
:100BE000A0E04A07A0E45A0710F0E1E0F0E0790144
:100BF0008A0127C06038710564F5FB01E158FF4F99
:100C0000D801C7018F779070A070B07080349105C3
:100C1000A105B10539F4E7FE0DC080E490E0A0E045
:100C2000B0E004C08FE390E0A0E0B0E0E80EF91E71
:100C30000A1F1B1F17FF05C016950795F794E79429
:100C4000319687E016950795F794E7948A95D1F742
:100C500005C0EE24FF248701EFEFF0E06E2F6795CB
:100C600066276795902F9F77D794DD24D7948E2F92
:100C70008695492F462B582F5D29B701CA011F9130
:100C80000F91FF90EF90DF900895FC01DB01408110
:100C900051812281622F6F7770E0221F2227221F4D
:100CA0009381892F880F822B282F30E0991F992755
:100CB000991F11969C93119721153105A9F541159E
:100CC00051056105710511F482E037C082E89FEF9C
:100CD00013969C938E9312979A01AB0167E0220FB3
:100CE000331F441F551F6A95D1F783E08C930DC0C5
:100CF000220F331F441F551F12968D919C911397FD
:100D0000019713969C938E931297203080E03807BA
:100D100080E0480780E4580758F314962D933D93DC
:100D20004D935C93179708952F3F310579F4411542
:100D300051056105710519F484E08C93089564FFF1
:100D400003C081E08C9312C01C9210C02F5730401A
:100D500013963C932E93129783E08C9387E0440F75
:100D6000551F661F771F8A95D1F7706414964D93AF
:100D70005D936D937C93179708951F93DC01FB019E
:100D80009C91923008F447C08081823008F443C0BF
:100D9000943051F411961C91843099F58181682F1B
:100DA00070E0611B71093FC0843021F0923031F452
:100DB0008230B9F18181882389F12DC011961C916F
:100DC00011978230F1F081811817D9F412962D9184
:100DD0003C911397828193818217930794F028178F
:100DE0003907BCF014968D919D910D90BC91A02D6A
:100DF0002481358146815781281739074A075B07C7
:100E000018F4112341F00AC082179307A407B5070D
:100E100040F4112319F061E070E005C06FEF7FEF3F
:100E200002C060E070E0CB011F910895CF93DF9383
:100E3000FC0182819381A481B581EB018883292FF4
:100E40003A2F4B2F552729839D01442755272A8365
:100E50008B2F9927AA27BB278B8386819781A08513
:100E6000B1858C83292F3A2F4B2F55272D839D0138
:100E7000442755272E838B2F9927AA27BB278F839B
:100E800088E090E0DF91CF9108950F931F938C013C
:100E9000FB01218130E040E050E0542F432F322FFE
:100EA0002227828190E0A0E0B0E0DC01992788272A
:100EB000282B392B4A2B5B2B808190E0A0E0B0E0FF
:100EC000282B392B4A2B5B2B838190E0A0E0B0E0EC
:100ED000B82FAA2799278827282B392B4A2B5B2B39
:100EE000D80112962C93129713963C93139714964D
:100EF0004C93149715965C93258130E040E050E0C8
:100F0000542F432F322F2227868190E0A0E0B0E0BB
:100F1000DC0199278827282B392B4A2B5B2B8481CE
:100F200090E0A0E0B0E0282B392B4A2B5B2B878187
:100F300090E0A0E0B0E0B82FAA2799278827282BB7
:100F4000392B4A2B5B2BF801268337834087518747
:100F500088E090E01F910F91089580E091E008955E
:100F60006F927F928F929F92AF92BF92CF92DF92B9
:100F7000EF92FF920F931F93CF93DF933C01EB010E
:100F8000398120E0888190E0822B932BD301129647
:100F90008C93129713969C93CA80DB80EC80FD8023
:100FA000970186010A5F1F4F2F4F3F4F07301105F2
:100FB0002105310590F046E050E0FE01E40FF51FF9
:100FC0008081319780834F5F5F4FCA01A0E0B0E01E
:100FD00080179107A207B30780F3F6013696EC0F4E
:100FE000FD1F129231962596D3011596DC93CE9370
:100FF0001497259780809180A280B3808601065F38
:101000001F4FA801662757FD6095762F480D591D83
:101010006A1D7B1DC801A0E0B0E084179507A607F4
:10102000B70788F49801FE01E20FF31F8081319722
:1010300080832F5F3F4FC901A0E0B0E08417950780
:10104000A607B70780F39801280D391DFE01E20FAE
:10105000F31F31971082015010400C0F1D1FF30138
:1010600017830683C901DF91CF911F910F91FF90E4
:10107000EF90DF90CF90BF90AF909F908F907F9038
:101080006F9008958EE091E008958BE992E00895C5
:10109000CF93DF93FC0182819381A481B581EB0121
:1010A0008883292F3A2F4B2F552729839D014427C9
:1010B00055272A838B2F9927AA27BB278B838681C5
:1010C0009781A085B1858C83292F3A2F4B2F5527E7
:1010D0002D839D01442755272E838B2F9927AA27DF
:1010E000BB278F8382859385A485B5858887292F23
:1010F0003A2F4B2F552729879D01442755272A87AB
:101100008B2F9927AA27BB278B878CE090E0DF9154
:10111000CF910895EF92FF920F931F93CF93DF9398
:101120007C01FB01218130E040E050E0542F432F4F
:10113000322F2227828190E0A0E0B0E0DC019927E5
:101140008827282B392B4A2B5B2B808190E0A0E04D
:10115000B0E0282B392B4A2B5B2B838190E0A0E059
:10116000B0E0B82FAA2799278827282B392B4A2B9C
:101170005B2BC901A42FB52FE7018A839B83AC8326
:10118000BD83258130E040E050E0542F432F322FC3
:101190002227868190E0A0E0B0E0DC019927882733
:1011A000282B392B4A2B5B2B848190E0A0E0B0E008
:1011B000282B392B4A2B5B2B878190E0A0E0B0E0F5
:1011C000B82FAA2799278827282B392B4A2B5B2B46
:1011D000C901A42FB52F8E839F83A887B987218546
:1011E00030E040E050E0542F432F322F22278285F9
:1011F00090E0A0E0B0E0DC0199278827282B392B6C
:101200004A2B5B2B808590E0A0E0B0E0282B392BA7
:101210004A2B5B2B838590E0A0E0B0E0B82FAA2793
:1012200099278827282B392B4A2B5B2BC901DA01F8
:10123000F70182879387A487B5878CE090E0DF91E0
:10124000CF911F910F91FF90EF90089587E291E069
:10125000089580E090E0089580E090E008958BE3A9
:1012600091E00895EF92FF920F931F938091D9051B
:101270008D3429F01F910F91FF90EF900895809188
:10128000DA058434B9F78091DB05823599F78091CE
:10129000DC05833479F78091E605813259F7809136
:1012A000E505813239F780E090E0EDE420E030E0C0
:1012B00004C0FC01E752FA4FE0812E0F2093EA05AB
:1012C000320F3093EB0501968A30910594F38091AB
:1012D000E305821779F68091E405381759F6709185
:1012E000DD0560E02091DE0530E0622B732B88275E
:1012F00077FD8095982F49DB20E030E048EC52E400
:1013000041DA25E33AEF4EE85CE345D96093E40225
:101310007093E5028093E6029093E7026091E00506
:1013200070E0882777FD8095982F2FDB20E030E054
:1013300048EC52E427DA25E33AEF4EE85CE32BD998
:101340006093E8027093E9028093EA029093EB02C3
:101350007091E10560E02091E205620F711D882720
:1013600077FD8095982F11DB20E030E048EC52ECBF
:1013700009DA20E030E044EB52E4E4D825E33AEF28
:101380004EE85CE308D907C0C801B70128ED3FE08B
:1013900049EC50E4D7D87B018C016093E002709354
:1013A000E1028093E2029093E30228ED3FE049E4FA
:1013B00050ECBEDA882344F3E090E002F090E102C2
:1013C0000091E2021091E30211C0C801B70128EDBB
:1013D0003FE049EC50E489D87B018C016093E00246
:1013E0007093E1028093E2029093E302C801B70197
:1013F00028ED3FE049E450E46EDA181634F3E0914A
:10140000CD05F091CE05A081B1816091CB057091A1
:10141000CC054091C9055091CA052D913C91CF0151
:10142000F901099527CFCF92DF92EF92FF920F93A8
:101430001F93CF93DF938C01F62EDA01FC01848198
:10144000882361F4EE24FF24C701DF91CF911F911F
:101450000F91FF90EF90DF90CF900895ED91FC9168
:10146000B801655F7F4F0190F081E02DCA010995B9
:10147000DC018FEFF80185838683F7821086A187D0
:101480001286BD016B5F7F4F623071058CF040E0CA
:1014900050E022E030E0F801E20FF31F8581480FB1
:1014A000511D2F5F3F4F62177307ACF7842F809554
:1014B000F801EA0FFB1F838787E0E82EF12CEA0E84
:1014C000FB1ED8011296CD90DC9013971E141F04BA
:1014D0000CF0BACFC0E0D0E0F601A081B181ED916F
:1014E000FC91119798012C0F3D1F0190F081E02D88
:1014F000CD01D90115966C9109952196CE15DF0580
:101500005CF3A2CFFC01208531850696F90109958F
:10151000089581E090E008958BE391E008958BE6D3
:1015200092E09093DF028093DE0285E792E0909351
:10153000ED028093EC0287E297E09093EF028093B4
:10154000EE0280E091EEA0E0B0E08093F002909394
:10155000F102A093F202B093F3028FE892E090932D
:10156000F5028093F4028EEE92E09093F70280935E
:10157000F6021092F80285E992E09093B305809309
:10158000B2058AE491E09093C8058093C7058EED7B
:1015900092E09093CA058093C9058BEB92E09093FB
:1015A000D0058093CF0585EC92E09093D60580938B
:1015B000D5058EE491E09093D4058093D3058FE513
:1015C0009EE09093D8058093D7050895AF92BF927F
:1015D000CF92DF92EF92FF920F931F936C017B01EA
:1015E000DC0112968C91129713969C911397FB0134
:1015F0008083918314966C91149715967C91FB01CE
:10160000DF010D900020E9F79D01215030402E1B95
:101610003F0BC901A0E0B0E0F70182839383A4836C
:10162000B583A7014A5F5F4FCA01A9010E94731ADF
:10163000D70112960D911C9113970A5F1F4F570106
:10164000A00EB11EF60166817781FB01DF010D90CE
:101650000020E9F79D01215030402E1B3F0BC901AE
:10166000A0E0B0E0F50180839183A283B3830C5F97
:101670001F4FE00EF11EC701A9010E94731AD50188
:101680002D913C91200F311FC9011F910F91FF90A7
:10169000EF90DF90CF90BF90AF900895BF92CF9220
:1016A000DF92EF92FF920F931F93CF93DF936C0122
:1016B000EB01DC0112968C911297888319821A82B1
:1016C0001B8212968C91882309F4DDC064E070E0DF
:1016D00000E0802F90E0880F991F880F991FD60196
:1016E0001796ED91FC911897E80FF91F8081918171
:1016F000A281B381FE01E60FF71F8083292F3A2FC5
:101700004B2F552721839D014427552722838B2F5B
:101710009927AA27BB2783836C5F7F4F0F5FF60152
:1017200082810817B0F2AB019B012F5F3F4FD901B7
:1017300011967D010894E11CF11CB7016F5F7F4F8A
:101740008B014C0F5D1FF6018185FA0180832C0F00
:101750003D1FF9011082AC0FBD1F1C92EC0EFD1E47
:10176000D7011C92F6018185882361F100E0802F6A
:1017700090E0880F991F880F991FD6011E96ED9152
:10178000FC911F97E80FF91F80819181A281B3819D
:10179000FE01E60FF71F8083292F3A2F4B2F552785
:1017A00021839D014427552722838B2F9927AA2720
:1017B000BB2783836C5F7F4F0F5FF601818508171E
:1017C000B0F28B010C0F1D1FD60150968C915097D3
:1017D000F8018083CB010196FE01E80FF91F10820A
:1017E0000196FE01E80FF91F10820196FE01E80F35
:1017F000F91F1082AC014F5F5F4F50968C91882388
:10180000B9F1BB247E01E40EF51E8B2D90E0880F0C
:10181000991FD6015396ED91FC915497E80FF91F4B
:1018200060817181FB01DF010D900020E9F79D01CE
:10183000215030402E1B3F0BC901A0E0B0E0F70162
:1018400080839183A283B3838A010C5F1F4FAE0113
:10185000400F511FCA01A9010E94731AD7014D916F
:101860005C91400F511FB394F6018089B81650F275
:10187000CA01DF91CF911F910F91FF90EF90DF9000
:10188000CF90BF90089544E050E025E030E0A6E01E
:10189000B0E067E0E62EF12C68E070E008E010E0D0
:1018A00050CF6F927F929F92AF92BF92CF92DF9272
:1018B000EF92FF920F931F93CF93DF936C015B0125
:1018C000DB011C91FC018281811708F43BC1F60108
:1018D0001283112309F44BC164E070E010E0E601CB
:1018E0002396F501E60FF71F218130E040E050E03C
:1018F000542F432F322F2227828190E0A0E0B0E0C6
:10190000DC0199278827282B392B4A2B5B2B8081D8
:1019100090E0A0E0B0E0282B392B4A2B5B2B838191
:1019200090E0A0E0B0E0B82FAA2799278827282BBD
:10193000392B4A2B5B2BD60113962C9313971496B5
:101940003C93149715964C93159716965C9316979F
:101950006C5F7F4F812F90E0880F991F880F991F30
:101960001796ED91FC911897E80FF91F88819981DE
:10197000AA81BB8180839183A283B3831F5FF60119
:101980008281181708F4ADCFFB01EB0124968E017C
:10199000EA0DFB1DF080D60119968C9119978F15D1
:1019A00008F4FBC0D6011996FC92FF2009F453C03D
:1019B00010E0EAE0EE2EF12CEC0CFD1CF501EC0F32
:1019C000FD1F218130E040E050E0542F432F322FA3
:1019D0002227828190E0A0E0B0E0DC0199278827EF
:1019E000282B392B4A2B5B2B808190E0A0E0B0E0C4
:1019F000282B392B4A2B5B2B838190E0A0E0B0E0B1
:101A0000B82FAA2799278827282B392B4A2B5B2BFD
:101A1000C901DA01F60182879387A487B5872496E6
:101A2000812F90E0880F991F880F991F0684F785F2
:101A3000E02DE80FF91FD7012D913D914D915C915B
:101A400020833183428353831F5FF60181851817FA
:101A500008F4B4CF8E010A0D1B1DD8011C91F601AC
:101A60008089811708F48AC09E012C5F3F4FF601E0
:101A7000108B112309F457C09924E1E16E2E712CCB
:101A80006C0C7D1CF501E20FF31FE080F1800281F8
:101A90001381E9012496AE01662757FD6095762FE4
:101AA0004E0D5F1D601F711FCE01A0E0B0E08417D6
:101AB0009507A607B70788F49E01F501E20FF31F0B
:101AC0008081319780832F5F3F4FC901A0E0B0E054
:101AD00084179507A607B70780F3CE018E0D9F1DCB
:101AE000F501E80FF91F319710822197CA0DDB1D10
:101AF000D6015296DC93CE9351979C01892D90E0AC
:101B0000880F991F5396ED91FC915497E80FF91F98
:101B1000D3018D919C91918380839394F601808968
:101B2000981608F4AFCFC901DF91CF911F910F91A3
:101B3000FF90EF90DF90CF90BF90AF909F907F90FD
:101B40006F900895612F70E0660F771F660F771F03
:101B5000878190850E94AC19D60117968C931797B0
:101B600018969C93F6011283112309F0B5CEE4E098
:101B7000F0E0C8E0D0E008E010E00ACF612F70E0AC
:101B8000660F771F838994890E94AC19D6015396FA
:101B90008C93539754969C9367CF6F2D70E0660F8C
:101BA000771F660F771F1E968D919C911F970E943D
:101BB000AC19F60186879787F5CE86E396E062E456
:101BC00070E035D686E396E069E37EE0F1D540919A
:101BD000F0025091F1026091F2027091F302809153
:101BE000EE029091EF020E94061610929A05109252
:101BF000990510929C0510929B051092A0051092D9
:101C00009F0510929E0510929D0520E030E005C0D2
:101C10002F5F3F4F29313105CCF4F901EE0FFF1F43
:101C2000EB5CFA4F80819181892B91F787EC95E0ED
:101C30009183808323583F4F3093CC052093CB056D
:101C400084EF92E09093CE058093CD058FEC95E0E4
:101C5000909368058093670584E690E09093D205A1
:101C60008093D10581E090E09093A4058093A30533
:101C70000895CF93DF930E9721F40BC086E396E08F
:101C80004FD586E396E046D58823C1F7DF91CF9103
:101C9000089581E090E09093E9058093E805C0E025
:101CA000D0E086E396E03CD5FE01E752FA4F808310
:101CB0002196CE30D105ACF3DF91CF9108950F93EB
:101CC0001F9306E316E0C80160E670E019D5C8016D
:101CD0006FE070E082D5C8016FEF70E07ED5C8017B
:101CE0006DD51F910F9108958F929F92AF92BF92E1
:101CF000CF92DF92EF92FF920F931F93DF93CF93D8
:101D0000CDB7DEB72A970FB6F894DEBF0FBECDBFB2
:101D10004C0185E892E09A8389831B821C821D8294
:101D20001E821F82188619861A86D4011C968C91F1
:101D30008823F9F40E945F17E5E2F1E08E0E9F1E02
:101D4000D4016D937D938D939C9313972A960FB630
:101D5000F894DEBF0FBECDBFCF91DF911F910F91E1
:101D6000FF90EF90DF90CF90BF90AF909F908F90BB
:101D7000089568E0A62EB12CA80CB91CB4016D5EC4
:101D80007F4FE0918502F0918602CE010196099580
:101D9000DC018FEFF401858786878AE08787108AC8
:101DA000A18B128ABD016B5F7F4F62307105D4F148
:101DB00022E030E040E050E0F501E20FF31F8581C2
:101DC000480F511D2F5F3F4F62177307ACF7842FE9
:101DD000809556E0E52EF12CEA0EFB1EF401EE0D87
:101DE000FF1D8587D4011A96CD90DC901B97F7FCD8
:101DF000A1CF00E010E0F601A081B181ED91FC914E
:101E000011979501200F311F0190F081E02DCD0138
:101E1000D90115966C9109950F5F1F4FE016F106D9
:101E200054F788CF8FEFD5CF2F923F924F925F928A
:101E30006F927F928F929F92AF92BF92CF92DF92DA
:101E4000EF92FF920F931F93DF93CF93CDB7DEB73F
:101E500068970FB6F894DEBF0FBECDBF2C010E946D
:101E60005F176B8B7C8B8D8B9E8B920123543D4F28
:101E7000388F2F8BF90180819181A281B3812B89C9
:101E80003C894D895E89281B390B4A0B5B0BDA01B3
:101E9000C901895F9A42A040B04018F0D2011C9657
:101EA0001C927DEA272E72E0372E240C351CF1019E
:101EB00080819181892BB9F021EC32E0420E531ED2
:101EC000F20180819181A281B3812FE33DEF420E27
:101ED000531E2B893C894D895E8982179307A4077D
:101EE000B50708F497C0D2011296ED91FC911397B3
:101EF000A081B18118962D913C911997CF01F901DC
:101F000009959C0197FDB2C0F201EB54FD4F808111
:101F10009181820F931F91838083D1014D915C91B8
:101F20004630510509F47AC04115510539F52F3F66
:101F30003105C9F681E090E0D1018D939C93E1ECED
:101F4000F2E04E0E5F1E2B893C894D895E892C5E26
:101F50003F4F4F4F5F4FD2012D933D934D935C9375
:101F60001397EFE3FDEF4E0E5F1E245130404040CB
:101F700050402B8B3C8B4D8B5E8BB5CF4130510548
:101F800009F46CC04230510509F423C143305105B6
:101F900009F432C14430510509F43FC145305105BF
:101FA00009F459C14730510509F09DCF60E071E057
:101FB0000E9406188F3F910569F521EB32E0420E31
:101FC000531ED201ED91FC912FE43DEF420E531EC2
:101FD000309709F458C1EA30F10509F48BC2E430B6
:101FE000F10509F42DC3E456F040EE0FFF1FE40D98
:101FF000F51DE558FD4FA081B181109759F0ED9185
:10200000FC911197B2016F5C7E4F0190F081E02D41
:10201000CD010995D1011D921C9265CFD201AD541D
:10202000BD4F8D919C911197F201E80FF91FEF5C64
:10203000FE4F208301968D939C93F201E155FD4F55
:1020400080819181019791838083892B09F04BCF07
:1020500087E090E0F1019183808345CF2F3F3105E8
:1020600009F4F3C0F101118210823DCFF2018485A1
:10207000882309F495C0F9EB8F2EF2E09F2E840C93
:10208000951CF40180819181A281B3812B893C89C7
:102090004D895E89281B390B4A0B5B0BDA01C9019C
:1020A000855C9940A040B04008F47AC085E892E091
:1020B0009A8789871B861C861D861E861F86188A1E
:1020C000198A1A8AE8E0AE2EB12CA40CB51CB20114
:1020D0006D5E7F4FE0918502F0918602CE010996F8
:1020E0000995DC018FEFF201858786878AE0878773
:1020F000108AA18B128ABD016B5F7F4F6230710520
:102100000CF4B5C222E030E040E050E0F501E20F0F
:10211000F31F8581480F511D2F5F3F4F62177307D3
:10212000ACF7842F809576E0E72EF12CEA0EFB1EAB
:10213000F201EE0DFF1D8587D2011A96CD90DC903D
:102140001B97F7FC18C000E010E0F601A081B181F8
:10215000ED91FC9111979501200F311F0190F081B5
:10216000E02DCD01D90115966C9109950F5F1F4F98
:10217000E016F10654F7A3D6E5E2F1E04E0E5F1E3D
:10218000D2016D937D938D939C9313972B893C89FA
:102190004D895E89D4012D933D934D935C931397A4
:1021A00068960FB6F894DEBF0FBECDBFCF91DF911A
:1021B0001F910F91FF90EF90DF90CF90BF90AF9065
:1021C0009F908F907F906F905F904F903F902F9057
:1021D000089541EB52E0440E551ED2012D933C93DD
:1021E0004FE45DEF440E551E83E090E0D1018D93E6
:1021F0009C933183208377CEF201EF54FD4F922FD1
:10220000882720813181820F931F9183808384E00E
:1022100090E0F1019183808366CE4FEA52E0440E54
:10222000551ED2012D933C93E4E0F0E04E0E5F1E6C
:10223000D2011D921C92EDE4FDEF4E0E5F1E85E073
:1022400090E0D1018D939C934ECE82E090E0D1013D
:102250008D939C9348CEF201E155FD4F322F2227FA
:1022600080819181280F391F3183208386E090E09F
:10227000F10191838083232B09F035CE87E090E034
:102280009183808330CEC2012FDD81E0D2011C9684
:102290008C938BE792E09A8389838824992408C0E1
:1022A0000894811C911CB9E18B1691040CF07DC03F
:1022B000F401EE0FFF1FE40DF51DE75BFD4F0190EC
:1022C000F081E02D309761F3848195819C838B832D
:1022D000808191819E838D83A281B381ED91FC9158
:1022E00011970480F581E02DCD01099598878F83A2
:1022F000F20184858823A1F238E0A32EB12CA40C2E
:10230000B51CE981FA81B2016D5E7F4F0190F081C9
:10231000E02DCE0101960995DC018FEFF201858752
:1023200086871786108AA18B128ABD016B5F7F4F4B
:10233000623071058CF022E030E040E050E0F501C1
:10234000E20FF31F8581480F511D2F5F3F4F62172A
:102350007307ACF7842F809526E0E22EF12CEA0E6D
:10236000FB1EF201EE0DFF1D8587D2011A96CD905E
:10237000DC901B97F7FC94CF00E010E0F601A08101
:10238000B181ED91FC9111979501200F311F0190C2
:10239000F081E02DCD01D90115966C9109950F5F63
:1023A0001F4FE016F10654F77BCF8824992408C00C
:1023B0000894811C911CB9E18B1691040CF080C02B
:1023C000F401EE0FFF1FE40DF51DE558FD4FA08150
:1023D000B181109769F312968D919C9113979C830C
:1023E0008B8314968D919C9115979E838D83ED918F
:1023F000FC9111970480F581E02DCD010995988716
:102400008F83F2018485882399F288E0A82EB12C6D
:10241000A40CB51CE981FA81B2016D5E7F4F019079
:10242000F081E02DCE0101960995DC018FEFF201DC
:102430008587868781E08787108AA18B128ABD01F4
:102440006B5F7F4F623071050CF40FC122E030E00A
:1024500040E050E0F501E20FF31F8581480F511D68
:102460002F5F3F4F62177307ACF7842F809506E00C
:10247000E02EF12CEA0EFB1EF201EE0DFF1D85870A
:10248000D2011A96CD90DC901B97F7FC91CF00E01B
:1024900010E0F601A081B181ED91FC9111979501B9
:1024A000200F311F0190F081E02DCD01D90115964B
:1024B0006C9109950F5F1F4FE016F10654F778CF26
:1024C000E9EBF2E04E0E5F1E2B893C894D895E8957
:1024D000D2012D933D934D935C931397E7E4FDEF69
:1024E0004E0E5F1EAF89B88D2D933D934D935C9337
:1024F000139790CD85E892E09A8789871B861C8682
:102500001D861E861F86188A198A1A8AD8D47B01CE
:102510008C01E5E2F1E04E0E5F1EF20180819181B7
:10252000A281B3812BED3EEF420E531EE81AF90A49
:102530000A0B1B0BB2016F5C7E4FCE0109960E9405
:102540004507C801B70128EE33E040E050E071D5FF
:102550008B859C85AD85BE85820F931FA41FB51FFB
:102560008B879C87AD87BE87C801B70128EE33E013
:1025700040E050E05ED520E432E44FE050E027D563
:102580002F85388949895A89260F371F481F591FB7
:102590002F87388B498B5A8B92D45B016C0119E2DF
:1025A000612E11E0712E640C751CEB84FC840D858A
:1025B0001E850894E108F1080109110928EE33E0AD
:1025C00040E050E036D5E21AF30A040B150BD301B4
:1025D000ED92FD920D931C931397BDE28B2EB1E00B
:1025E0009B2E840C951CEF84F88809891A8920E0B9
:1025F0003AEC4AE95BE3E20EF31E041F151FC60125
:10260000B50128EE33E040E050E013D520E432E499
:102610004FE050E0DCD4E61AF70A080B190BD4019E
:10262000ED92FD920D931C931397C301B40130D02A
:1026300046D4EF89F88D6083718382839383EACCDB
:10264000C2018A539D4F21E331E0420E531EB20175
:1026500028D944E951E0440E551E81E0D2018C9303
:10266000EBE3FDEF4E0E5F1ED5CC8FEF00CF8FEF6B
:102670005ACD8091E8059091E905892B31F01092AF
:10268000E9051092E8050E9432098CEE92E0CCCB6D
:10269000AF92BF92CF92DF92EF92FF920F931F9370
:1026A0006C015B01FB01E080F18002811381C801B4
:1026B000B70120E03AEC4AE95BE3BBD4F601808144
:1026C0009181A281B381820F931FA41FB51F8083C4
:1026D0009183A283B383C801B70120E03AEC4AE9B1
:1026E0005BE3A7D4F50160837183828393831F9199
:1026F0000F91FF90EF90DF90CF90BF90AF90089533
:1027000081E08093310660930E0610922F0610929E
:102710003006089580910D0690910C06891B08954E
:1027200090910C0680910D06981748F4E92FF0E07F
:10273000E451FA4F80819F5F90930C06089580E0EA
:1027400008959C014091340650913506411551057C
:1027500011F190910C0680910D069817E0F0161675
:10276000170694F490E0A0E0B0E0E0E0F0E0A451BF
:10277000BA4FE20FF31F80818C939F5FE92FF0E047
:10278000DF01E617F7079CF310920C0660930D0625
:10279000CB01FA0109950895E0913206F0913306D4
:1027A000309729F010922F0610923006099508955F
:1027B00070933506609334060895089580910E064F
:1027C0006FE076E04091300621E059D010922F065C
:1027D00010923006109231060895DF93CF930F9236
:1027E000CDB7DEB7809131068823C1F080913006E5
:1027F000803220F00F90CF91DF91089580912F06C5
:10280000E82FF0E0E15FF94F60838F5F80932F0640
:10281000809330060F90CF91DF9108956983CE01A8
:10282000019661E071D00F90CF91DF910895862FCE
:1028300022D08CEC93E18BD081EA93E183D010928B
:102840000C0610920D0610922F061092300600C052
:1028500010923706449A459AE9EBF0E080818E7F2A
:10286000808380818D7F808388E48093B80085E4B5
:102870008093BC000895880F8093BA000895982F24
:102880004132D0F5809137068823E1F782E08093CA
:1028900037068FEF8093A20610925D0640935E0686
:1028A000442369F030E0E32FF0E0DB01AE0FBF1FFF
:1028B0008C91E35CF94F80833F5F3417A0F3892F3D
:1028C00090E0880F991F8093380685EE8093BC00B6
:1028D000222321F0809137068230E1F38091A20615
:1028E0008F3F61F08091A206803251F08091A20664
:1028F000803341F084E0089581E0089580E00895F8
:1029000082E0089583E00895AC016132C8F48091BB
:102910003706843011F082E00895609380066623C4
:1029200069F020E0E22FF0E0DA01AE0FBF1F8C91DA
:10293000E15AF94F80832F5F2617A0F380E00895B6
:1029400081E0089590933C0680933B060895909310
:102950003A068093390608951F920F920FB60F9290
:1029600011242F933F934F935F936F937F938F9394
:102970009F93AF93BF93EF93FF938091B90090E043
:10298000A0E0B0E0887F9070A070B070FC01893C3E
:10299000910590F5EC5CFF4FEE0FFF1F0590F49151
:1029A000E02D099484E08093370610927F06109200
:1029B0008006E0913906F0913A06099580918006EB
:1029C000882329F481E08093800610925F0690911D
:1029D0007F06E92FF0E0E15AF94F80818093BB0038
:1029E0009F5F90937F0690917F0680918006981755
:1029F000C8F485EC8093BC00FF91EF91BF91AF913B
:102A00009F918F917F916F915F914F913F912F9106
:102A10000F900FBE0F901F9018958091A1068032E5
:102A200008F49CC085E88093BC00E6CF80915D06E9
:102A30009091BB00E82FF0E0E35CF94F90838F5F4B
:102A400080935D0690915D0680915E06981750F721
:102A5000D0CF80915D069091BB00E82FF0E0E35C61
:102A6000F94F90838F5F80935D0685ED8093BC0066
:102A70008091BC0084FDFCCF10923706BDCF85EC61
:102A80008093BC0010923706B7CF83E0809337065F
:102A90001092A10685EC8093BC00AECF1092A206E6
:102AA00085ED8093BC008091BC0084FDFCCFE4CF19
:102AB000809138068093BB0085EC8093BC009CCF4E
:102AC00090915D0680915E06981708F45EC085EDD2
:102AD0008093BC008091BC0084FDFCCFCDCF80E210
:102AE0008093A20685ED8093BC008091BC0084FD9C
:102AF000FCCFC2CF8091A106803208F43FC085EDA3
:102B00008093BC008091BC0084FDFCCF10923706FE
:102B10006091A106E0913B06F0913C0681E896E0C9
:102B200070E009951092A10685EC8093BC0010928C
:102B3000370662CF80E38093A20685ED8093BC00C8
:102B40008091BC0084FDFCCF97CF88E38093A206E0
:102B500085EC8093BC00109237064ECF8091A10681
:102B60009091BB00E82FF0E0EF57F94F90838F5F13
:102B70008093A10685EC8093BC003ECFE091A10636
:102B8000F0E0EF57F94F1082BACF90915D06E92F30
:102B9000F0E0E35CF94F80818093BB009F5F9093EE
:102BA0005D0685EC8093BC0027CF1F920F920FB675
:102BB0000F9211242F933F934F938F939F93EF93F3
:102BC000FF934091C600E0912307F09124073196CE
:102BD0009F012F77307031978091250790912607BC
:102BE0002817390739F0ED55F94F40833093240702
:102BF00020932307FF91EF919F918F914F913F91E8
:102C00002F910F900FBE0F901F901895CF93DF93C9
:102C1000EC019A01AB01203081EE380780E04807D3
:102C200080E0580709F449C0E885F98581E090E023
:102C30000A8802C0880F991F0A94E2F7808360E037
:102C400079E08DE390E017D2215030404040504071
:102C5000CA01B90122E030E040E050E00CD2EC8142
:102C6000FD813083EE81FF812083EA85FB85208111
:102C700041E050E0CA010E8402C0880F991F0A94F7
:102C8000E2F7282B2083EA85FB852081CA010F8487
:102C900002C0880F991F0A94E2F7282B2083EA8547
:102CA000FB858081088802C0440F551F0A94E2F713
:102CB000842B8083DF91CF910895E885F985108278
:102CC00030E020E1CCCFDC011296ED91FC9113971E
:102CD000E058FF4F2191319180819181281B390B60
:102CE0002F773070C9010895DC011296ED91FC91A7
:102CF0001397EE57FF4F2081318192918291E058D6
:102D0000F0408217930739F0E20FF31F8081282FDC
:102D100030E0C90108952FEF3FEFC9010895DC01AC
:102D20001296ED91FC911397DF01AE57BF4F2D9195
:102D30003C911197E058FF4F80819181E058F0401D
:102D40008217930769F0E20FF31F80812F5F3F4FD7
:102D50002F7730702D933C93282F30E0C9010895D0
:102D60002FEF3FEFC9010895DC011296ED91FC9120
:102D70001397EE57FF4F808191819293829308952C
:102D8000DC011896ED91FC91199751962C91519771
:102D9000808190E0022E02C0959587950A94E2F713
:102DA00080FFF6CF1C96ED91FC911D9760830895EE
:102DB0008FEC92E0909328078093270783EA96E0B0
:102DC00090932A078093290785EC90E090932C0735
:102DD00080932B0784EC90E090932E0780932D072F
:102DE00080EC90E09093300780932F0781EC90E087
:102DF000909332078093310786EC90E090933407EC
:102E00008093330784E08093350783E0809336070F
:102E100087E08093370785E08093380781E08093CF
:102E2000390708955AD00E94DD0D23DCFECF1F9292
:102E30000F920FB60F9211242F933F938F939F936E
:102E4000AF93BF9380913E0790913F07A0914007B9
:102E5000B0914107309142070196A11DB11D232F6A
:102E60002D5F2D3720F02D570196A11DB11D209308
:102E7000420780933E0790933F07A0934007B0938B
:102E8000410780913A0790913B07A0913C07B09190
:102E90003D070196A11DB11D80933A0790933B0712
:102EA000A0933C07B0933D07BF91AF919F918F9145
:102EB0003F912F910F900FBE0F901F9018958FB7D5
:102EC000F89420913E0730913F0740914007509180
:102ED00041078FBFB901CA010895789484B5826013
:102EE00084BD84B5816084BD85B5826085BD85B5AE
:102EF000816085BDEEE6F0E0808181608083E1E85D
:102F0000F0E0108280818260808380818160808394
:102F1000E0E8F0E0808181608083E1EBF0E0808197
:102F200084608083E0EBF0E0808181608083EAE769
:102F3000F0E08081846080838081826080838081F2
:102F4000816080838081806880831092C1000895B1
:102F50000F931F93CF93DF938C01EB01688166235E
:102F600061F02196D801ED91FC910190F081E02D66
:102F7000C801099568816623A1F7DF91CF911F9160
:102F80000F910895EF92FF920F931F93CF93DF93CA
:102F90008C017B014115510599F0EA01219701C08F
:102FA000EC01D7016D917D01D801ED91FC9101906B
:102FB000F081E02DC8010995CE010197CD2B81F755
:102FC000DF91CF911F910F91FF90EF900895629F35
:102FD000D001739FF001829FE00DF11D649FE00D11
:102FE000F11D929FF00D839FF00D749FF00D659F72
:102FF000F00D9927729FB00DE11DF91F639FB00D71
:10300000E11DF91FBD01CF011124089597FB092E81
:1030100007260AD077FD04D049D006D000201AF444
:10302000709561957F4F0895F6F7909581959F4F24
:103030000895A1E21A2EAA1BBB1BFD010DC0AA1FF9
:10304000BB1FEE1FFF1FA217B307E407F50720F011
:10305000A21BB30BE40BF50B661F771F881F991F8C
:103060001A9469F760957095809590959B01AC01D5
:10307000BD01CF01089597FB092E05260ED057FDFF
:1030800004D0D7DF0AD0001C38F450954095309515
:1030900021953F4F4F4F5F4F0895F6F790958095DC
:1030A000709561957F4F8F4F9F4F0895AA1BBB1B53
:1030B00051E107C0AA1FBB1FA617B70710F0A61B38
:1030C000B70B881F991F5A95A9F780959095BC0159
:1030D000CD0108952F923F924F925F926F927F920F
:1030E0008F929F92AF92BF92CF92DF92EF92FF9218
:1030F0000F931F93CF93DF93CDB7DEB7CA1BDB0BC4
:103100000FB6F894DEBF0FBECDBF09942A88398868
:1031100048885F846E847D848C849B84AA84B9846F
:10312000C884DF80EE80FD800C811B81AA81B9817B
:10313000CE0FD11D0FB6F894DEBF0FBECDBFED018F
:103140000895EE0FFF1F0590F491E02D0994CF93A1
:10315000DF93BC018230910510F462E070E0A09131
:103160004507B0914607ED01E0E0F0E040E050E0B7
:1031700021C0888199818617970769F48A819B818C
:10318000309719F09383828304C09093460780930D
:103190004507FE0134C06817790738F44115510519
:1031A00019F08417950708F4AC01FE018A819B8110
:1031B0009C01E9012097E9F641155105A9F1CA01E1
:1031C000861B970B049708F4BA01E0E0F0E02AC0F0
:1031D0008D919C91119784179507F9F464177507E1
:1031E00081F412968D919C911397309719F09383E7
:1031F000828304C09093460780934507FD01329671
:103200004FC0CA01861B970BFD01E80FF91F6193A0
:10321000719302978D939C9343C0FD0182819381AA
:103220009C01D9011097A1F6809143079091440722
:10323000892B41F48091630290916402909344073A
:1032400080934307409165025091660241155105F4
:1032500041F44DB75EB78091610290916202481BC4
:10326000590B209143073091440724173507B0F4D8
:10327000CA01821B930B8617970780F0AB014E5F44
:103280005F4F8417950750F0420F531F5093440728
:1032900040934307F9016193719302C0E0E0F0E0CD
:1032A000CF01DF91CF910895CF93DF93009709F479
:1032B00050C0EC0122971B821A82A0914507B09161
:1032C0004607109709F140E050E0AC17BD0708F140
:1032D000BB83AA83FE0121913191E20FF31FAE1748
:1032E000BF0779F48D919C911197280F391F2E5F9C
:1032F0003F4F3983288312968D919C9113979B831E
:103300008A834115510571F4D0934607C093450750
:1033100020C012968D919C911397AD01009711F0EA
:10332000DC01D3CFFA01D383C28321913191E20F23
:10333000F31FCE17DF0769F488819981280F391FA1
:103340002E5F3F4FFA01318320838A819B819383D3
:103350008283DF91CF910895A0E0B0E0E1EBF9E145
:10336000BFCE8C01009721F4CB01F1DE8C01B6C0F9
:103370009EEFE92E9FEFF92EE00EF11E5801A60EEA
:10338000B71EAE14BF0408F4A7C08EEF882E8FEFCF
:10339000982E8A0C9B1CE7014881598146175707D4
:1033A000B0F04530510508F499C0CA01049786175A
:1033B000970708F493C042505040461B570BF40146
:1033C0005183408379836883C5016EDF87C06B01B9
:1033D000C41AD50AE0914507F0914607A0E0B0E095
:1033E000C0E0D0E042C0E815F905A1F520813181A7
:1033F0002C153D0578F1C90102968C159D05A8F0A4
:103400004E5F5F4F420F531FE7015983488322816C
:103410003381109729F013963C932E9312975EC038
:10342000309346072093450759C0225030402C194D
:103430003D0931832083109729F01396FC93EE9376
:10344000129704C0F0934607E0934507F701718394
:10345000608344C080819181C817D90708F4EC01CA
:10346000DF01828193819C01F901309709F0BBCF84
:10347000400F511F8091430790914407841795078F
:10348000E9F4C617D707D0F420916502309166029F
:103490002115310541F42DB73EB78091610290911D
:1034A0006202281B390BA216B306B0F4B09244078F
:1034B000A0924307E7017983688310C0CB0147DE00
:1034C000EC01009749F0F70140815181B8010BD020
:1034D000C801EADE8E0102C000E010E0C801CDB7ED
:1034E000DEB7ECE019CEFB01DC0102C001900D92C9
:0C34F00041505040D8F70895F894FFCFE9
:1034FC007374645F6D7367732F54696D6500726FBD
:10350C007373657269616C5F6D7367732F546F7041
:10351C006963496E666F00696D755F6D73672F4FD8
:10352C007269656E746174696F6E007374645F6D3B
:10353C007367732F456D70747900696D7500636DD9
:10354C00707330335F63616C00000000000000009A
:10355C000000010202030303030404040404040432
:10356C000405050505050505050505050505050500
:10357C0005060606060606060606060606060606E0
:10358C0006060606060606060606060606060606CF
:10359C0006070707070707070707070707070707B0
:1035AC00070707070707070707070707070707079F
:1035BC00070707070707070707070707070707078F
:1035CC00070707070707070707070707070707077F
:1035DC000708080808080808080808080808080860
:1035EC00080808080808080808080808080808084F
:1035FC00080808080808080808080808080808083F
:10360C00080808080808080808080808080808082E
:10361C00080808080808080808080808080808081E
:10362C00080808080808080808080808080808080E
:10363C0008080808080808080808080808080808FE
:10364C0008080808080808080808080808080808EE
:10365C00082000470700000000000048088A0826E0
:10366C000900000000140F00000000E60AB0074239
:10367C00080000000016074507AD07000000001306
:10368C000A000000004E0B510C4508726F737365F5
:10369C007269616C5F6D7367732F526571756573B9
:1036AC0074506172616D0000000000820A890A8CFE
:1036BC000A0000000029092C092F0900000000C095
:0E36CC0016A817C21763168F167416B41600D0
:00000001FF
